{
  "_format": "hh-sol-artifact-1",
  "contractName": "NFTMasterChef",
  "sourceName": "contracts/NFTMasterChef.sol",
  "abi": [
    {
      "inputs": [
        {
          "internalType": "address",
          "name": "_stakedToken",
          "type": "address"
        },
        {
          "internalType": "address",
          "name": "_secondskinNFT",
          "type": "address"
        }
      ],
      "stateMutability": "nonpayable",
      "type": "constructor"
    },
    {
      "anonymous": false,
      "inputs": [
        {
          "indexed": true,
          "internalType": "address",
          "name": "chef",
          "type": "address"
        },
        {
          "indexed": true,
          "internalType": "address",
          "name": "sender",
          "type": "address"
        },
        {
          "indexed": false,
          "internalType": "uint256",
          "name": "period",
          "type": "uint256"
        },
        {
          "indexed": false,
          "internalType": "uint256",
          "name": "required_amount",
          "type": "uint256"
        },
        {
          "indexed": false,
          "internalType": "uint256",
          "name": "rewardnft_amount",
          "type": "uint256"
        },
        {
          "indexed": false,
          "internalType": "bool",
          "name": "is_live",
          "type": "bool"
        }
      ],
      "name": "AddedRequiredLockAmount",
      "type": "event"
    },
    {
      "anonymous": false,
      "inputs": [
        {
          "indexed": false,
          "internalType": "string",
          "name": "id",
          "type": "string"
        },
        {
          "indexed": true,
          "internalType": "address",
          "name": "chef",
          "type": "address"
        },
        {
          "indexed": true,
          "internalType": "address",
          "name": "reward_nft",
          "type": "address"
        }
      ],
      "name": "NewNFTChefContract",
      "type": "event"
    },
    {
      "anonymous": false,
      "inputs": [
        {
          "indexed": true,
          "internalType": "address",
          "name": "previousOwner",
          "type": "address"
        },
        {
          "indexed": true,
          "internalType": "address",
          "name": "newOwner",
          "type": "address"
        }
      ],
      "name": "OwnershipTransferred",
      "type": "event"
    },
    {
      "anonymous": false,
      "inputs": [
        {
          "indexed": true,
          "internalType": "address",
          "name": "chef",
          "type": "address"
        },
        {
          "indexed": true,
          "internalType": "address",
          "name": "sender",
          "type": "address"
        },
        {
          "indexed": false,
          "internalType": "uint256",
          "name": "stake_index",
          "type": "uint256"
        },
        {
          "indexed": false,
          "internalType": "uint256",
          "name": "staked_amount",
          "type": "uint256"
        },
        {
          "indexed": false,
          "internalType": "uint256",
          "name": "locked_at",
          "type": "uint256"
        },
        {
          "indexed": false,
          "internalType": "uint256",
          "name": "lock_duration",
          "type": "uint256"
        },
        {
          "indexed": false,
          "internalType": "uint256",
          "name": "unlock_at",
          "type": "uint256"
        },
        {
          "indexed": false,
          "internalType": "uint256",
          "name": "nft_balance",
          "type": "uint256"
        },
        {
          "indexed": false,
          "internalType": "uint256",
          "name": "booster_percent",
          "type": "uint256"
        }
      ],
      "name": "Staked",
      "type": "event"
    },
    {
      "anonymous": false,
      "inputs": [
        {
          "indexed": true,
          "internalType": "address",
          "name": "chef",
          "type": "address"
        },
        {
          "indexed": true,
          "internalType": "address",
          "name": "sender",
          "type": "address"
        },
        {
          "indexed": false,
          "internalType": "uint256",
          "name": "stake_index",
          "type": "uint256"
        },
        {
          "indexed": false,
          "internalType": "uint256",
          "name": "withdraw_amount",
          "type": "uint256"
        },
        {
          "indexed": false,
          "internalType": "uint256",
          "name": "withdraw_at",
          "type": "uint256"
        },
        {
          "indexed": false,
          "internalType": "uint256",
          "name": "nft_balance",
          "type": "uint256"
        },
        {
          "indexed": false,
          "internalType": "uint256",
          "name": "booster_percent",
          "type": "uint256"
        }
      ],
      "name": "Unstake",
      "type": "event"
    },
    {
      "inputs": [
        {
          "internalType": "string",
          "name": "_id",
          "type": "string"
        },
        {
          "internalType": "address",
          "name": "_rewardNFT",
          "type": "address"
        },
        {
          "internalType": "uint256[]",
          "name": "_booster",
          "type": "uint256[]"
        }
      ],
      "name": "deploy",
      "outputs": [],
      "stateMutability": "nonpayable",
      "type": "function"
    },
    {
      "inputs": [
        {
          "internalType": "address",
          "name": "sender",
          "type": "address"
        },
        {
          "internalType": "uint256",
          "name": "period",
          "type": "uint256"
        },
        {
          "internalType": "uint256",
          "name": "required_amount",
          "type": "uint256"
        },
        {
          "internalType": "uint256",
          "name": "rewardnft_amount",
          "type": "uint256"
        },
        {
          "internalType": "bool",
          "name": "is_live",
          "type": "bool"
        }
      ],
      "name": "emitAddedRequiredLockAmountEventFromSubChef",
      "outputs": [],
      "stateMutability": "nonpayable",
      "type": "function"
    },
    {
      "inputs": [
        {
          "internalType": "address",
          "name": "sender",
          "type": "address"
        },
        {
          "internalType": "uint256",
          "name": "stake_index",
          "type": "uint256"
        },
        {
          "internalType": "uint256",
          "name": "staked_amount",
          "type": "uint256"
        },
        {
          "internalType": "uint256",
          "name": "locked_at",
          "type": "uint256"
        },
        {
          "internalType": "uint256",
          "name": "lock_duration",
          "type": "uint256"
        },
        {
          "internalType": "uint256",
          "name": "unlock_at",
          "type": "uint256"
        },
        {
          "internalType": "uint256",
          "name": "nft_balance",
          "type": "uint256"
        },
        {
          "internalType": "uint256",
          "name": "booster_percent",
          "type": "uint256"
        }
      ],
      "name": "emitStakedEventFromSubChef",
      "outputs": [],
      "stateMutability": "nonpayable",
      "type": "function"
    },
    {
      "inputs": [
        {
          "internalType": "address",
          "name": "sender",
          "type": "address"
        },
        {
          "internalType": "uint256",
          "name": "stake_index",
          "type": "uint256"
        },
        {
          "internalType": "uint256",
          "name": "withdraw_amount",
          "type": "uint256"
        },
        {
          "internalType": "uint256",
          "name": "withdraw_at",
          "type": "uint256"
        },
        {
          "internalType": "uint256",
          "name": "nft_balance",
          "type": "uint256"
        },
        {
          "internalType": "uint256",
          "name": "booster_percent",
          "type": "uint256"
        }
      ],
      "name": "emitUnstakedEventFromSubChef",
      "outputs": [],
      "stateMutability": "nonpayable",
      "type": "function"
    },
    {
      "inputs": [
        {
          "internalType": "uint256",
          "name": "id",
          "type": "uint256"
        }
      ],
      "name": "getChefAddress",
      "outputs": [
        {
          "internalType": "address",
          "name": "",
          "type": "address"
        }
      ],
      "stateMutability": "view",
      "type": "function"
    },
    {
      "inputs": [],
      "name": "owner",
      "outputs": [
        {
          "internalType": "address",
          "name": "",
          "type": "address"
        }
      ],
      "stateMutability": "view",
      "type": "function"
    },
    {
      "inputs": [],
      "name": "renounceOwnership",
      "outputs": [],
      "stateMutability": "nonpayable",
      "type": "function"
    },
    {
      "inputs": [],
      "name": "secondskinNFT",
      "outputs": [
        {
          "internalType": "address",
          "name": "",
          "type": "address"
        }
      ],
      "stateMutability": "view",
      "type": "function"
    },
    {
      "inputs": [],
      "name": "stakedToken",
      "outputs": [
        {
          "internalType": "address",
          "name": "",
          "type": "address"
        }
      ],
      "stateMutability": "view",
      "type": "function"
    },
    {
      "inputs": [],
      "name": "total_count",
      "outputs": [
        {
          "internalType": "uint256",
          "name": "",
          "type": "uint256"
        }
      ],
      "stateMutability": "view",
      "type": "function"
    },
    {
      "inputs": [
        {
          "internalType": "address",
          "name": "newOwner",
          "type": "address"
        }
      ],
      "name": "transferOwnership",
      "outputs": [],
      "stateMutability": "nonpayable",
      "type": "function"
    }
  ],
  "bytecode": "0x60806040523480156200001157600080fd5b5060405162005a9b38038062005a9b833981810160405281019062000037919062000309565b620000576200004b620001d360201b60201c565b620001db60201b60201c565b600073ffffffffffffffffffffffffffffffffffffffff168173ffffffffffffffffffffffffffffffffffffffff1603620000c9576040517f08c379a0000000000000000000000000000000000000000000000000000000008152600401620000c090620003d7565b60405180910390fd5b60008273ffffffffffffffffffffffffffffffffffffffff166318160ddd6040518163ffffffff1660e01b8152600401602060405180830381865afa15801562000117573d6000803e3d6000fd5b505050506040513d601f19601f820116820180604052508101906200013d919062000434565b10156200014957600080fd5b80600160006101000a81548173ffffffffffffffffffffffffffffffffffffffff021916908373ffffffffffffffffffffffffffffffffffffffff16021790555081600260006101000a81548173ffffffffffffffffffffffffffffffffffffffff021916908373ffffffffffffffffffffffffffffffffffffffff160217905550505062000466565b600033905090565b60008060009054906101000a900473ffffffffffffffffffffffffffffffffffffffff169050816000806101000a81548173ffffffffffffffffffffffffffffffffffffffff021916908373ffffffffffffffffffffffffffffffffffffffff1602179055508173ffffffffffffffffffffffffffffffffffffffff168173ffffffffffffffffffffffffffffffffffffffff167f8be0079c531659141344cd1fd0a4f28419497f9722a3daafe3b4186f6b6457e060405160405180910390a35050565b600080fd5b600073ffffffffffffffffffffffffffffffffffffffff82169050919050565b6000620002d182620002a4565b9050919050565b620002e381620002c4565b8114620002ef57600080fd5b50565b6000815190506200030381620002d8565b92915050565b600080604083850312156200032357620003226200029f565b5b60006200033385828601620002f2565b92505060206200034685828601620002f2565b9150509250929050565b600082825260208201905092915050565b7f5365636f6e64736b696e204e46542073686f756c64206e6f74206265207a657260008201527f6f20616464726573730000000000000000000000000000000000000000000000602082015250565b6000620003bf60298362000350565b9150620003cc8262000361565b604082019050919050565b60006020820190508181036000830152620003f281620003b0565b9050919050565b6000819050919050565b6200040e81620003f9565b81146200041a57600080fd5b50565b6000815190506200042e8162000403565b92915050565b6000602082840312156200044d576200044c6200029f565b5b60006200045d848285016200041d565b91505092915050565b61562580620004766000396000f3fe60806040523480156200001157600080fd5b5060043610620000b85760003560e01c80638da5cb5b116200007b5780638da5cb5b146200014b5780639b9416bb146200016d578063cc7a262e146200018f578063ed23b10614620001b1578063f2fde38b14620001e7578063fab6fdbe146200020757620000b8565b8063398f008614620000bd5780635593394914620000df5780635b8ac7d114620000ff57806361b7809f146200011f578063715018a6146200013f575b600080fd5b620000c762000227565b604051620000d6919062000d90565b60405180910390f35b620000fd6004803603810190620000f7919062000ff1565b6200022d565b005b6200011d6004803603810190620001179190620010fe565b62000679565b005b6200013d600480360381019062000137919062001186565b620007c3565b005b6200014962000916565b005b620001556200092e565b60405162000164919062001260565b60405180910390f35b6200017762000957565b60405162000186919062001260565b60405180910390f35b620001996200097d565b604051620001a8919062001260565b60405180910390f35b620001cf6004803603810190620001c991906200127d565b620009a3565b604051620001de919062001260565b60405180910390f35b620002056004803603810190620001ff9190620012af565b62000a27565b005b6200022560048036038101906200021f9190620012e1565b62000ab1565b005b60035481565b6200023762000bfe565b600073ffffffffffffffffffffffffffffffffffffffff168373ffffffffffffffffffffffffffffffffffffffff16036200027157600080fd5b60005b82829050811015620003f25760008383838181106200029857620002976200137d565b5b9050602002013511620002e2576040517f08c379a0000000000000000000000000000000000000000000000000000000008152600401620002d9906200140d565b60405180910390fd5b611388838383818110620002fb57620002fa6200137d565b5b905060200201351062000345576040517f08c379a00000000000000000000000000000000000000000000000000000000081526004016200033c90620014a5565b60405180910390fd5b6000811115620003dc578282600183620003609190620014f6565b8181106200037357620003726200137d565b5b9050602002013583838381811062000390576200038f6200137d565b5b905060200201351015620003db576040517f08c379a0000000000000000000000000000000000000000000000000000000008152600401620003d290620015a7565b60405180910390fd5b5b8080620003e990620015c9565b91505062000274565b50600060405180602001620004079062000d67565b6020820181038252601f19601f82011660405250905080604051602001604051602081830303815290604052604051602001620004469291906200168f565b60405160208183030381529060405290506000600260009054906101000a900473ffffffffffffffffffffffffffffffffffffffff1685600160009054906101000a900473ffffffffffffffffffffffffffffffffffffffff16604051602001620004b49392919062001707565b6040516020818303038152906040528051906020012090506000818351602085016000f590508073ffffffffffffffffffffffffffffffffffffffff16632da3f9ce600260009054906101000a900473ffffffffffffffffffffffffffffffffffffffff168833600160009054906101000a900473ffffffffffffffffffffffffffffffffffffffff168a8a6040518763ffffffff1660e01b81526004016200056396959493929190620017cc565b600060405180830381600087803b1580156200057e57600080fd5b505af115801562000593573d6000803e3d6000fd5b505050508060046000600354815260200190815260200160002060006101000a81548173ffffffffffffffffffffffffffffffffffffffff021916908373ffffffffffffffffffffffffffffffffffffffff16021790555062000603600160035462000c8390919063ffffffff16565b6003819055508573ffffffffffffffffffffffffffffffffffffffff168173ffffffffffffffffffffffffffffffffffffffff167fcef0aa337299ac349ac85e18347fbe4f0f6676e6b6f4e550d91053595b46d6ae896040516200066891906200187e565b60405180910390a350505050505050565b6000805b6003548110156200070a573373ffffffffffffffffffffffffffffffffffffffff166004600083815260200190815260200160002060009054906101000a900473ffffffffffffffffffffffffffffffffffffffff1673ffffffffffffffffffffffffffffffffffffffff1603620006f457600191505b80806200070190620015c9565b9150506200067d565b50806200074e576040517f08c379a00000000000000000000000000000000000000000000000000000000081526004016200074590620018f2565b60405180910390fd5b8573ffffffffffffffffffffffffffffffffffffffff163373ffffffffffffffffffffffffffffffffffffffff167f95b38f7201d62ee17cf709bc50c4a4cfee363f55ed5e3ce3d59654f4da606c3187878787604051620007b3949392919062001925565b60405180910390a3505050505050565b6000805b60035481101562000854573373ffffffffffffffffffffffffffffffffffffffff166004600083815260200190815260200160002060009054906101000a900473ffffffffffffffffffffffffffffffffffffffff1673ffffffffffffffffffffffffffffffffffffffff16036200083e57600191505b80806200084b90620015c9565b915050620007c7565b508062000898576040517f08c379a00000000000000000000000000000000000000000000000000000000081526004016200088f90620018f2565b60405180910390fd5b8873ffffffffffffffffffffffffffffffffffffffff163373ffffffffffffffffffffffffffffffffffffffff167ff2760ce282eaf68c77ca7d18f9560ed8c991e4c3cec3a7b8a912ad4ffe6456998a8a8a8a8a8a8a60405162000903979695949392919062001972565b60405180910390a3505050505050505050565b6200092062000bfe565b6200092c600062000c9b565b565b60008060009054906101000a900473ffffffffffffffffffffffffffffffffffffffff16905090565b600160009054906101000a900473ffffffffffffffffffffffffffffffffffffffff1681565b600260009054906101000a900473ffffffffffffffffffffffffffffffffffffffff1681565b60008160035411620009ec576040517f08c379a0000000000000000000000000000000000000000000000000000000008152600401620009e39062001a3f565b60405180910390fd5b6004600083815260200190815260200160002060009054906101000a900473ffffffffffffffffffffffffffffffffffffffff169050919050565b62000a3162000bfe565b600073ffffffffffffffffffffffffffffffffffffffff168173ffffffffffffffffffffffffffffffffffffffff160362000aa3576040517f08c379a000000000000000000000000000000000000000000000000000000000815260040162000a9a9062001ad7565b60405180910390fd5b62000aae8162000c9b565b50565b6000805b60035481101562000b42573373ffffffffffffffffffffffffffffffffffffffff166004600083815260200190815260200160002060009054906101000a900473ffffffffffffffffffffffffffffffffffffffff1673ffffffffffffffffffffffffffffffffffffffff160362000b2c57600191505b808062000b3990620015c9565b91505062000ab5565b508062000b86576040517f08c379a000000000000000000000000000000000000000000000000000000000815260040162000b7d90620018f2565b60405180910390fd5b8673ffffffffffffffffffffffffffffffffffffffff163373ffffffffffffffffffffffffffffffffffffffff167f8a20aeae6a72a69ed3dfdd1885defcd588035a6114f173ff0b3fad05e93622a4888888888860405162000bed95949392919062001af9565b60405180910390a350505050505050565b62000c0862000d5f565b73ffffffffffffffffffffffffffffffffffffffff1662000c286200092e565b73ffffffffffffffffffffffffffffffffffffffff161462000c81576040517f08c379a000000000000000000000000000000000000000000000000000000000815260040162000c789062001ba6565b60405180910390fd5b565b6000818362000c93919062001bc8565b905092915050565b60008060009054906101000a900473ffffffffffffffffffffffffffffffffffffffff169050816000806101000a81548173ffffffffffffffffffffffffffffffffffffffff021916908373ffffffffffffffffffffffffffffffffffffffff1602179055508173ffffffffffffffffffffffffffffffffffffffff168173ffffffffffffffffffffffffffffffffffffffff167f8be0079c531659141344cd1fd0a4f28419497f9722a3daafe3b4186f6b6457e060405160405180910390a35050565b600033905090565b6139ec8062001c0483390190565b6000819050919050565b62000d8a8162000d75565b82525050565b600060208201905062000da7600083018462000d7f565b92915050565b6000604051905090565b600080fd5b600080fd5b600080fd5b600080fd5b6000601f19601f8301169050919050565b7f4e487b7100000000000000000000000000000000000000000000000000000000600052604160045260246000fd5b62000e168262000dcb565b810181811067ffffffffffffffff8211171562000e385762000e3762000ddc565b5b80604052505050565b600062000e4d62000dad565b905062000e5b828262000e0b565b919050565b600067ffffffffffffffff82111562000e7e5762000e7d62000ddc565b5b62000e898262000dcb565b9050602081019050919050565b82818337600083830152505050565b600062000ebc62000eb68462000e60565b62000e41565b90508281526020810184848401111562000edb5762000eda62000dc6565b5b62000ee884828562000e96565b509392505050565b600082601f83011262000f085762000f0762000dc1565b5b813562000f1a84826020860162000ea5565b91505092915050565b600073ffffffffffffffffffffffffffffffffffffffff82169050919050565b600062000f508262000f23565b9050919050565b62000f628162000f43565b811462000f6e57600080fd5b50565b60008135905062000f828162000f57565b92915050565b600080fd5b600080fd5b60008083601f84011262000fab5762000faa62000dc1565b5b8235905067ffffffffffffffff81111562000fcb5762000fca62000f88565b5b60208301915083602082028301111562000fea5762000fe962000f8d565b5b9250929050565b600080600080606085870312156200100e576200100d62000db7565b5b600085013567ffffffffffffffff8111156200102f576200102e62000dbc565b5b6200103d8782880162000ef0565b9450506020620010508782880162000f71565b935050604085013567ffffffffffffffff81111562001074576200107362000dbc565b5b620010828782880162000f92565b925092505092959194509250565b6200109b8162000d75565b8114620010a757600080fd5b50565b600081359050620010bb8162001090565b92915050565b60008115159050919050565b620010d881620010c1565b8114620010e457600080fd5b50565b600081359050620010f881620010cd565b92915050565b600080600080600060a086880312156200111d576200111c62000db7565b5b60006200112d8882890162000f71565b95505060206200114088828901620010aa565b94505060406200115388828901620010aa565b93505060606200116688828901620010aa565b92505060806200117988828901620010e7565b9150509295509295909350565b600080600080600080600080610100898b031215620011aa57620011a962000db7565b5b6000620011ba8b828c0162000f71565b9850506020620011cd8b828c01620010aa565b9750506040620011e08b828c01620010aa565b9650506060620011f38b828c01620010aa565b9550506080620012068b828c01620010aa565b94505060a0620012198b828c01620010aa565b93505060c06200122c8b828c01620010aa565b92505060e06200123f8b828c01620010aa565b9150509295985092959890939650565b6200125a8162000f43565b82525050565b60006020820190506200127760008301846200124f565b92915050565b60006020828403121562001296576200129562000db7565b5b6000620012a684828501620010aa565b91505092915050565b600060208284031215620012c857620012c762000db7565b5b6000620012d88482850162000f71565b91505092915050565b60008060008060008060c0878903121562001301576200130062000db7565b5b60006200131189828a0162000f71565b96505060206200132489828a01620010aa565b95505060406200133789828a01620010aa565b94505060606200134a89828a01620010aa565b93505060806200135d89828a01620010aa565b92505060a06200137089828a01620010aa565b9150509295509295509295565b7f4e487b7100000000000000000000000000000000000000000000000000000000600052603260045260246000fd5b600082825260208201905092915050565b7f426f6f737465722076616c75652073686f756c64206e6f74206265207a65726f600082015250565b6000620013f5602083620013ac565b91506200140282620013bd565b602082019050919050565b600060208201905081810360008301526200142881620013e6565b9050919050565b7f426f6f737465722076616c75652073686f756c64206e6f74206f76657220353060008201527f2500000000000000000000000000000000000000000000000000000000000000602082015250565b60006200148d602183620013ac565b91506200149a826200142f565b604082019050919050565b60006020820190508181036000830152620014c0816200147e565b9050919050565b7f4e487b7100000000000000000000000000000000000000000000000000000000600052601160045260246000fd5b6000620015038262000d75565b9150620015108362000d75565b92508282039050818111156200152b576200152a620014c7565b5b92915050565b7f426f6f737465722076616c75652073686f756c64206e6f7420626520696e637260008201527f6561736564000000000000000000000000000000000000000000000000000000602082015250565b60006200158f602583620013ac565b91506200159c8262001531565b604082019050919050565b60006020820190508181036000830152620015c28162001580565b9050919050565b6000620015d68262000d75565b91507fffffffffffffffffffffffffffffffffffffffffffffffffffffffffffffffff82036200160b576200160a620014c7565b5b600182019050919050565b600081519050919050565b600081905092915050565b60005b838110156200164c5780820151818401526020810190506200162f565b60008484015250505050565b6000620016658262001616565b62001671818562001621565b9350620016838185602086016200162c565b80840191505092915050565b60006200169d828562001658565b9150620016ab828462001658565b91508190509392505050565b60008160601b9050919050565b6000620016d182620016b7565b9050919050565b6000620016e582620016c4565b9050919050565b62001701620016fb8262000f43565b620016d8565b82525050565b6000620017158286620016ec565b601482019150620017278285620016ec565b601482019150620017398284620016ec565b601482019150819050949350505050565b600082825260208201905092915050565b600080fd5b82818337505050565b60006200177783856200174a565b93507f07ffffffffffffffffffffffffffffffffffffffffffffffffffffffffffffff831115620017ad57620017ac6200175b565b5b602083029250620017c083858462001760565b82840190509392505050565b600060a082019050620017e360008301896200124f565b620017f260208301886200124f565b6200180160408301876200124f565b6200181060608301866200124f565b81810360808301526200182581848662001769565b9050979650505050505050565b600081519050919050565b60006200184a8262001832565b620018568185620013ac565b9350620018688185602086016200162c565b620018738162000dcb565b840191505092915050565b600060208201905081810360008301526200189a81846200183d565b905092915050565b7f526f6c653a206e6f742073756220636865660000000000000000000000000000600082015250565b6000620018da601283620013ac565b9150620018e782620018a2565b602082019050919050565b600060208201905081810360008301526200190d81620018cb565b9050919050565b6200191f81620010c1565b82525050565b60006080820190506200193c600083018762000d7f565b6200194b602083018662000d7f565b6200195a604083018562000d7f565b62001969606083018462001914565b95945050505050565b600060e08201905062001989600083018a62000d7f565b62001998602083018962000d7f565b620019a7604083018862000d7f565b620019b6606083018762000d7f565b620019c5608083018662000d7f565b620019d460a083018562000d7f565b620019e360c083018462000d7f565b98975050505050505050565b7f436865663a206e6f742065786973740000000000000000000000000000000000600082015250565b600062001a27600f83620013ac565b915062001a3482620019ef565b602082019050919050565b6000602082019050818103600083015262001a5a8162001a18565b9050919050565b7f4f776e61626c653a206e6577206f776e657220697320746865207a65726f206160008201527f6464726573730000000000000000000000000000000000000000000000000000602082015250565b600062001abf602683620013ac565b915062001acc8262001a61565b604082019050919050565b6000602082019050818103600083015262001af28162001ab0565b9050919050565b600060a08201905062001b10600083018862000d7f565b62001b1f602083018762000d7f565b62001b2e604083018662000d7f565b62001b3d606083018562000d7f565b62001b4c608083018462000d7f565b9695505050505050565b7f4f776e61626c653a2063616c6c6572206973206e6f7420746865206f776e6572600082015250565b600062001b8e602083620013ac565b915062001b9b8262001b56565b602082019050919050565b6000602082019050818103600083015262001bc18162001b7f565b9050919050565b600062001bd58262000d75565b915062001be28362000d75565b925082820190508082111562001bfd5762001bfc620014c7565b5b9291505056fe60a0604052612710600a553480156200001757600080fd5b50620000386200002c6200009460201b60201c565b6200009c60201b60201c565b600180819055506000600260006101000a81548160ff0219169083151502179055503373ffffffffffffffffffffffffffffffffffffffff1660808173ffffffffffffffffffffffffffffffffffffffff168152505062000160565b600033905090565b60008060009054906101000a900473ffffffffffffffffffffffffffffffffffffffff169050816000806101000a81548173ffffffffffffffffffffffffffffffffffffffff021916908373ffffffffffffffffffffffffffffffffffffffff1602179055508173ffffffffffffffffffffffffffffffffffffffff168173ffffffffffffffffffffffffffffffffffffffff167f8be0079c531659141344cd1fd0a4f28419497f9722a3daafe3b4186f6b6457e060405160405180910390a35050565b6080516138546200019860003960008181610892015281816111930152818161131a015281816114790152611c5001526138546000f3fe608060405234801561001057600080fd5b50600436106101585760003560e01c80638da5cb5b116100c3578063a81b2f8d1161007c578063a81b2f8d146103a5578063c8ea4dd6146103d5578063cc7a262e146103f3578063e4a8257214610411578063ebc6c4a714610441578063f2fde38b1461047157610158565b80638da5cb5b146102cd578063918f8674146102eb578063963bf6e8146103095780639c64b9271461033b578063a694fc3a14610359578063a6968a2b1461037557610158565b80635c975abb116101155780635c975abb1461020b5780635ee2b4a71461022957806364a2865114610245578063715018a6146102755780637c5096bd1461027f5780637f5941b41461029d57610158565b806302ac83d91461015d5780631ef623a51461018d5780632da3f9ce146101a95780632def6620146101c5578063392e53cd146101cf578063581e0d5f146101ed575b600080fd5b610177600480360381019061017291906124ab565b61048d565b60405161018491906124f1565b60405180910390f35b6101a760048036038101906101a29190612538565b6104db565b005b6101c360048036038101906101be91906125dd565b610840565b005b6101cd610a8f565b005b6101d7611238565b6040516101e49190612692565b60405180910390f35b6101f561124b565b60405161020291906124f1565b60405180910390f35b610213611251565b6040516102209190612692565b60405180910390f35b610243600480360381019061023e91906126d9565b611268565b005b61025f600480360381019061025a91906124ab565b6113b1565b60405161026c91906124f1565b60405180910390f35b61027d611463565b005b610287611477565b604051610294919061274f565b60405180910390f35b6102b760048036038101906102b2919061276a565b61149b565b6040516102c49190612843565b60405180910390f35b6102d5611553565b6040516102e2919061274f565b60405180910390f35b6102f361157c565b60405161030091906124f1565b60405180910390f35b610323600480360381019061031e919061285e565b611582565b6040516103329392919061288b565b60405180910390f35b6103436115b9565b6040516103509190612921565b60405180910390f35b610373600480360381019061036e919061285e565b6115df565b005b61038f600480360381019061038a91906124ab565b611d0c565b60405161039c91906124f1565b60405180910390f35b6103bf60048036038101906103ba919061285e565b611f90565b6040516103cc919061297e565b60405180910390f35b6103dd611fec565b6040516103ea919061274f565b60405180910390f35b6103fb612012565b60405161040891906129ba565b60405180910390f35b61042b600480360381019061042691906124ab565b612038565b6040516104389190612843565b60405180910390f35b61045b6004803603810190610456919061285e565b612134565b60405161046891906124f1565b60405180910390f35b61048b600480360381019061048691906124ab565b612179565b005b600080600660008473ffffffffffffffffffffffffffffffffffffffff1673ffffffffffffffffffffffffffffffffffffffff16815260200190815260200160002054905080915050919050565b6104e36121fc565b60016009546104f29190612a04565b821115610534576040517f08c379a000000000000000000000000000000000000000000000000000000000815260040161052b90612a95565b60405180910390fd5b60008211610577576040517f08c379a000000000000000000000000000000000000000000000000000000000815260040161056e90612b01565b60405180910390fd5b600081116105ba576040517f08c379a00000000000000000000000000000000000000000000000000000000081526004016105b190612b6d565b60405180910390fd5b61138881106105fe576040517f08c379a00000000000000000000000000000000000000000000000000000000081526004016105f590612bff565b60405180910390fd5b80600860008481526020019081526020016000205403610653576040517f08c379a000000000000000000000000000000000000000000000000000000000815260040161064a90612c6b565b60405180910390fd5b806008600084815260200190815260200160002081905550600160095461067a9190612a04565b820361069d57610696600160095461227a90919063ffffffff16565b6009819055505b6001821180156106af57506009548211155b156107ae57600860006001846106c59190612c8b565b81526020019081526020016000205460086000848152602001908152602001600020541015610729576040517f08c379a000000000000000000000000000000000000000000000000000000000815260040161072090612d31565b60405180910390fd5b6009548210156107a9576008600083815260200190815260200160002054600860006001856107589190612a04565b81526020019081526020016000205410156107a8576040517f08c379a000000000000000000000000000000000000000000000000000000000815260040161079f90612d31565b60405180910390fd5b5b61083c565b6001821480156107c057506001600954115b1561083b576008600083815260200190815260200160002054600860006001856107ea9190612a04565b815260200190815260200160002054101561083a576040517f08c379a000000000000000000000000000000000000000000000000000000000815260040161083190612d31565b60405180910390fd5b5b5b5050565b600460149054906101000a900460ff1615610890576040517f08c379a000000000000000000000000000000000000000000000000000000000815260040161088790612d9d565b60405180910390fd5b7f000000000000000000000000000000000000000000000000000000000000000073ffffffffffffffffffffffffffffffffffffffff163373ffffffffffffffffffffffffffffffffffffffff161461091e576040517f08c379a000000000000000000000000000000000000000000000000000000000815260040161091590612e09565b60405180910390fd5b6001600460146101000a81548160ff02191690831515021790555085600360006101000a81548173ffffffffffffffffffffffffffffffffffffffff021916908373ffffffffffffffffffffffffffffffffffffffff16021790555084600460006101000a81548173ffffffffffffffffffffffffffffffffffffffff021916908373ffffffffffffffffffffffffffffffffffffffff16021790555082600260016101000a81548173ffffffffffffffffffffffffffffffffffffffff021916908373ffffffffffffffffffffffffffffffffffffffff1602179055506000600860008081526020019081526020016000208190555060005b82829050811015610a7357828282818110610a3657610a35612e29565b5b9050602002013560086000600184610a4e9190612a04565b8152602001908152602001600020819055508080610a6b90612e58565b915050610a18565b5081819050600981905550610a8784612179565b505050505050565b600260015403610ad4576040517f08c379a0000000000000000000000000000000000000000000000000000000008152600401610acb90612eec565b60405180910390fd5b6002600181905550600073ffffffffffffffffffffffffffffffffffffffff163373ffffffffffffffffffffffffffffffffffffffff1603610b4b576040517f08c379a0000000000000000000000000000000000000000000000000000000008152600401610b4290612f58565b60405180910390fd5b6000600660003373ffffffffffffffffffffffffffffffffffffffff1673ffffffffffffffffffffffffffffffffffffffff1681526020019081526020016000205490506000600560003373ffffffffffffffffffffffffffffffffffffffff1673ffffffffffffffffffffffffffffffffffffffff168152602001908152602001600020600083815260200190815260200160002090506000816000015411610c2a576040517f08c379a0000000000000000000000000000000000000000000000000000000008152600401610c2190612fc4565b60405180910390fd5b42816004015410610c70576040517f08c379a0000000000000000000000000000000000000000000000000000000008152600401610c6790613030565b60405180910390fd5b6000600760008360010154815260200190815260200160002060405180606001604052908160008201548152602001600182015481526020016002820160009054906101000a900460ff16151515158152505090506000816000015190506000600260019054906101000a900473ffffffffffffffffffffffffffffffffffffffff1673ffffffffffffffffffffffffffffffffffffffff166370a08231336040518263ffffffff1660e01b8152600401610d2b919061274f565b602060405180830381865afa158015610d48573d6000803e3d6000fd5b505050506040513d601f19601f82011682018060405250810190610d6c9190613065565b90506000610d7982612134565b90506000610da4600a54610d96848761229090919063ffffffff16565b6122a690919063ffffffff16565b90506000610dbb82866122bc90919063ffffffff16565b905060008760000154905080600360009054906101000a900473ffffffffffffffffffffffffffffffffffffffff1673ffffffffffffffffffffffffffffffffffffffff166370a08231306040518263ffffffff1660e01b8152600401610e22919061274f565b602060405180830381865afa158015610e3f573d6000803e3d6000fd5b505050506040513d601f19601f82011682018060405250810190610e639190613065565b1015610ea4576040517f08c379a0000000000000000000000000000000000000000000000000000000008152600401610e9b906130de565b60405180910390fd5b600015158860050160009054906101000a900460ff16151514610efc576040517f08c379a0000000000000000000000000000000000000000000000000000000008152600401610ef390613170565b60405180910390fd5b60018860050160006101000a81548160ff0219169083151502179055508082111561109f576000610f3682846122bc90919063ffffffff16565b90506000610f4d82846122bc90919063ffffffff16565b9050600360009054906101000a900473ffffffffffffffffffffffffffffffffffffffff1673ffffffffffffffffffffffffffffffffffffffff1663a9059cbb610f95611553565b846040518363ffffffff1660e01b8152600401610fb3929190613190565b6020604051808303816000875af1158015610fd2573d6000803e3d6000fd5b505050506040513d601f19601f82011682018060405250810190610ff691906131ce565b50600360009054906101000a900473ffffffffffffffffffffffffffffffffffffffff1673ffffffffffffffffffffffffffffffffffffffff1663a9059cbb33836040518363ffffffff1660e01b8152600401611054929190613190565b6020604051808303816000875af1158015611073573d6000803e3d6000fd5b505050506040513d601f19601f8201168201806040525081019061109791906131ce565b505050611141565b600360009054906101000a900473ffffffffffffffffffffffffffffffffffffffff1673ffffffffffffffffffffffffffffffffffffffff1663a9059cbb33836040518363ffffffff1660e01b81526004016110fc929190613190565b6020604051808303816000875af115801561111b573d6000803e3d6000fd5b505050506040513d601f19601f8201168201806040525081019061113f91906131ce565b505b60018961114e9190612a04565b600660003373ffffffffffffffffffffffffffffffffffffffff1673ffffffffffffffffffffffffffffffffffffffff168152602001908152602001600020819055507f000000000000000000000000000000000000000000000000000000000000000073ffffffffffffffffffffffffffffffffffffffff1663fab6fdbe338b84428a8a6040518763ffffffff1660e01b81526004016111f4969594939291906131fb565b600060405180830381600087803b15801561120e57600080fd5b505af1158015611222573d6000803e3d6000fd5b5050505050505050505050505060018081905550565b600460149054906101000a900460ff1681565b60095481565b6000600260009054906101000a900460ff16905090565b6112706121fc565b60001515811515036112b05760006007600086815260200190815260200160002060020160006101000a81548160ff021916908315150217905550611318565b604051806060016040528084815260200183815260200182151581525060076000868152602001908152602001600020600082015181600001556020820151816001015560408201518160020160006101000a81548160ff0219169083151502179055509050505b7f000000000000000000000000000000000000000000000000000000000000000073ffffffffffffffffffffffffffffffffffffffff16635b8ac7d133868686866040518663ffffffff1660e01b815260040161137995949392919061325c565b600060405180830381600087803b15801561139357600080fd5b505af11580156113a7573d6000803e3d6000fd5b5050505050505050565b600080600260019054906101000a900473ffffffffffffffffffffffffffffffffffffffff1673ffffffffffffffffffffffffffffffffffffffff166370a08231846040518263ffffffff1660e01b815260040161140f919061274f565b602060405180830381865afa15801561142c573d6000803e3d6000fd5b505050506040513d601f19601f820116820180604052508101906114509190613065565b905061145b81612134565b915050919050565b61146b6121fc565b61147560006122d2565b565b7f000000000000000000000000000000000000000000000000000000000000000081565b6114a36123e8565b600560008473ffffffffffffffffffffffffffffffffffffffff1673ffffffffffffffffffffffffffffffffffffffff16815260200190815260200160002060008381526020019081526020016000206040518060c001604052908160008201548152602001600182015481526020016002820154815260200160038201548152602001600482015481526020016005820160009054906101000a900460ff161515151581525050905092915050565b60008060009054906101000a900473ffffffffffffffffffffffffffffffffffffffff16905090565b600a5481565b60076020528060005260406000206000915090508060000154908060010154908060020160009054906101000a900460ff16905083565b600260019054906101000a900473ffffffffffffffffffffffffffffffffffffffff1681565b600260015403611624576040517f08c379a000000000000000000000000000000000000000000000000000000000815260040161161b90612eec565b60405180910390fd5b6002600181905550611634612396565b600073ffffffffffffffffffffffffffffffffffffffff163373ffffffffffffffffffffffffffffffffffffffff16036116a3576040517f08c379a000000000000000000000000000000000000000000000000000000000815260040161169a90612f58565b60405180910390fd5b60006007600083815260200190815260200160002060405180606001604052908160008201548152602001600182015481526020016002820160009054906101000a900460ff161515151581525050905060011515816040015115151461173f576040517f08c379a0000000000000000000000000000000000000000000000000000000008152600401611736906132fb565b60405180910390fd5b6000816000015190506000811161178b576040517f08c379a000000000000000000000000000000000000000000000000000000000815260040161178290613367565b60405180910390fd5b6000600660003373ffffffffffffffffffffffffffffffffffffffff1673ffffffffffffffffffffffffffffffffffffffff1681526020019081526020016000205490506000600560003373ffffffffffffffffffffffffffffffffffffffff1673ffffffffffffffffffffffffffffffffffffffff16815260200190815260200160002060008381526020019081526020016000209050600015158160050160009054906101000a900460ff1615151461187b576040517f08c379a000000000000000000000000000000000000000000000000000000000815260040161187290613170565b60405180910390fd5b848160010154106118c1576040517f08c379a00000000000000000000000000000000000000000000000000000000081526004016118b8906133d3565b60405180910390fd5b60008460200151905081600201548111611910576040517f08c379a00000000000000000000000000000000000000000000000000000000081526004016119079061343f565b60405180910390fd5b428260040154101580611927575060008260000154145b611966576040517f08c379a000000000000000000000000000000000000000000000000000000000815260040161195d906134d1565b60405180910390fd5b6000600260019054906101000a900473ffffffffffffffffffffffffffffffffffffffff1673ffffffffffffffffffffffffffffffffffffffff166370a08231336040518263ffffffff1660e01b81526004016119c3919061274f565b602060405180830381865afa1580156119e0573d6000803e3d6000fd5b505050506040513d601f19601f82011682018060405250810190611a049190613065565b90506000611a1182612134565b90506000611a3c600a54611a2e848a61229090919063ffffffff16565b6122a690919063ffffffff16565b905060008188611a4c9190612c8b565b905060008660000154905080821115611c02576000611a7482846122bc90919063ffffffff16565b905080600360009054906101000a900473ffffffffffffffffffffffffffffffffffffffff1673ffffffffffffffffffffffffffffffffffffffff166370a08231336040518263ffffffff1660e01b8152600401611ad2919061274f565b602060405180830381865afa158015611aef573d6000803e3d6000fd5b505050506040513d601f19601f82011682018060405250810190611b139190613065565b1015611b54576040517f08c379a0000000000000000000000000000000000000000000000000000000008152600401611b4b9061353d565b60405180910390fd5b600360009054906101000a900473ffffffffffffffffffffffffffffffffffffffff1673ffffffffffffffffffffffffffffffffffffffff166323b872dd3330846040518463ffffffff1660e01b8152600401611bb39392919061355d565b6020604051808303816000875af1158015611bd2573d6000803e3d6000fd5b505050506040513d601f19601f82011682018060405250810190611bf691906131ce565b50828860000181905550505b6000876001015403611c18574287600301819055505b6000611c318c896003015461227a90919063ffffffff16565b90508688600201819055508b88600101819055508088600401819055507f000000000000000000000000000000000000000000000000000000000000000073ffffffffffffffffffffffffffffffffffffffff166361b7809f338b8b600001548c600301548d600101548e600401548d8d6040518963ffffffff1660e01b8152600401611cc5989796959493929190613594565b600060405180830381600087803b158015611cdf57600080fd5b505af1158015611cf3573d6000803e3d6000fd5b5050505050505050505050505050506001808190555050565b600080600660008473ffffffffffffffffffffffffffffffffffffffff1673ffffffffffffffffffffffffffffffffffffffff1681526020019081526020016000205490506000600560008573ffffffffffffffffffffffffffffffffffffffff1673ffffffffffffffffffffffffffffffffffffffff16815260200190815260200160002060008381526020019081526020016000206040518060c001604052908160008201548152602001600182015481526020016002820154815260200160038201548152602001600482015481526020016005820160009054906101000a900460ff16151515158152505090506000600760008360200151815260200190815260200160002060405180606001604052908160008201548152602001600182015481526020016002820160009054906101000a900460ff16151515158152505090506000816000015190506000600260019054906101000a900473ffffffffffffffffffffffffffffffffffffffff1673ffffffffffffffffffffffffffffffffffffffff166370a08231886040518263ffffffff1660e01b8152600401611eb8919061274f565b602060405180830381865afa158015611ed5573d6000803e3d6000fd5b505050506040513d601f19601f82011682018060405250810190611ef99190613065565b90506000611f0682612134565b90506000611f31600a54611f23848761229090919063ffffffff16565b6122a690919063ffffffff16565b905060008185611f419190612c8b565b905060008760000151905080821115611f7d576000611f6982846122bc90919063ffffffff16565b9050809a5050505050505050505050611f8b565b600099505050505050505050505b919050565b611f98612420565b6007600083815260200190815260200160002060405180606001604052908160008201548152602001600182015481526020016002820160009054906101000a900460ff1615151515815250509050919050565b600460009054906101000a900473ffffffffffffffffffffffffffffffffffffffff1681565b600360009054906101000a900473ffffffffffffffffffffffffffffffffffffffff1681565b6120406123e8565b6000600660008473ffffffffffffffffffffffffffffffffffffffff1673ffffffffffffffffffffffffffffffffffffffff168152602001908152602001600020549050600560008473ffffffffffffffffffffffffffffffffffffffff1673ffffffffffffffffffffffffffffffffffffffff16815260200190815260200160002060008281526020019081526020016000206040518060c001604052908160008201548152602001600182015481526020016002820154815260200160038201548152602001600482015481526020016005820160009054906101000a900460ff161515151581525050915050919050565b600060095482111561215d57600860006009548152602001908152602001600020549050612174565b600860008381526020019081526020016000205490505b919050565b6121816121fc565b600073ffffffffffffffffffffffffffffffffffffffff168173ffffffffffffffffffffffffffffffffffffffff16036121f0576040517f08c379a00000000000000000000000000000000000000000000000000000000081526004016121e790613684565b60405180910390fd5b6121f9816122d2565b50565b6122046123e0565b73ffffffffffffffffffffffffffffffffffffffff16612222611553565b73ffffffffffffffffffffffffffffffffffffffff1614612278576040517f08c379a000000000000000000000000000000000000000000000000000000000815260040161226f906136f0565b60405180910390fd5b565b600081836122889190612a04565b905092915050565b6000818361229e9190613710565b905092915050565b600081836122b49190613781565b905092915050565b600081836122ca9190612c8b565b905092915050565b60008060009054906101000a900473ffffffffffffffffffffffffffffffffffffffff169050816000806101000a81548173ffffffffffffffffffffffffffffffffffffffff021916908373ffffffffffffffffffffffffffffffffffffffff1602179055508173ffffffffffffffffffffffffffffffffffffffff168173ffffffffffffffffffffffffffffffffffffffff167f8be0079c531659141344cd1fd0a4f28419497f9722a3daafe3b4186f6b6457e060405160405180910390a35050565b61239e611251565b156123de576040517f08c379a00000000000000000000000000000000000000000000000000000000081526004016123d5906137fe565b60405180910390fd5b565b600033905090565b6040518060c0016040528060008152602001600081526020016000815260200160008152602001600081526020016000151581525090565b604051806060016040528060008152602001600081526020016000151581525090565b600080fd5b600080fd5b600073ffffffffffffffffffffffffffffffffffffffff82169050919050565b60006124788261244d565b9050919050565b6124888161246d565b811461249357600080fd5b50565b6000813590506124a58161247f565b92915050565b6000602082840312156124c1576124c0612443565b5b60006124cf84828501612496565b91505092915050565b6000819050919050565b6124eb816124d8565b82525050565b600060208201905061250660008301846124e2565b92915050565b612515816124d8565b811461252057600080fd5b50565b6000813590506125328161250c565b92915050565b6000806040838503121561254f5761254e612443565b5b600061255d85828601612523565b925050602061256e85828601612523565b9150509250929050565b600080fd5b600080fd5b600080fd5b60008083601f84011261259d5761259c612578565b5b8235905067ffffffffffffffff8111156125ba576125b961257d565b5b6020830191508360208202830111156125d6576125d5612582565b5b9250929050565b60008060008060008060a087890312156125fa576125f9612443565b5b600061260889828a01612496565b965050602061261989828a01612496565b955050604061262a89828a01612496565b945050606061263b89828a01612496565b935050608087013567ffffffffffffffff81111561265c5761265b612448565b5b61266889828a01612587565b92509250509295509295509295565b60008115159050919050565b61268c81612677565b82525050565b60006020820190506126a76000830184612683565b92915050565b6126b681612677565b81146126c157600080fd5b50565b6000813590506126d3816126ad565b92915050565b600080600080608085870312156126f3576126f2612443565b5b600061270187828801612523565b945050602061271287828801612523565b935050604061272387828801612523565b9250506060612734878288016126c4565b91505092959194509250565b6127498161246d565b82525050565b60006020820190506127646000830184612740565b92915050565b6000806040838503121561278157612780612443565b5b600061278f85828601612496565b92505060206127a085828601612523565b9150509250929050565b6127b3816124d8565b82525050565b6127c281612677565b82525050565b60c0820160008201516127de60008501826127aa565b5060208201516127f160208501826127aa565b50604082015161280460408501826127aa565b50606082015161281760608501826127aa565b50608082015161282a60808501826127aa565b5060a082015161283d60a08501826127b9565b50505050565b600060c08201905061285860008301846127c8565b92915050565b60006020828403121561287457612873612443565b5b600061288284828501612523565b91505092915050565b60006060820190506128a060008301866124e2565b6128ad60208301856124e2565b6128ba6040830184612683565b949350505050565b6000819050919050565b60006128e76128e26128dd8461244d565b6128c2565b61244d565b9050919050565b60006128f9826128cc565b9050919050565b600061290b826128ee565b9050919050565b61291b81612900565b82525050565b60006020820190506129366000830184612912565b92915050565b60608201600082015161295260008501826127aa565b50602082015161296560208501826127aa565b50604082015161297860408501826127b9565b50505050565b6000606082019050612993600083018461293c565b92915050565b60006129a4826128ee565b9050919050565b6129b481612999565b82525050565b60006020820190506129cf60008301846129ab565b92915050565b7f4e487b7100000000000000000000000000000000000000000000000000000000600052601160045260246000fd5b6000612a0f826124d8565b9150612a1a836124d8565b9250828201905080821115612a3257612a316129d5565b5b92915050565b600082825260208201905092915050565b7f4f7574206f6620696e6465780000000000000000000000000000000000000000600082015250565b6000612a7f600c83612a38565b9150612a8a82612a49565b602082019050919050565b60006020820190508181036000830152612aae81612a72565b9050919050565b7f496e6465782073686f756c64206e6f74206265207a65726f0000000000000000600082015250565b6000612aeb601883612a38565b9150612af682612ab5565b602082019050919050565b60006020820190508181036000830152612b1a81612ade565b9050919050565b7f426f6f737465722076616c75652073686f756c64206e6f74206265207a65726f600082015250565b6000612b57602083612a38565b9150612b6282612b21565b602082019050919050565b60006020820190508181036000830152612b8681612b4a565b9050919050565b7f426f6f737465722076616c75652073686f756c64206e6f74206265206f76657260008201527f207468616e203530250000000000000000000000000000000000000000000000602082015250565b6000612be9602983612a38565b9150612bf482612b8d565b604082019050919050565b60006020820190508181036000830152612c1881612bdc565b9050919050565b7f416d6f756e7420696e2075736500000000000000000000000000000000000000600082015250565b6000612c55600d83612a38565b9150612c6082612c1f565b602082019050919050565b60006020820190508181036000830152612c8481612c48565b9050919050565b6000612c96826124d8565b9150612ca1836124d8565b9250828203905081811115612cb957612cb86129d5565b5b92915050565b7f426f6f737465722076616c75652073686f756c6420626520696e63726561736560008201527f6400000000000000000000000000000000000000000000000000000000000000602082015250565b6000612d1b602183612a38565b9150612d2682612cbf565b604082019050919050565b60006020820190508181036000830152612d4a81612d0e565b9050919050565b7f416c726561647920696e697469616c697a656400000000000000000000000000600082015250565b6000612d87601383612a38565b9150612d9282612d51565b602082019050919050565b60006020820190508181036000830152612db681612d7a565b9050919050565b7f4e6f7420666163746f7279000000000000000000000000000000000000000000600082015250565b6000612df3600b83612a38565b9150612dfe82612dbd565b602082019050919050565b60006020820190508181036000830152612e2281612de6565b9050919050565b7f4e487b7100000000000000000000000000000000000000000000000000000000600052603260045260246000fd5b6000612e63826124d8565b91507fffffffffffffffffffffffffffffffffffffffffffffffffffffffffffffffff8203612e9557612e946129d5565b5b600182019050919050565b7f5265656e7472616e637947756172643a207265656e7472616e742063616c6c00600082015250565b6000612ed6601f83612a38565b9150612ee182612ea0565b602082019050919050565b60006020820190508181036000830152612f0581612ec9565b9050919050565b7f496e76616c69642073656e646572000000000000000000000000000000000000600082015250565b6000612f42600e83612a38565b9150612f4d82612f0c565b602082019050919050565b60006020820190508181036000830152612f7181612f35565b9050919050565b7f596f757220706f736974696f6e206e6f74206578697374000000000000000000600082015250565b6000612fae601783612a38565b9150612fb982612f78565b602082019050919050565b60006020820190508181036000830152612fdd81612fa1565b9050919050565b7f4e6f742061626c6520746f207769746864726177000000000000000000000000600082015250565b600061301a601483612a38565b915061302582612fe4565b602082019050919050565b600060208201905081810360008301526130498161300d565b9050919050565b60008151905061305f8161250c565b92915050565b60006020828403121561307b5761307a612443565b5b600061308984828501613050565b91505092915050565b7f546f6b656e3a20496e73756666696369656e7420706f6f6c0000000000000000600082015250565b60006130c8601883612a38565b91506130d382613092565b602082019050919050565b600060208201905081810360008301526130f7816130bb565b9050919050565b7f54686973206c6f636b6564207374616b696e6720686173206265656e20616c7260008201527f6561647920756e7374616b656400000000000000000000000000000000000000602082015250565b600061315a602d83612a38565b9150613165826130fe565b604082019050919050565b600060208201905081810360008301526131898161314d565b9050919050565b60006040820190506131a56000830185612740565b6131b260208301846124e2565b9392505050565b6000815190506131c8816126ad565b92915050565b6000602082840312156131e4576131e3612443565b5b60006131f2848285016131b9565b91505092915050565b600060c0820190506132106000830189612740565b61321d60208301886124e2565b61322a60408301876124e2565b61323760608301866124e2565b61324460808301856124e2565b61325160a08301846124e2565b979650505050505050565b600060a0820190506132716000830188612740565b61327e60208301876124e2565b61328b60408301866124e2565b61329860608301856124e2565b6132a56080830184612683565b9695505050505050565b7f54686973206f7074696f6e206973206e6f7420696e206c697665000000000000600082015250565b60006132e5601a83612a38565b91506132f0826132af565b602082019050919050565b60006020820190508181036000830152613314816132d8565b9050919050565b7f54686973206f7074696f6e20646f65736e6f7420657869737400000000000000600082015250565b6000613351601983612a38565b915061335c8261331b565b602082019050919050565b6000602082019050818103600083015261338081613344565b9050919050565b7f5374616b653a20496e76616c696420706572696f640000000000000000000000600082015250565b60006133bd601583612a38565b91506133c882613387565b602082019050919050565b600060208201905081810360008301526133ec816133b0565b9050919050565b7f496e76616c69642061697264726f7020616d6f756e7400000000000000000000600082015250565b6000613429601683612a38565b9150613434826133f3565b602082019050919050565b600060208201905081810360008301526134588161341c565b9050919050565b7f457870697265642e20506c656173652077697468647261772070726576696f7560008201527f73206f6e6520616e642072656e65772069740000000000000000000000000000602082015250565b60006134bb603283612a38565b91506134c68261345f565b604082019050919050565b600060208201905081810360008301526134ea816134ae565b9050919050565b7f546f6b656e3a20496e73756666696369656e742062616c616e63650000000000600082015250565b6000613527601b83612a38565b9150613532826134f1565b602082019050919050565b600060208201905081810360008301526135568161351a565b9050919050565b60006060820190506135726000830186612740565b61357f6020830185612740565b61358c60408301846124e2565b949350505050565b6000610100820190506135aa600083018b612740565b6135b7602083018a6124e2565b6135c460408301896124e2565b6135d160608301886124e2565b6135de60808301876124e2565b6135eb60a08301866124e2565b6135f860c08301856124e2565b61360560e08301846124e2565b9998505050505050505050565b7f4f776e61626c653a206e6577206f776e657220697320746865207a65726f206160008201527f6464726573730000000000000000000000000000000000000000000000000000602082015250565b600061366e602683612a38565b915061367982613612565b604082019050919050565b6000602082019050818103600083015261369d81613661565b9050919050565b7f4f776e61626c653a2063616c6c6572206973206e6f7420746865206f776e6572600082015250565b60006136da602083612a38565b91506136e5826136a4565b602082019050919050565b60006020820190508181036000830152613709816136cd565b9050919050565b600061371b826124d8565b9150613726836124d8565b9250828202613734816124d8565b9150828204841483151761374b5761374a6129d5565b5b5092915050565b7f4e487b7100000000000000000000000000000000000000000000000000000000600052601260045260246000fd5b600061378c826124d8565b9150613797836124d8565b9250826137a7576137a6613752565b5b828204905092915050565b7f5061757361626c653a2070617573656400000000000000000000000000000000600082015250565b60006137e8601083612a38565b91506137f3826137b2565b602082019050919050565b60006020820190508181036000830152613817816137db565b905091905056fea26469706673582212202ad5d59ccd21037bc5f73dda24fa51e7d36b9e124075fb7f8f7e0d12e785bc7f64736f6c63430008110033a2646970667358221220621ea3ed3e42c54d177518a2c133d0ef466acad8e124fa28a150ec92ad18a01c64736f6c63430008110033",
  "linkReferences": {},
  "deployedLinkReferences": {}
}