{
  "_format": "hh-sol-artifact-1",
  "contractName": "NFTMasterChef",
  "sourceName": "contracts/NFTMasterChef.sol",
  "abi": [
    {
      "inputs": [],
      "stateMutability": "nonpayable",
      "type": "constructor"
    },
    {
      "anonymous": false,
      "inputs": [
        {
          "indexed": true,
          "internalType": "address",
          "name": "nftChef",
          "type": "address"
        },
        {
          "indexed": true,
          "internalType": "address",
          "name": "rewardNFT",
          "type": "address"
        },
        {
          "indexed": true,
          "internalType": "address",
          "name": "stakedToken",
          "type": "address"
        },
        {
          "indexed": false,
          "internalType": "address",
          "name": "admin",
          "type": "address"
        }
      ],
      "name": "NewNFTChefContract",
      "type": "event"
    },
    {
      "anonymous": false,
      "inputs": [
        {
          "indexed": true,
          "internalType": "address",
          "name": "previousOwner",
          "type": "address"
        },
        {
          "indexed": true,
          "internalType": "address",
          "name": "newOwner",
          "type": "address"
        }
      ],
      "name": "OwnershipTransferred",
      "type": "event"
    },
    {
      "inputs": [
        {
          "internalType": "contract IERC20",
          "name": "_stakedToken",
          "type": "address"
        },
        {
          "internalType": "address",
          "name": "_rewardNFT",
          "type": "address"
        },
        {
          "internalType": "address",
          "name": "_admin",
          "type": "address"
        }
      ],
      "name": "deploy",
      "outputs": [],
      "stateMutability": "nonpayable",
      "type": "function"
    },
    {
      "inputs": [],
      "name": "owner",
      "outputs": [
        {
          "internalType": "address",
          "name": "",
          "type": "address"
        }
      ],
      "stateMutability": "view",
      "type": "function"
    },
    {
      "inputs": [],
      "name": "renounceOwnership",
      "outputs": [],
      "stateMutability": "nonpayable",
      "type": "function"
    },
    {
      "inputs": [
        {
          "internalType": "address",
          "name": "newOwner",
          "type": "address"
        }
      ],
      "name": "transferOwnership",
      "outputs": [],
      "stateMutability": "nonpayable",
      "type": "function"
    }
  ],
  "bytecode": "0x608060405234801561001057600080fd5b5061002d61002261003260201b60201c565b61003a60201b60201c565b6100fe565b600033905090565b60008060009054906101000a900473ffffffffffffffffffffffffffffffffffffffff169050816000806101000a81548173ffffffffffffffffffffffffffffffffffffffff021916908373ffffffffffffffffffffffffffffffffffffffff1602179055508173ffffffffffffffffffffffffffffffffffffffff168173ffffffffffffffffffffffffffffffffffffffff167f8be0079c531659141344cd1fd0a4f28419497f9722a3daafe3b4186f6b6457e060405160405180910390a35050565b612e568061010d6000396000f3fe608060405234801561001057600080fd5b506004361061004c5760003560e01c8063715018a6146100515780638da5cb5b1461005b578063d9181cd314610079578063f2fde38b14610095575b600080fd5b6100596100b1565b005b6100636100c5565b6040516100709190610582565b60405180910390f35b610093600480360381019061008e919061060c565b6100ee565b005b6100af60048036038101906100aa919061065f565b610367565b005b6100b96103ea565b6100c36000610468565b565b60008060009054906101000a900473ffffffffffffffffffffffffffffffffffffffff16905090565b6100f66103ea565b60008373ffffffffffffffffffffffffffffffffffffffff166318160ddd6040518163ffffffff1660e01b8152600401602060405180830381865afa158015610143573d6000803e3d6000fd5b505050506040513d601f19601f8201168201806040525081019061016791906106c2565b101561017257600080fd5b600073ffffffffffffffffffffffffffffffffffffffff168273ffffffffffffffffffffffffffffffffffffffff16036101ab57600080fd5b600073ffffffffffffffffffffffffffffffffffffffff168173ffffffffffffffffffffffffffffffffffffffff16036101e457600080fd5b6000604051806020016101f690610534565b6020820181038252601f19601f82011660405250905080604051602001604051602081830303815290604052604051602001610233929190610760565b604051602081830303815290604052905060006040516020016040516020818303038152906040528051906020012090506000818351602085016000f590508073ffffffffffffffffffffffffffffffffffffffff1663f8c8765e878787336040518563ffffffff1660e01b81526004016102b19493929190610784565b600060405180830381600087803b1580156102cb57600080fd5b505af11580156102df573d6000803e3d6000fd5b505050508573ffffffffffffffffffffffffffffffffffffffff168573ffffffffffffffffffffffffffffffffffffffff168273ffffffffffffffffffffffffffffffffffffffff167f46cfc21bcaa6ed60b30fcadc632c6c80508944da273e65a2cf1988ff0c200b64876040516103579190610582565b60405180910390a4505050505050565b61036f6103ea565b600073ffffffffffffffffffffffffffffffffffffffff168173ffffffffffffffffffffffffffffffffffffffff16036103de576040517f08c379a00000000000000000000000000000000000000000000000000000000081526004016103d59061084c565b60405180910390fd5b6103e781610468565b50565b6103f261052c565b73ffffffffffffffffffffffffffffffffffffffff166104106100c5565b73ffffffffffffffffffffffffffffffffffffffff1614610466576040517f08c379a000000000000000000000000000000000000000000000000000000000815260040161045d906108b8565b60405180910390fd5b565b60008060009054906101000a900473ffffffffffffffffffffffffffffffffffffffff169050816000806101000a81548173ffffffffffffffffffffffffffffffffffffffff021916908373ffffffffffffffffffffffffffffffffffffffff1602179055508173ffffffffffffffffffffffffffffffffffffffff168173ffffffffffffffffffffffffffffffffffffffff167f8be0079c531659141344cd1fd0a4f28419497f9722a3daafe3b4186f6b6457e060405160405180910390a35050565b600033905090565b612548806108d983390190565b600073ffffffffffffffffffffffffffffffffffffffff82169050919050565b600061056c82610541565b9050919050565b61057c81610561565b82525050565b60006020820190506105976000830184610573565b92915050565b600080fd5b60006105ad82610561565b9050919050565b6105bd816105a2565b81146105c857600080fd5b50565b6000813590506105da816105b4565b92915050565b6105e981610561565b81146105f457600080fd5b50565b600081359050610606816105e0565b92915050565b6000806000606084860312156106255761062461059d565b5b6000610633868287016105cb565b9350506020610644868287016105f7565b9250506040610655868287016105f7565b9150509250925092565b6000602082840312156106755761067461059d565b5b6000610683848285016105f7565b91505092915050565b6000819050919050565b61069f8161068c565b81146106aa57600080fd5b50565b6000815190506106bc81610696565b92915050565b6000602082840312156106d8576106d761059d565b5b60006106e6848285016106ad565b91505092915050565b600081519050919050565b600081905092915050565b60005b83811015610723578082015181840152602081019050610708565b60008484015250505050565b600061073a826106ef565b61074481856106fa565b9350610754818560208601610705565b80840191505092915050565b600061076c828561072f565b9150610778828461072f565b91508190509392505050565b60006080820190506107996000830187610573565b6107a66020830186610573565b6107b36040830185610573565b6107c06060830184610573565b95945050505050565b600082825260208201905092915050565b7f4f776e61626c653a206e6577206f776e657220697320746865207a65726f206160008201527f6464726573730000000000000000000000000000000000000000000000000000602082015250565b60006108366026836107c9565b9150610841826107da565b604082019050919050565b6000602082019050818103600083015261086581610829565b9050919050565b7f4f776e61626c653a2063616c6c6572206973206e6f7420746865206f776e6572600082015250565b60006108a26020836107c9565b91506108ad8261086c565b602082019050919050565b600060208201905081810360008301526108d181610895565b905091905056fe60a06040526001600360146101000a81548160ff02191690831515021790555034801561002b57600080fd5b5061004861003d61008860201b60201c565b61009060201b60201c565b600180819055503373ffffffffffffffffffffffffffffffffffffffff1660808173ffffffffffffffffffffffffffffffffffffffff1681525050610154565b600033905090565b60008060009054906101000a900473ffffffffffffffffffffffffffffffffffffffff169050816000806101000a81548173ffffffffffffffffffffffffffffffffffffffff021916908373ffffffffffffffffffffffffffffffffffffffff1602179055508173ffffffffffffffffffffffffffffffffffffffff168173ffffffffffffffffffffffffffffffffffffffff167f8be0079c531659141344cd1fd0a4f28419497f9722a3daafe3b4186f6b6457e060405160405180910390a35050565b6080516123d1620001776000396000818161059a0152610e6a01526123d16000f3fe608060405234801561001057600080fd5b50600436106101165760003560e01c80638da5cb5b116100a2578063b810976011610071578063b8109760146102ab578063cc7a262e146102c7578063f2fde38b146102e5578063f7398e1114610301578063f8c8765e1461033157610116565b80638da5cb5b14610239578063a28835b614610257578063a694fc3a14610273578063b13c17e81461028f57610116565b80636386c1c7116100e95780636386c1c714610195578063704b6c02146101c5578063715018a6146101e15780637c5096bd146101eb57806384cc03761461020957610116565b80631959a0021461011b578063392e53cd1461014f5780633ccfd60b1461016d57806353827a0b14610177575b600080fd5b61013560048036038101906101309190611579565b61034d565b6040516101469594939291906115bf565b60405180910390f35b610157610383565b604051610164919061162d565b60405180910390f35b610175610396565b005b61017f6103f7565b60405161018c9190611657565b60405180910390f35b6101af60048036038101906101aa9190611579565b61041d565b6040516101bc91906116e9565b60405180910390f35b6101df60048036038101906101da9190611579565b6104a8565b005b6101e9610584565b005b6101f3610598565b6040516102009190611657565b60405180910390f35b610223600480360381019061021e9190611730565b6105bc565b604051610230919061175d565b60405180910390f35b6102416105d4565b60405161024e9190611657565b60405180910390f35b610271600480360381019061026c9190611579565b6105fd565b005b61028d60048036038101906102889190611730565b6106e8565b005b6102a960048036038101906102a491906117a4565b610ba6565b005b6102c560048036038101906102c091906117d1565b610c20565b005b6102cf610d57565b6040516102dc9190611883565b60405180910390f35b6102ff60048036038101906102fa9190611579565b610d7d565b005b61031b60048036038101906103169190611730565b610e00565b604051610328919061175d565b60405180910390f35b61034b6004803603810190610346919061189e565b610e18565b005b60056020528060005260406000206000915090508060000154908060010154908060020154908060030154908060040154905085565b600460149054906101000a900460ff1681565b60001515600360149054906101000a900460ff161515146103ec576040517f08c379a00000000000000000000000000000000000000000000000000000000081526004016103e390611988565b60405180910390fd5b6103f533610fe3565b565b600360009054906101000a900473ffffffffffffffffffffffffffffffffffffffff1681565b6104256114e7565b600860008373ffffffffffffffffffffffffffffffffffffffff1673ffffffffffffffffffffffffffffffffffffffff1681526020019081526020016000206040518060a0016040529081600082015481526020016001820154815260200160028201548152602001600382015481526020016004820154815250509050919050565b6104b0611371565b8073ffffffffffffffffffffffffffffffffffffffff16600460009054906101000a900473ffffffffffffffffffffffffffffffffffffffff1673ffffffffffffffffffffffffffffffffffffffff1603610540576040517f08c379a0000000000000000000000000000000000000000000000000000000008152600401610537906119f4565b60405180910390fd5b80600460006101000a81548173ffffffffffffffffffffffffffffffffffffffff021916908373ffffffffffffffffffffffffffffffffffffffff16021790555050565b61058c611371565b61059660006113ef565b565b7f000000000000000000000000000000000000000000000000000000000000000081565b60066020528060005260406000206000915090505481565b60008060009054906101000a900473ffffffffffffffffffffffffffffffffffffffff16905090565b3373ffffffffffffffffffffffffffffffffffffffff16600460009054906101000a900473ffffffffffffffffffffffffffffffffffffffff1673ffffffffffffffffffffffffffffffffffffffff161461068d576040517f08c379a000000000000000000000000000000000000000000000000000000000815260040161068490611a60565b60405180910390fd5b600360149054906101000a900460ff166106dc576040517f08c379a00000000000000000000000000000000000000000000000000000000081526004016106d390611af2565b60405180910390fd5b6106e581610fe3565b50565b60026001540361072d576040517f08c379a000000000000000000000000000000000000000000000000000000000815260040161072490611b5e565b60405180910390fd5b6002600181905550600073ffffffffffffffffffffffffffffffffffffffff163373ffffffffffffffffffffffffffffffffffffffff16036107a4576040517f08c379a000000000000000000000000000000000000000000000000000000000815260040161079b90611bca565b60405180910390fd5b600060066000838152602001908152602001600020549050600081116107ff576040517f08c379a00000000000000000000000000000000000000000000000000000000081526004016107f690611c36565b60405180910390fd5b6000600860003373ffffffffffffffffffffffffffffffffffffffff1673ffffffffffffffffffffffffffffffffffffffff168152602001908152602001600020905082816001015410610888576040517f08c379a000000000000000000000000000000000000000000000000000000000815260040161087f90611ca2565b60405180910390fd5b600060076000858152602001908152602001600020549050816001015481116108e6576040517f08c379a00000000000000000000000000000000000000000000000000000000081526004016108dd90611d0e565b60405180910390fd5b4282600401541015806108fd575060008260000154145b61093c576040517f08c379a000000000000000000000000000000000000000000000000000000000815260040161093390611da0565b60405180910390fd5b600082600001549050808410610aef57600061096182866114b390919063ffffffff16565b905080600260009054906101000a900473ffffffffffffffffffffffffffffffffffffffff1673ffffffffffffffffffffffffffffffffffffffff166370a08231336040518263ffffffff1660e01b81526004016109bf9190611657565b602060405180830381865afa1580156109dc573d6000803e3d6000fd5b505050506040513d601f19601f82011682018060405250810190610a009190611dd5565b1015610a41576040517f08c379a0000000000000000000000000000000000000000000000000000000008152600401610a3890611e4e565b60405180910390fd5b600260009054906101000a900473ffffffffffffffffffffffffffffffffffffffff1673ffffffffffffffffffffffffffffffffffffffff166323b872dd3330846040518463ffffffff1660e01b8152600401610aa093929190611e6e565b6020604051808303816000875af1158015610abf573d6000803e3d6000fd5b505050506040513d601f19601f82011682018060405250810190610ae39190611eba565b50848460000181905550505b6000836001015403610b05574283600301819055505b6000610b1e8685600301546114c990919063ffffffff16565b90508284600201819055508584600101819055508084600401819055503373ffffffffffffffffffffffffffffffffffffffff167f9cfd25589d1eb8ad71e342a86a8524e83522e3936c0803048c08f6d9ad974f40856000015486600301548985604051610b8f9493929190611ee7565b60405180910390a250505050506001808190555050565b610bae611371565b801515600360149054906101000a900460ff16151503610c03576040517f08c379a0000000000000000000000000000000000000000000000000000000008152600401610bfa906119f4565b60405180910390fd5b80600360146101000a81548160ff02191690831515021790555050565b610c28611371565b81600660008581526020019081526020016000205414610c7d576040517f08c379a0000000000000000000000000000000000000000000000000000000008152600401610c7490611f78565b60405180910390fd5b80600760008581526020019081526020016000205414610cd2576040517f08c379a0000000000000000000000000000000000000000000000000000000008152600401610cc990611f78565b60405180910390fd5b8160066000858152602001908152602001600020819055508060076000858152602001908152602001600020819055503373ffffffffffffffffffffffffffffffffffffffff167f5823a95826d971070c7d6cd16c094dd04242e80c5644a3403d5b6cb9f9b993b58484604051610d4a929190611f98565b60405180910390a2505050565b600260009054906101000a900473ffffffffffffffffffffffffffffffffffffffff1681565b610d85611371565b600073ffffffffffffffffffffffffffffffffffffffff168173ffffffffffffffffffffffffffffffffffffffff1603610df4576040517f08c379a0000000000000000000000000000000000000000000000000000000008152600401610deb90612033565b60405180910390fd5b610dfd816113ef565b50565b60076020528060005260406000206000915090505481565b600460149054906101000a900460ff1615610e68576040517f08c379a0000000000000000000000000000000000000000000000000000000008152600401610e5f9061209f565b60405180910390fd5b7f000000000000000000000000000000000000000000000000000000000000000073ffffffffffffffffffffffffffffffffffffffff163373ffffffffffffffffffffffffffffffffffffffff1614610ef6576040517f08c379a0000000000000000000000000000000000000000000000000000000008152600401610eed9061210b565b60405180910390fd5b6001600460146101000a81548160ff02191690831515021790555083600260006101000a81548173ffffffffffffffffffffffffffffffffffffffff021916908373ffffffffffffffffffffffffffffffffffffffff16021790555082600360006101000a81548173ffffffffffffffffffffffffffffffffffffffff021916908373ffffffffffffffffffffffffffffffffffffffff16021790555081600460006101000a81548173ffffffffffffffffffffffffffffffffffffffff021916908373ffffffffffffffffffffffffffffffffffffffff160217905550610fdd81610d7d565b50505050565b600260015403611028576040517f08c379a000000000000000000000000000000000000000000000000000000000815260040161101f90611b5e565b60405180910390fd5b6002600181905550600073ffffffffffffffffffffffffffffffffffffffff168173ffffffffffffffffffffffffffffffffffffffff160361109f576040517f08c379a000000000000000000000000000000000000000000000000000000000815260040161109690611bca565b60405180910390fd5b6000600860008373ffffffffffffffffffffffffffffffffffffffff1673ffffffffffffffffffffffffffffffffffffffff16815260200190815260200160002090506000816000015411611129576040517f08c379a000000000000000000000000000000000000000000000000000000000815260040161112090612177565b60405180910390fd5b4281600401541061116f576040517f08c379a0000000000000000000000000000000000000000000000000000000008152600401611166906121e3565b60405180910390fd5b60008160000154905080600260009054906101000a900473ffffffffffffffffffffffffffffffffffffffff1673ffffffffffffffffffffffffffffffffffffffff166370a08231306040518263ffffffff1660e01b81526004016111d49190611657565b602060405180830381865afa1580156111f1573d6000803e3d6000fd5b505050506040513d601f19601f820116820180604052508101906112159190611dd5565b1015611256576040517f08c379a000000000000000000000000000000000000000000000000000000000815260040161124d9061224f565b60405180910390fd5b600082600001819055506000826001018190555060008260020181905550600260009054906101000a900473ffffffffffffffffffffffffffffffffffffffff1673ffffffffffffffffffffffffffffffffffffffff1663a9059cbb84836040518363ffffffff1660e01b81526004016112d192919061226f565b6020604051808303816000875af11580156112f0573d6000803e3d6000fd5b505050506040513d601f19601f820116820180604052508101906113149190611eba565b508273ffffffffffffffffffffffffffffffffffffffff167ff279e6a1f5e320cca91135676d9cb6e44ca8a08c0b88342bcdb1144f6511b568824260405161135d929190611f98565b60405180910390a250506001808190555050565b6113796114df565b73ffffffffffffffffffffffffffffffffffffffff166113976105d4565b73ffffffffffffffffffffffffffffffffffffffff16146113ed576040517f08c379a00000000000000000000000000000000000000000000000000000000081526004016113e4906122e4565b60405180910390fd5b565b60008060009054906101000a900473ffffffffffffffffffffffffffffffffffffffff169050816000806101000a81548173ffffffffffffffffffffffffffffffffffffffff021916908373ffffffffffffffffffffffffffffffffffffffff1602179055508173ffffffffffffffffffffffffffffffffffffffff168173ffffffffffffffffffffffffffffffffffffffff167f8be0079c531659141344cd1fd0a4f28419497f9722a3daafe3b4186f6b6457e060405160405180910390a35050565b600081836114c19190612333565b905092915050565b600081836114d79190612367565b905092915050565b600033905090565b6040518060a0016040528060008152602001600081526020016000815260200160008152602001600081525090565b600080fd5b600073ffffffffffffffffffffffffffffffffffffffff82169050919050565b60006115468261151b565b9050919050565b6115568161153b565b811461156157600080fd5b50565b6000813590506115738161154d565b92915050565b60006020828403121561158f5761158e611516565b5b600061159d84828501611564565b91505092915050565b6000819050919050565b6115b9816115a6565b82525050565b600060a0820190506115d460008301886115b0565b6115e160208301876115b0565b6115ee60408301866115b0565b6115fb60608301856115b0565b61160860808301846115b0565b9695505050505050565b60008115159050919050565b61162781611612565b82525050565b6000602082019050611642600083018461161e565b92915050565b6116518161153b565b82525050565b600060208201905061166c6000830184611648565b92915050565b61167b816115a6565b82525050565b60a0820160008201516116976000850182611672565b5060208201516116aa6020850182611672565b5060408201516116bd6040850182611672565b5060608201516116d06060850182611672565b5060808201516116e36080850182611672565b50505050565b600060a0820190506116fe6000830184611681565b92915050565b61170d816115a6565b811461171857600080fd5b50565b60008135905061172a81611704565b92915050565b60006020828403121561174657611745611516565b5b60006117548482850161171b565b91505092915050565b600060208201905061177260008301846115b0565b92915050565b61178181611612565b811461178c57600080fd5b50565b60008135905061179e81611778565b92915050565b6000602082840312156117ba576117b9611516565b5b60006117c88482850161178f565b91505092915050565b6000806000606084860312156117ea576117e9611516565b5b60006117f88682870161171b565b93505060206118098682870161171b565b925050604061181a8682870161171b565b9150509250925092565b6000819050919050565b600061184961184461183f8461151b565b611824565b61151b565b9050919050565b600061185b8261182e565b9050919050565b600061186d82611850565b9050919050565b61187d81611862565b82525050565b60006020820190506118986000830184611874565b92915050565b600080600080608085870312156118b8576118b7611516565b5b60006118c687828801611564565b94505060206118d787828801611564565b93505060406118e887828801611564565b92505060606118f987828801611564565b91505092959194509250565b600082825260208201905092915050565b7f776974686472617720776f756c6420626520646f6e65206175746f6d6174696360008201527f616c6c7900000000000000000000000000000000000000000000000000000000602082015250565b6000611972602483611905565b915061197d82611916565b604082019050919050565b600060208201905081810360008301526119a181611965565b9050919050565b7f53616d652073657474696e670000000000000000000000000000000000000000600082015250565b60006119de600c83611905565b91506119e9826119a8565b602082019050919050565b60006020820190508181036000830152611a0d816119d1565b9050919050565b7f496e76616c69642061646d696e00000000000000000000000000000000000000600082015250565b6000611a4a600d83611905565b9150611a5582611a14565b602082019050919050565b60006020820190508181036000830152611a7981611a3d565b9050919050565b7f77697468647261772063616e6e6f7420626520646f6e65206175746f6d61746960008201527f63616c6c79000000000000000000000000000000000000000000000000000000602082015250565b6000611adc602583611905565b9150611ae782611a80565b604082019050919050565b60006020820190508181036000830152611b0b81611acf565b9050919050565b7f5265656e7472616e637947756172643a207265656e7472616e742063616c6c00600082015250565b6000611b48601f83611905565b9150611b5382611b12565b602082019050919050565b60006020820190508181036000830152611b7781611b3b565b9050919050565b7f496e76616c69642073656e646572000000000000000000000000000000000000600082015250565b6000611bb4600e83611905565b9150611bbf82611b7e565b602082019050919050565b60006020820190508181036000830152611be381611ba7565b9050919050565b7f54686973206f7074696f6e20646f65736e6f7420657869737400000000000000600082015250565b6000611c20601983611905565b9150611c2b82611bea565b602082019050919050565b60006020820190508181036000830152611c4f81611c13565b9050919050565b7f5374616b653a20496e76616c696420706572696f640000000000000000000000600082015250565b6000611c8c601583611905565b9150611c9782611c56565b602082019050919050565b60006020820190508181036000830152611cbb81611c7f565b9050919050565b7f496e76616c69642061697264726f7020616d6f756e7400000000000000000000600082015250565b6000611cf8601683611905565b9150611d0382611cc2565b602082019050919050565b60006020820190508181036000830152611d2781611ceb565b9050919050565b7f457870697265642e20506c656173652077697468647261772070726576696f7560008201527f73206f6e6520616e642072656e65772069740000000000000000000000000000602082015250565b6000611d8a603283611905565b9150611d9582611d2e565b604082019050919050565b60006020820190508181036000830152611db981611d7d565b9050919050565b600081519050611dcf81611704565b92915050565b600060208284031215611deb57611dea611516565b5b6000611df984828501611dc0565b91505092915050565b7f546f6b656e3a20496e73756666696369656e742062616c616e63650000000000600082015250565b6000611e38601b83611905565b9150611e4382611e02565b602082019050919050565b60006020820190508181036000830152611e6781611e2b565b9050919050565b6000606082019050611e836000830186611648565b611e906020830185611648565b611e9d60408301846115b0565b949350505050565b600081519050611eb481611778565b92915050565b600060208284031215611ed057611ecf611516565b5b6000611ede84828501611ea5565b91505092915050565b6000608082019050611efc60008301876115b0565b611f0960208301866115b0565b611f1660408301856115b0565b611f2360608301846115b0565b95945050505050565b7f546869732076616c756520697320696e20757365000000000000000000000000600082015250565b6000611f62601483611905565b9150611f6d82611f2c565b602082019050919050565b60006020820190508181036000830152611f9181611f55565b9050919050565b6000604082019050611fad60008301856115b0565b611fba60208301846115b0565b9392505050565b7f4f776e61626c653a206e6577206f776e657220697320746865207a65726f206160008201527f6464726573730000000000000000000000000000000000000000000000000000602082015250565b600061201d602683611905565b915061202882611fc1565b604082019050919050565b6000602082019050818103600083015261204c81612010565b9050919050565b7f416c726561647920696e697469616c697a656400000000000000000000000000600082015250565b6000612089601383611905565b915061209482612053565b602082019050919050565b600060208201905081810360008301526120b88161207c565b9050919050565b7f4e6f7420666163746f7279000000000000000000000000000000000000000000600082015250565b60006120f5600b83611905565b9150612100826120bf565b602082019050919050565b60006020820190508181036000830152612124816120e8565b9050919050565b7f596f757220706f736974696f6e206e6f74206578697374000000000000000000600082015250565b6000612161601783611905565b915061216c8261212b565b602082019050919050565b6000602082019050818103600083015261219081612154565b9050919050565b7f4e6f742061626c6520746f207769746864726177000000000000000000000000600082015250565b60006121cd601483611905565b91506121d882612197565b602082019050919050565b600060208201905081810360008301526121fc816121c0565b9050919050565b7f546f6b656e3a20496e73756666696369656e7420706f6f6c0000000000000000600082015250565b6000612239601883611905565b915061224482612203565b602082019050919050565b600060208201905081810360008301526122688161222c565b9050919050565b60006040820190506122846000830185611648565b61229160208301846115b0565b9392505050565b7f4f776e61626c653a2063616c6c6572206973206e6f7420746865206f776e6572600082015250565b60006122ce602083611905565b91506122d982612298565b602082019050919050565b600060208201905081810360008301526122fd816122c1565b9050919050565b7f4e487b7100000000000000000000000000000000000000000000000000000000600052601160045260246000fd5b600061233e826115a6565b9150612349836115a6565b925082820390508181111561236157612360612304565b5b92915050565b6000612372826115a6565b915061237d836115a6565b925082820190508082111561239557612394612304565b5b9291505056fea2646970667358221220e0f6fa17d1edeeb7d84debae3962aba635d2bb6ef9df0260e6b1b92f5ebf1f1864736f6c63430008110033a26469706673582212208e5b4f8eb54eb75d649cbd880d2dcf6226e58d0b48e27f31bb045713cbedd9a364736f6c63430008110033",
  "linkReferences": {},
  "deployedLinkReferences": {}
}