{
  "_format": "hh-sol-artifact-1",
  "contractName": "TAVA",
  "sourceName": "contracts/TAVA.sol",
  "abi": [
    {
      "inputs": [],
      "stateMutability": "nonpayable",
      "type": "constructor"
    },
    {
      "anonymous": false,
      "inputs": [
        {
          "indexed": true,
          "internalType": "address",
          "name": "owner",
          "type": "address"
        },
        {
          "indexed": true,
          "internalType": "address",
          "name": "spender",
          "type": "address"
        },
        {
          "indexed": false,
          "internalType": "uint256",
          "name": "value",
          "type": "uint256"
        }
      ],
      "name": "Approval",
      "type": "event"
    },
    {
      "anonymous": false,
      "inputs": [
        {
          "indexed": true,
          "internalType": "address",
          "name": "from",
          "type": "address"
        },
        {
          "indexed": true,
          "internalType": "address",
          "name": "to",
          "type": "address"
        },
        {
          "indexed": false,
          "internalType": "uint256",
          "name": "value",
          "type": "uint256"
        }
      ],
      "name": "Transfer",
      "type": "event"
    },
    {
      "inputs": [
        {
          "internalType": "address",
          "name": "owner",
          "type": "address"
        },
        {
          "internalType": "address",
          "name": "spender",
          "type": "address"
        }
      ],
      "name": "allowance",
      "outputs": [
        {
          "internalType": "uint256",
          "name": "",
          "type": "uint256"
        }
      ],
      "stateMutability": "view",
      "type": "function"
    },
    {
      "inputs": [
        {
          "internalType": "address",
          "name": "spender",
          "type": "address"
        },
        {
          "internalType": "uint256",
          "name": "amount",
          "type": "uint256"
        }
      ],
      "name": "approve",
      "outputs": [
        {
          "internalType": "bool",
          "name": "",
          "type": "bool"
        }
      ],
      "stateMutability": "nonpayable",
      "type": "function"
    },
    {
      "inputs": [
        {
          "internalType": "address",
          "name": "account",
          "type": "address"
        }
      ],
      "name": "balanceOf",
      "outputs": [
        {
          "internalType": "uint256",
          "name": "",
          "type": "uint256"
        }
      ],
      "stateMutability": "view",
      "type": "function"
    },
    {
      "inputs": [],
      "name": "decimals",
      "outputs": [
        {
          "internalType": "uint8",
          "name": "",
          "type": "uint8"
        }
      ],
      "stateMutability": "view",
      "type": "function"
    },
    {
      "inputs": [
        {
          "internalType": "address",
          "name": "spender",
          "type": "address"
        },
        {
          "internalType": "uint256",
          "name": "subtractedValue",
          "type": "uint256"
        }
      ],
      "name": "decreaseAllowance",
      "outputs": [
        {
          "internalType": "bool",
          "name": "",
          "type": "bool"
        }
      ],
      "stateMutability": "nonpayable",
      "type": "function"
    },
    {
      "inputs": [
        {
          "internalType": "address",
          "name": "spender",
          "type": "address"
        },
        {
          "internalType": "uint256",
          "name": "addedValue",
          "type": "uint256"
        }
      ],
      "name": "increaseAllowance",
      "outputs": [
        {
          "internalType": "bool",
          "name": "",
          "type": "bool"
        }
      ],
      "stateMutability": "nonpayable",
      "type": "function"
    },
    {
      "inputs": [],
      "name": "initialSupply",
      "outputs": [
        {
          "internalType": "uint256",
          "name": "",
          "type": "uint256"
        }
      ],
      "stateMutability": "view",
      "type": "function"
    },
    {
      "inputs": [],
      "name": "name",
      "outputs": [
        {
          "internalType": "string",
          "name": "",
          "type": "string"
        }
      ],
      "stateMutability": "view",
      "type": "function"
    },
    {
      "inputs": [],
      "name": "symbol",
      "outputs": [
        {
          "internalType": "string",
          "name": "",
          "type": "string"
        }
      ],
      "stateMutability": "view",
      "type": "function"
    },
    {
      "inputs": [],
      "name": "totalSupply",
      "outputs": [
        {
          "internalType": "uint256",
          "name": "",
          "type": "uint256"
        }
      ],
      "stateMutability": "view",
      "type": "function"
    },
    {
      "inputs": [
        {
          "internalType": "address",
          "name": "to",
          "type": "address"
        },
        {
          "internalType": "uint256",
          "name": "amount",
          "type": "uint256"
        }
      ],
      "name": "transfer",
      "outputs": [
        {
          "internalType": "bool",
          "name": "",
          "type": "bool"
        }
      ],
      "stateMutability": "nonpayable",
      "type": "function"
    },
    {
      "inputs": [
        {
          "internalType": "address",
          "name": "from",
          "type": "address"
        },
        {
          "internalType": "address",
          "name": "to",
          "type": "address"
        },
        {
          "internalType": "uint256",
          "name": "amount",
          "type": "uint256"
        }
      ],
      "name": "transferFrom",
      "outputs": [
        {
          "internalType": "bool",
          "name": "",
          "type": "bool"
        }
      ],
      "stateMutability": "nonpayable",
      "type": "function"
    }
  ],
  "bytecode": "0x608060405269d3c21bcecceda10000006005553480156200001f57600080fd5b506040518060400160405280600c81526020017f414c5441564120544f4b454e00000000000000000000000000000000000000008152506040518060400160405280600481526020017f544156410000000000000000000000000000000000000000000000000000000081525081600390816200009d9190620004c8565b508060049081620000af9190620004c8565b505050620000c633600554620000cc60201b60201c565b620006ca565b600073ffffffffffffffffffffffffffffffffffffffff168273ffffffffffffffffffffffffffffffffffffffff16036200013e576040517f08c379a0000000000000000000000000000000000000000000000000000000008152600401620001359062000610565b60405180910390fd5b62000152600083836200024460201b60201c565b806002600082825462000166919062000661565b92505081905550806000808473ffffffffffffffffffffffffffffffffffffffff1673ffffffffffffffffffffffffffffffffffffffff1681526020019081526020016000206000828254620001bd919062000661565b925050819055508173ffffffffffffffffffffffffffffffffffffffff16600073ffffffffffffffffffffffffffffffffffffffff167fddf252ad1be2c89b69c2b068fc378daa952ba7f163c4a11628f55a4df523b3ef83604051620002249190620006ad565b60405180910390a362000240600083836200024960201b60201c565b5050565b505050565b505050565b600081519050919050565b7f4e487b7100000000000000000000000000000000000000000000000000000000600052604160045260246000fd5b7f4e487b7100000000000000000000000000000000000000000000000000000000600052602260045260246000fd5b60006002820490506001821680620002d057607f821691505b602082108103620002e657620002e562000288565b5b50919050565b60008190508160005260206000209050919050565b60006020601f8301049050919050565b600082821b905092915050565b600060088302620003507fffffffffffffffffffffffffffffffffffffffffffffffffffffffffffffffff8262000311565b6200035c868362000311565b95508019841693508086168417925050509392505050565b6000819050919050565b6000819050919050565b6000620003a9620003a36200039d8462000374565b6200037e565b62000374565b9050919050565b6000819050919050565b620003c58362000388565b620003dd620003d482620003b0565b8484546200031e565b825550505050565b600090565b620003f4620003e5565b62000401818484620003ba565b505050565b5b8181101562000429576200041d600082620003ea565b60018101905062000407565b5050565b601f82111562000478576200044281620002ec565b6200044d8462000301565b810160208510156200045d578190505b620004756200046c8562000301565b83018262000406565b50505b505050565b600082821c905092915050565b60006200049d600019846008026200047d565b1980831691505092915050565b6000620004b883836200048a565b9150826002028217905092915050565b620004d3826200024e565b67ffffffffffffffff811115620004ef57620004ee62000259565b5b620004fb8254620002b7565b620005088282856200042d565b600060209050601f8311600181146200054057600084156200052b578287015190505b620005378582620004aa565b865550620005a7565b601f1984166200055086620002ec565b60005b828110156200057a5784890151825560018201915060208501945060208101905062000553565b868310156200059a578489015162000596601f8916826200048a565b8355505b6001600288020188555050505b505050505050565b600082825260208201905092915050565b7f45524332303a206d696e7420746f20746865207a65726f206164647265737300600082015250565b6000620005f8601f83620005af565b91506200060582620005c0565b602082019050919050565b600060208201905081810360008301526200062b81620005e9565b9050919050565b7f4e487b7100000000000000000000000000000000000000000000000000000000600052601160045260246000fd5b60006200066e8262000374565b91506200067b8362000374565b925082820190508082111562000696576200069562000632565b5b92915050565b620006a78162000374565b82525050565b6000602082019050620006c460008301846200069c565b92915050565b61126780620006da6000396000f3fe608060405234801561001057600080fd5b50600436106100b45760003560e01c80633950935111610071578063395093511461019157806370a08231146101c157806395d89b41146101f1578063a457c2d71461020f578063a9059cbb1461023f578063dd62ed3e1461026f576100b4565b806306fdde03146100b9578063095ea7b3146100d757806318160ddd1461010757806323b872dd14610125578063313ce56714610155578063378dc3dc14610173575b600080fd5b6100c161029f565b6040516100ce9190610b44565b60405180910390f35b6100f160048036038101906100ec9190610bff565b610331565b6040516100fe9190610c5a565b60405180910390f35b61010f610354565b60405161011c9190610c84565b60405180910390f35b61013f600480360381019061013a9190610c9f565b61035e565b60405161014c9190610c5a565b60405180910390f35b61015d61038d565b60405161016a9190610d0e565b60405180910390f35b61017b610396565b6040516101889190610c84565b60405180910390f35b6101ab60048036038101906101a69190610bff565b61039c565b6040516101b89190610c5a565b60405180910390f35b6101db60048036038101906101d69190610d29565b6103d3565b6040516101e89190610c84565b60405180910390f35b6101f961041b565b6040516102069190610b44565b60405180910390f35b61022960048036038101906102249190610bff565b6104ad565b6040516102369190610c5a565b60405180910390f35b61025960048036038101906102549190610bff565b610524565b6040516102669190610c5a565b60405180910390f35b61028960048036038101906102849190610d56565b610547565b6040516102969190610c84565b60405180910390f35b6060600380546102ae90610dc5565b80601f01602080910402602001604051908101604052809291908181526020018280546102da90610dc5565b80156103275780601f106102fc57610100808354040283529160200191610327565b820191906000526020600020905b81548152906001019060200180831161030a57829003601f168201915b5050505050905090565b60008061033c6105ce565b90506103498185856105d6565b600191505092915050565b6000600254905090565b6000806103696105ce565b905061037685828561079f565b61038185858561082b565b60019150509392505050565b60006012905090565b60055481565b6000806103a76105ce565b90506103c88185856103b98589610547565b6103c39190610e25565b6105d6565b600191505092915050565b60008060008373ffffffffffffffffffffffffffffffffffffffff1673ffffffffffffffffffffffffffffffffffffffff168152602001908152602001600020549050919050565b60606004805461042a90610dc5565b80601f016020809104026020016040519081016040528092919081815260200182805461045690610dc5565b80156104a35780601f10610478576101008083540402835291602001916104a3565b820191906000526020600020905b81548152906001019060200180831161048657829003601f168201915b5050505050905090565b6000806104b86105ce565b905060006104c68286610547565b90508381101561050b576040517f08c379a000000000000000000000000000000000000000000000000000000000815260040161050290610ecb565b60405180910390fd5b61051882868684036105d6565b60019250505092915050565b60008061052f6105ce565b905061053c81858561082b565b600191505092915050565b6000600160008473ffffffffffffffffffffffffffffffffffffffff1673ffffffffffffffffffffffffffffffffffffffff16815260200190815260200160002060008373ffffffffffffffffffffffffffffffffffffffff1673ffffffffffffffffffffffffffffffffffffffff16815260200190815260200160002054905092915050565b600033905090565b600073ffffffffffffffffffffffffffffffffffffffff168373ffffffffffffffffffffffffffffffffffffffff1603610645576040517f08c379a000000000000000000000000000000000000000000000000000000000815260040161063c90610f5d565b60405180910390fd5b600073ffffffffffffffffffffffffffffffffffffffff168273ffffffffffffffffffffffffffffffffffffffff16036106b4576040517f08c379a00000000000000000000000000000000000000000000000000000000081526004016106ab90610fef565b60405180910390fd5b80600160008573ffffffffffffffffffffffffffffffffffffffff1673ffffffffffffffffffffffffffffffffffffffff16815260200190815260200160002060008473ffffffffffffffffffffffffffffffffffffffff1673ffffffffffffffffffffffffffffffffffffffff168152602001908152602001600020819055508173ffffffffffffffffffffffffffffffffffffffff168373ffffffffffffffffffffffffffffffffffffffff167f8c5be1e5ebec7d5bd14f71427d1e84f3dd0314c0f7b2291e5b200ac8c7c3b925836040516107929190610c84565b60405180910390a3505050565b60006107ab8484610547565b90507fffffffffffffffffffffffffffffffffffffffffffffffffffffffffffffffff81146108255781811015610817576040517f08c379a000000000000000000000000000000000000000000000000000000000815260040161080e9061105b565b60405180910390fd5b61082484848484036105d6565b5b50505050565b600073ffffffffffffffffffffffffffffffffffffffff168373ffffffffffffffffffffffffffffffffffffffff160361089a576040517f08c379a0000000000000000000000000000000000000000000000000000000008152600401610891906110ed565b60405180910390fd5b600073ffffffffffffffffffffffffffffffffffffffff168273ffffffffffffffffffffffffffffffffffffffff1603610909576040517f08c379a00000000000000000000000000000000000000000000000000000000081526004016109009061117f565b60405180910390fd5b610914838383610aaa565b60008060008573ffffffffffffffffffffffffffffffffffffffff1673ffffffffffffffffffffffffffffffffffffffff1681526020019081526020016000205490508181101561099a576040517f08c379a000000000000000000000000000000000000000000000000000000000815260040161099190611211565b60405180910390fd5b8181036000808673ffffffffffffffffffffffffffffffffffffffff1673ffffffffffffffffffffffffffffffffffffffff16815260200190815260200160002081905550816000808573ffffffffffffffffffffffffffffffffffffffff1673ffffffffffffffffffffffffffffffffffffffff1681526020019081526020016000206000828254610a2d9190610e25565b925050819055508273ffffffffffffffffffffffffffffffffffffffff168473ffffffffffffffffffffffffffffffffffffffff167fddf252ad1be2c89b69c2b068fc378daa952ba7f163c4a11628f55a4df523b3ef84604051610a919190610c84565b60405180910390a3610aa4848484610aaf565b50505050565b505050565b505050565b600081519050919050565b600082825260208201905092915050565b60005b83811015610aee578082015181840152602081019050610ad3565b60008484015250505050565b6000601f19601f8301169050919050565b6000610b1682610ab4565b610b208185610abf565b9350610b30818560208601610ad0565b610b3981610afa565b840191505092915050565b60006020820190508181036000830152610b5e8184610b0b565b905092915050565b600080fd5b600073ffffffffffffffffffffffffffffffffffffffff82169050919050565b6000610b9682610b6b565b9050919050565b610ba681610b8b565b8114610bb157600080fd5b50565b600081359050610bc381610b9d565b92915050565b6000819050919050565b610bdc81610bc9565b8114610be757600080fd5b50565b600081359050610bf981610bd3565b92915050565b60008060408385031215610c1657610c15610b66565b5b6000610c2485828601610bb4565b9250506020610c3585828601610bea565b9150509250929050565b60008115159050919050565b610c5481610c3f565b82525050565b6000602082019050610c6f6000830184610c4b565b92915050565b610c7e81610bc9565b82525050565b6000602082019050610c996000830184610c75565b92915050565b600080600060608486031215610cb857610cb7610b66565b5b6000610cc686828701610bb4565b9350506020610cd786828701610bb4565b9250506040610ce886828701610bea565b9150509250925092565b600060ff82169050919050565b610d0881610cf2565b82525050565b6000602082019050610d236000830184610cff565b92915050565b600060208284031215610d3f57610d3e610b66565b5b6000610d4d84828501610bb4565b91505092915050565b60008060408385031215610d6d57610d6c610b66565b5b6000610d7b85828601610bb4565b9250506020610d8c85828601610bb4565b9150509250929050565b7f4e487b7100000000000000000000000000000000000000000000000000000000600052602260045260246000fd5b60006002820490506001821680610ddd57607f821691505b602082108103610df057610def610d96565b5b50919050565b7f4e487b7100000000000000000000000000000000000000000000000000000000600052601160045260246000fd5b6000610e3082610bc9565b9150610e3b83610bc9565b9250828201905080821115610e5357610e52610df6565b5b92915050565b7f45524332303a2064656372656173656420616c6c6f77616e63652062656c6f7760008201527f207a65726f000000000000000000000000000000000000000000000000000000602082015250565b6000610eb5602583610abf565b9150610ec082610e59565b604082019050919050565b60006020820190508181036000830152610ee481610ea8565b9050919050565b7f45524332303a20617070726f76652066726f6d20746865207a65726f2061646460008201527f7265737300000000000000000000000000000000000000000000000000000000602082015250565b6000610f47602483610abf565b9150610f5282610eeb565b604082019050919050565b60006020820190508181036000830152610f7681610f3a565b9050919050565b7f45524332303a20617070726f766520746f20746865207a65726f20616464726560008201527f7373000000000000000000000000000000000000000000000000000000000000602082015250565b6000610fd9602283610abf565b9150610fe482610f7d565b604082019050919050565b6000602082019050818103600083015261100881610fcc565b9050919050565b7f45524332303a20696e73756666696369656e7420616c6c6f77616e6365000000600082015250565b6000611045601d83610abf565b91506110508261100f565b602082019050919050565b6000602082019050818103600083015261107481611038565b9050919050565b7f45524332303a207472616e736665722066726f6d20746865207a65726f20616460008201527f6472657373000000000000000000000000000000000000000000000000000000602082015250565b60006110d7602583610abf565b91506110e28261107b565b604082019050919050565b60006020820190508181036000830152611106816110ca565b9050919050565b7f45524332303a207472616e7366657220746f20746865207a65726f206164647260008201527f6573730000000000000000000000000000000000000000000000000000000000602082015250565b6000611169602383610abf565b91506111748261110d565b604082019050919050565b600060208201905081810360008301526111988161115c565b9050919050565b7f45524332303a207472616e7366657220616d6f756e742065786365656473206260008201527f616c616e63650000000000000000000000000000000000000000000000000000602082015250565b60006111fb602683610abf565b91506112068261119f565b604082019050919050565b6000602082019050818103600083015261122a816111ee565b905091905056fea264697066735822122030eb06d7336ca1d014045953474f63e0d3e31642be895d6f036f83752d3224aa64736f6c63430008110033",
  "linkReferences": {},
  "deployedLinkReferences": {}
}