{
  "_format": "hh-sol-artifact-1",
  "contractName": "SecondSkinNFT",
  "sourceName": "contracts/SecondSkinNFT.sol",
  "abi": [
    {
      "inputs": [
        {
          "internalType": "address",
          "name": "_owner",
          "type": "address"
        },
        {
          "internalType": "address",
          "name": "_marketplaceAddress",
          "type": "address"
        }
      ],
      "stateMutability": "nonpayable",
      "type": "constructor"
    },
    {
      "inputs": [],
      "name": "SecondSkinNFT__InvalidOwner",
      "type": "error"
    },
    {
      "inputs": [],
      "name": "SecondSkinNFT__InvalidPrice",
      "type": "error"
    },
    {
      "anonymous": false,
      "inputs": [
        {
          "indexed": true,
          "internalType": "address",
          "name": "owner",
          "type": "address"
        },
        {
          "indexed": true,
          "internalType": "address",
          "name": "approved",
          "type": "address"
        },
        {
          "indexed": true,
          "internalType": "uint256",
          "name": "tokenId",
          "type": "uint256"
        }
      ],
      "name": "Approval",
      "type": "event"
    },
    {
      "anonymous": false,
      "inputs": [
        {
          "indexed": true,
          "internalType": "address",
          "name": "owner",
          "type": "address"
        },
        {
          "indexed": true,
          "internalType": "address",
          "name": "operator",
          "type": "address"
        },
        {
          "indexed": false,
          "internalType": "bool",
          "name": "approved",
          "type": "bool"
        }
      ],
      "name": "ApprovalForAll",
      "type": "event"
    },
    {
      "anonymous": false,
      "inputs": [
        {
          "indexed": true,
          "internalType": "uint256",
          "name": "tokenId",
          "type": "uint256"
        },
        {
          "indexed": true,
          "internalType": "string",
          "name": "tokenUri",
          "type": "string"
        }
      ],
      "name": "Minted",
      "type": "event"
    },
    {
      "anonymous": false,
      "inputs": [
        {
          "indexed": true,
          "internalType": "address",
          "name": "from",
          "type": "address"
        },
        {
          "indexed": true,
          "internalType": "address",
          "name": "to",
          "type": "address"
        },
        {
          "indexed": true,
          "internalType": "uint256",
          "name": "tokenId",
          "type": "uint256"
        }
      ],
      "name": "Transfer",
      "type": "event"
    },
    {
      "inputs": [
        {
          "internalType": "address",
          "name": "to",
          "type": "address"
        },
        {
          "internalType": "uint256",
          "name": "tokenId",
          "type": "uint256"
        }
      ],
      "name": "approve",
      "outputs": [],
      "stateMutability": "nonpayable",
      "type": "function"
    },
    {
      "inputs": [
        {
          "internalType": "address",
          "name": "owner",
          "type": "address"
        }
      ],
      "name": "balanceOf",
      "outputs": [
        {
          "internalType": "uint256",
          "name": "",
          "type": "uint256"
        }
      ],
      "stateMutability": "view",
      "type": "function"
    },
    {
      "inputs": [
        {
          "internalType": "uint256",
          "name": "tokenId",
          "type": "uint256"
        }
      ],
      "name": "getApproved",
      "outputs": [
        {
          "internalType": "address",
          "name": "",
          "type": "address"
        }
      ],
      "stateMutability": "view",
      "type": "function"
    },
    {
      "inputs": [],
      "name": "getCreator",
      "outputs": [
        {
          "internalType": "address",
          "name": "",
          "type": "address"
        }
      ],
      "stateMutability": "view",
      "type": "function"
    },
    {
      "inputs": [
        {
          "internalType": "uint256",
          "name": "_tokenId",
          "type": "uint256"
        }
      ],
      "name": "getItemPrice",
      "outputs": [
        {
          "internalType": "uint256",
          "name": "",
          "type": "uint256"
        }
      ],
      "stateMutability": "view",
      "type": "function"
    },
    {
      "inputs": [],
      "name": "getTotalSupply",
      "outputs": [
        {
          "internalType": "uint256",
          "name": "",
          "type": "uint256"
        }
      ],
      "stateMutability": "view",
      "type": "function"
    },
    {
      "inputs": [
        {
          "internalType": "address",
          "name": "owner",
          "type": "address"
        },
        {
          "internalType": "address",
          "name": "operator",
          "type": "address"
        }
      ],
      "name": "isApprovedForAll",
      "outputs": [
        {
          "internalType": "bool",
          "name": "",
          "type": "bool"
        }
      ],
      "stateMutability": "view",
      "type": "function"
    },
    {
      "inputs": [
        {
          "internalType": "string",
          "name": "_tokenUri",
          "type": "string"
        }
      ],
      "name": "mint",
      "outputs": [],
      "stateMutability": "nonpayable",
      "type": "function"
    },
    {
      "inputs": [],
      "name": "name",
      "outputs": [
        {
          "internalType": "string",
          "name": "",
          "type": "string"
        }
      ],
      "stateMutability": "view",
      "type": "function"
    },
    {
      "inputs": [
        {
          "internalType": "uint256",
          "name": "tokenId",
          "type": "uint256"
        }
      ],
      "name": "ownerOf",
      "outputs": [
        {
          "internalType": "address",
          "name": "",
          "type": "address"
        }
      ],
      "stateMutability": "view",
      "type": "function"
    },
    {
      "inputs": [
        {
          "internalType": "address",
          "name": "from",
          "type": "address"
        },
        {
          "internalType": "address",
          "name": "to",
          "type": "address"
        },
        {
          "internalType": "uint256",
          "name": "tokenId",
          "type": "uint256"
        }
      ],
      "name": "safeTransferFrom",
      "outputs": [],
      "stateMutability": "nonpayable",
      "type": "function"
    },
    {
      "inputs": [
        {
          "internalType": "address",
          "name": "from",
          "type": "address"
        },
        {
          "internalType": "address",
          "name": "to",
          "type": "address"
        },
        {
          "internalType": "uint256",
          "name": "tokenId",
          "type": "uint256"
        },
        {
          "internalType": "bytes",
          "name": "data",
          "type": "bytes"
        }
      ],
      "name": "safeTransferFrom",
      "outputs": [],
      "stateMutability": "nonpayable",
      "type": "function"
    },
    {
      "inputs": [
        {
          "internalType": "uint256",
          "name": "_price",
          "type": "uint256"
        }
      ],
      "name": "setAllNftPrice",
      "outputs": [],
      "stateMutability": "nonpayable",
      "type": "function"
    },
    {
      "inputs": [
        {
          "internalType": "address",
          "name": "operator",
          "type": "address"
        },
        {
          "internalType": "bool",
          "name": "approved",
          "type": "bool"
        }
      ],
      "name": "setApprovalForAll",
      "outputs": [],
      "stateMutability": "nonpayable",
      "type": "function"
    },
    {
      "inputs": [
        {
          "internalType": "bytes4",
          "name": "interfaceId",
          "type": "bytes4"
        }
      ],
      "name": "supportsInterface",
      "outputs": [
        {
          "internalType": "bool",
          "name": "",
          "type": "bool"
        }
      ],
      "stateMutability": "view",
      "type": "function"
    },
    {
      "inputs": [],
      "name": "symbol",
      "outputs": [
        {
          "internalType": "string",
          "name": "",
          "type": "string"
        }
      ],
      "stateMutability": "view",
      "type": "function"
    },
    {
      "inputs": [
        {
          "internalType": "uint256",
          "name": "tokenId",
          "type": "uint256"
        }
      ],
      "name": "tokenURI",
      "outputs": [
        {
          "internalType": "string",
          "name": "",
          "type": "string"
        }
      ],
      "stateMutability": "view",
      "type": "function"
    },
    {
      "inputs": [
        {
          "internalType": "address",
          "name": "from",
          "type": "address"
        },
        {
          "internalType": "address",
          "name": "to",
          "type": "address"
        },
        {
          "internalType": "uint256",
          "name": "tokenId",
          "type": "uint256"
        }
      ],
      "name": "transferFrom",
      "outputs": [],
      "stateMutability": "nonpayable",
      "type": "function"
    }
  ],
  "bytecode": "0x60806040523480156200001157600080fd5b50604051620032c4380380620032c48339818101604052810190620000379190620001bd565b6040518060400160405280601481526020017f414c54415641205365636f6e64536b696e4e46540000000000000000000000008152506040518060400160405280600d81526020017f5365636f6e64536b696e4e4654000000000000000000000000000000000000008152508160009081620000b491906200047e565b508060019081620000c691906200047e565b50505081600760006101000a81548173ffffffffffffffffffffffffffffffffffffffff021916908373ffffffffffffffffffffffffffffffffffffffff16021790555080600b60006101000a81548173ffffffffffffffffffffffffffffffffffffffff021916908373ffffffffffffffffffffffffffffffffffffffff160217905550505062000565565b600080fd5b600073ffffffffffffffffffffffffffffffffffffffff82169050919050565b6000620001858262000158565b9050919050565b620001978162000178565b8114620001a357600080fd5b50565b600081519050620001b7816200018c565b92915050565b60008060408385031215620001d757620001d662000153565b5b6000620001e785828601620001a6565b9250506020620001fa85828601620001a6565b9150509250929050565b600081519050919050565b7f4e487b7100000000000000000000000000000000000000000000000000000000600052604160045260246000fd5b7f4e487b7100000000000000000000000000000000000000000000000000000000600052602260045260246000fd5b600060028204905060018216806200028657607f821691505b6020821081036200029c576200029b6200023e565b5b50919050565b60008190508160005260206000209050919050565b60006020601f8301049050919050565b600082821b905092915050565b600060088302620003067fffffffffffffffffffffffffffffffffffffffffffffffffffffffffffffffff82620002c7565b620003128683620002c7565b95508019841693508086168417925050509392505050565b6000819050919050565b6000819050919050565b60006200035f6200035962000353846200032a565b62000334565b6200032a565b9050919050565b6000819050919050565b6200037b836200033e565b620003936200038a8262000366565b848454620002d4565b825550505050565b600090565b620003aa6200039b565b620003b781848462000370565b505050565b5b81811015620003df57620003d3600082620003a0565b600181019050620003bd565b5050565b601f8211156200042e57620003f881620002a2565b6200040384620002b7565b8101602085101562000413578190505b6200042b6200042285620002b7565b830182620003bc565b50505b505050565b600082821c905092915050565b6000620004536000198460080262000433565b1980831691505092915050565b60006200046e838362000440565b9150826002028217905092915050565b620004898262000204565b67ffffffffffffffff811115620004a557620004a46200020f565b5b620004b182546200026d565b620004be828285620003e3565b600060209050601f831160018114620004f65760008415620004e1578287015190505b620004ed858262000460565b8655506200055d565b601f1984166200050686620002a2565b60005b82811015620005305784890151825560018201915060208501945060208101905062000509565b868310156200055057848901516200054c601f89168262000440565b8355505b6001600288020188555050505b505050505050565b612d4f80620005756000396000f3fe608060405234801561001057600080fd5b50600436106101165760003560e01c806370a08231116100a2578063b88d4fde11610071578063b88d4fde146102f1578063c4e41b221461030d578063c87b56dd1461032b578063d85d3d271461035b578063e985e9c51461037757610116565b806370a082311461026b57806395d89b411461029b578063a22cb465146102b9578063b612d97a146102d557610116565b80630ee2cb10116100e95780630ee2cb10146101b557806323b872dd146101d357806342842e0e146101ef5780634c4df8701461020b5780636352211e1461023b57610116565b806301ffc9a71461011b57806306fdde031461014b578063081812fc14610169578063095ea7b314610199575b600080fd5b61013560048036038101906101309190611aca565b6103a7565b6040516101429190611b12565b60405180910390f35b610153610489565b6040516101609190611bbd565b60405180910390f35b610183600480360381019061017e9190611c15565b61051b565b6040516101909190611c83565b60405180910390f35b6101b360048036038101906101ae9190611cca565b610561565b005b6101bd610678565b6040516101ca9190611c83565b60405180910390f35b6101ed60048036038101906101e89190611d0a565b6106a2565b005b61020960048036038101906102049190611d0a565b610702565b005b61022560048036038101906102209190611c15565b610722565b6040516102329190611d6c565b60405180910390f35b61025560048036038101906102509190611c15565b61073f565b6040516102629190611c83565b60405180910390f35b61028560048036038101906102809190611d87565b6107f0565b6040516102929190611d6c565b60405180910390f35b6102a36108a7565b6040516102b09190611bbd565b60405180910390f35b6102d360048036038101906102ce9190611de0565b610939565b005b6102ef60048036038101906102ea9190611c15565b61094f565b005b61030b60048036038101906103069190611f55565b610a54565b005b610315610ab6565b6040516103229190611d6c565b60405180910390f35b61034560048036038101906103409190611c15565b610ac0565b6040516103529190611bbd565b60405180910390f35b61037560048036038101906103709190612079565b610bd2565b005b610391600480360381019061038c91906120c2565b610cd3565b60405161039e9190611b12565b60405180910390f35b60007f80ac58cd000000000000000000000000000000000000000000000000000000007bffffffffffffffffffffffffffffffffffffffffffffffffffffffff1916827bffffffffffffffffffffffffffffffffffffffffffffffffffffffff1916148061047257507f5b5e139f000000000000000000000000000000000000000000000000000000007bffffffffffffffffffffffffffffffffffffffffffffffffffffffff1916827bffffffffffffffffffffffffffffffffffffffffffffffffffffffff1916145b80610482575061048182610d67565b5b9050919050565b60606000805461049890612131565b80601f01602080910402602001604051908101604052809291908181526020018280546104c490612131565b80156105115780601f106104e657610100808354040283529160200191610511565b820191906000526020600020905b8154815290600101906020018083116104f457829003601f168201915b5050505050905090565b600061052682610dd1565b6004600083815260200190815260200160002060009054906101000a900473ffffffffffffffffffffffffffffffffffffffff169050919050565b600061056c8261073f565b90508073ffffffffffffffffffffffffffffffffffffffff168373ffffffffffffffffffffffffffffffffffffffff16036105dc576040517f08c379a00000000000000000000000000000000000000000000000000000000081526004016105d3906121d4565b60405180910390fd5b8073ffffffffffffffffffffffffffffffffffffffff166105fb610e1c565b73ffffffffffffffffffffffffffffffffffffffff16148061062a575061062981610624610e1c565b610cd3565b5b610669576040517f08c379a000000000000000000000000000000000000000000000000000000000815260040161066090612266565b60405180910390fd5b6106738383610e24565b505050565b6000600760009054906101000a900473ffffffffffffffffffffffffffffffffffffffff16905090565b6106b36106ad610e1c565b82610edd565b6106f2576040517f08c379a00000000000000000000000000000000000000000000000000000000081526004016106e9906122f8565b60405180910390fd5b6106fd838383610f72565b505050565b61071d83838360405180602001604052806000815250610a54565b505050565b6000600a6000838152602001908152602001600020549050919050565b6000806002600084815260200190815260200160002060009054906101000a900473ffffffffffffffffffffffffffffffffffffffff169050600073ffffffffffffffffffffffffffffffffffffffff168173ffffffffffffffffffffffffffffffffffffffff16036107e7576040517f08c379a00000000000000000000000000000000000000000000000000000000081526004016107de90612364565b60405180910390fd5b80915050919050565b60008073ffffffffffffffffffffffffffffffffffffffff168273ffffffffffffffffffffffffffffffffffffffff1603610860576040517f08c379a0000000000000000000000000000000000000000000000000000000008152600401610857906123f6565b60405180910390fd5b600360008373ffffffffffffffffffffffffffffffffffffffff1673ffffffffffffffffffffffffffffffffffffffff168152602001908152602001600020549050919050565b6060600180546108b690612131565b80601f01602080910402602001604051908101604052809291908181526020018280546108e290612131565b801561092f5780601f106109045761010080835404028352916020019161092f565b820191906000526020600020905b81548152906001019060200180831161091257829003601f168201915b5050505050905090565b61094b610944610e1c565b83836111d8565b5050565b806000811161098a576040517f6295153b00000000000000000000000000000000000000000000000000000000815260040160405180910390fd5b600760009054906101000a900473ffffffffffffffffffffffffffffffffffffffff1673ffffffffffffffffffffffffffffffffffffffff163373ffffffffffffffffffffffffffffffffffffffff1614610a11576040517fe318c36000000000000000000000000000000000000000000000000000000000815260040160405180910390fd5b6000600854905060005b81811015610a4e5783600a6000838152602001908152602001600020819055508080610a4690612445565b915050610a1b565b50505050565b610a65610a5f610e1c565b83610edd565b610aa4576040517f08c379a0000000000000000000000000000000000000000000000000000000008152600401610a9b906122f8565b60405180910390fd5b610ab084848484611344565b50505050565b6000600854905090565b6060610acb82610dd1565b6000600660008481526020019081526020016000208054610aeb90612131565b80601f0160208091040260200160405190810160405280929190818152602001828054610b1790612131565b8015610b645780601f10610b3957610100808354040283529160200191610b64565b820191906000526020600020905b815481529060010190602001808311610b4757829003601f168201915b505050505090506000610b756113a0565b90506000815103610b8a578192505050610bcd565b600082511115610bbf578082604051602001610ba79291906124c9565b60405160208183030381529060405292505050610bcd565b610bc8846113b7565b925050505b919050565b600760009054906101000a900473ffffffffffffffffffffffffffffffffffffffff1673ffffffffffffffffffffffffffffffffffffffff163373ffffffffffffffffffffffffffffffffffffffff1614610c59576040517fe318c36000000000000000000000000000000000000000000000000000000000815260040160405180910390fd5b6000600854905060086000815480929190610c7390612445565b9190505550610c82338261141f565b610c8c818361143d565b81604051610c9a91906124ed565b6040518091039020817fadef11a3979b8ceb0573eb6ef0678134a09c23a0d94e5ea47cd18ac3a9fc019460405160405180910390a35050565b6000600560008473ffffffffffffffffffffffffffffffffffffffff1673ffffffffffffffffffffffffffffffffffffffff16815260200190815260200160002060008373ffffffffffffffffffffffffffffffffffffffff1673ffffffffffffffffffffffffffffffffffffffff16815260200190815260200160002060009054906101000a900460ff16905092915050565b60007f01ffc9a7000000000000000000000000000000000000000000000000000000007bffffffffffffffffffffffffffffffffffffffffffffffffffffffff1916827bffffffffffffffffffffffffffffffffffffffffffffffffffffffff1916149050919050565b610dda816114aa565b610e19576040517f08c379a0000000000000000000000000000000000000000000000000000000008152600401610e1090612364565b60405180910390fd5b50565b600033905090565b816004600083815260200190815260200160002060006101000a81548173ffffffffffffffffffffffffffffffffffffffff021916908373ffffffffffffffffffffffffffffffffffffffff160217905550808273ffffffffffffffffffffffffffffffffffffffff16610e978361073f565b73ffffffffffffffffffffffffffffffffffffffff167f8c5be1e5ebec7d5bd14f71427d1e84f3dd0314c0f7b2291e5b200ac8c7c3b92560405160405180910390a45050565b600080610ee98361073f565b90508073ffffffffffffffffffffffffffffffffffffffff168473ffffffffffffffffffffffffffffffffffffffff161480610f2b5750610f2a8185610cd3565b5b80610f6957508373ffffffffffffffffffffffffffffffffffffffff16610f518461051b565b73ffffffffffffffffffffffffffffffffffffffff16145b91505092915050565b8273ffffffffffffffffffffffffffffffffffffffff16610f928261073f565b73ffffffffffffffffffffffffffffffffffffffff1614610fe8576040517f08c379a0000000000000000000000000000000000000000000000000000000008152600401610fdf90612576565b60405180910390fd5b600073ffffffffffffffffffffffffffffffffffffffff168273ffffffffffffffffffffffffffffffffffffffff1603611057576040517f08c379a000000000000000000000000000000000000000000000000000000000815260040161104e90612608565b60405180910390fd5b611062838383611516565b61106d600082610e24565b6001600360008573ffffffffffffffffffffffffffffffffffffffff1673ffffffffffffffffffffffffffffffffffffffff16815260200190815260200160002060008282546110bd9190612628565b925050819055506001600360008473ffffffffffffffffffffffffffffffffffffffff1673ffffffffffffffffffffffffffffffffffffffff1681526020019081526020016000206000828254611114919061265c565b92505081905550816002600083815260200190815260200160002060006101000a81548173ffffffffffffffffffffffffffffffffffffffff021916908373ffffffffffffffffffffffffffffffffffffffff160217905550808273ffffffffffffffffffffffffffffffffffffffff168473ffffffffffffffffffffffffffffffffffffffff167fddf252ad1be2c89b69c2b068fc378daa952ba7f163c4a11628f55a4df523b3ef60405160405180910390a46111d383838361151b565b505050565b8173ffffffffffffffffffffffffffffffffffffffff168373ffffffffffffffffffffffffffffffffffffffff1603611246576040517f08c379a000000000000000000000000000000000000000000000000000000000815260040161123d906126dc565b60405180910390fd5b80600560008573ffffffffffffffffffffffffffffffffffffffff1673ffffffffffffffffffffffffffffffffffffffff16815260200190815260200160002060008473ffffffffffffffffffffffffffffffffffffffff1673ffffffffffffffffffffffffffffffffffffffff16815260200190815260200160002060006101000a81548160ff0219169083151502179055508173ffffffffffffffffffffffffffffffffffffffff168373ffffffffffffffffffffffffffffffffffffffff167f17307eab39ab6107e8899845ad3d59bd9653f200f220920489ca2b5937696c31836040516113379190611b12565b60405180910390a3505050565b61134f848484610f72565b61135b84848484611520565b61139a576040517f08c379a00000000000000000000000000000000000000000000000000000000081526004016113919061276e565b60405180910390fd5b50505050565b606060405180602001604052806000815250905090565b60606113c282610dd1565b60006113cc6113a0565b905060008151116113ec5760405180602001604052806000815250611417565b806113f6846116a7565b6040516020016114079291906124c9565b6040516020818303038152906040525b915050919050565b611439828260405180602001604052806000815250611807565b5050565b611446826114aa565b611485576040517f08c379a000000000000000000000000000000000000000000000000000000000815260040161147c90612800565b60405180910390fd5b806006600084815260200190815260200160002090816114a591906129cc565b505050565b60008073ffffffffffffffffffffffffffffffffffffffff166002600084815260200190815260200160002060009054906101000a900473ffffffffffffffffffffffffffffffffffffffff1673ffffffffffffffffffffffffffffffffffffffff1614159050919050565b505050565b505050565b60006115418473ffffffffffffffffffffffffffffffffffffffff16611862565b1561169a578373ffffffffffffffffffffffffffffffffffffffff1663150b7a0261156a610e1c565b8786866040518563ffffffff1660e01b815260040161158c9493929190612af3565b6020604051808303816000875af19250505080156115c857506040513d601f19601f820116820180604052508101906115c59190612b54565b60015b61164a573d80600081146115f8576040519150601f19603f3d011682016040523d82523d6000602084013e6115fd565b606091505b506000815103611642576040517f08c379a00000000000000000000000000000000000000000000000000000000081526004016116399061276e565b60405180910390fd5b805181602001fd5b63150b7a0260e01b7bffffffffffffffffffffffffffffffffffffffffffffffffffffffff1916817bffffffffffffffffffffffffffffffffffffffffffffffffffffffff19161491505061169f565b600190505b949350505050565b6060600082036116ee576040518060400160405280600181526020017f30000000000000000000000000000000000000000000000000000000000000008152509050611802565b600082905060005b6000821461172057808061170990612445565b915050600a826117199190612bb0565b91506116f6565b60008167ffffffffffffffff81111561173c5761173b611e2a565b5b6040519080825280601f01601f19166020018201604052801561176e5781602001600182028036833780820191505090505b5090505b600085146117fb576001826117879190612628565b9150600a856117969190612be1565b60306117a2919061265c565b60f81b8183815181106117b8576117b7612c12565b5b60200101907effffffffffffffffffffffffffffffffffffffffffffffffffffffffffffff1916908160001a905350600a856117f49190612bb0565b9450611772565b8093505050505b919050565b6118118383611885565b61181e6000848484611520565b61185d576040517f08c379a00000000000000000000000000000000000000000000000000000000081526004016118549061276e565b60405180910390fd5b505050565b6000808273ffffffffffffffffffffffffffffffffffffffff163b119050919050565b600073ffffffffffffffffffffffffffffffffffffffff168273ffffffffffffffffffffffffffffffffffffffff16036118f4576040517f08c379a00000000000000000000000000000000000000000000000000000000081526004016118eb90612c8d565b60405180910390fd5b6118fd816114aa565b1561193d576040517f08c379a000000000000000000000000000000000000000000000000000000000815260040161193490612cf9565b60405180910390fd5b61194960008383611516565b6001600360008473ffffffffffffffffffffffffffffffffffffffff1673ffffffffffffffffffffffffffffffffffffffff1681526020019081526020016000206000828254611999919061265c565b92505081905550816002600083815260200190815260200160002060006101000a81548173ffffffffffffffffffffffffffffffffffffffff021916908373ffffffffffffffffffffffffffffffffffffffff160217905550808273ffffffffffffffffffffffffffffffffffffffff16600073ffffffffffffffffffffffffffffffffffffffff167fddf252ad1be2c89b69c2b068fc378daa952ba7f163c4a11628f55a4df523b3ef60405160405180910390a4611a5a6000838361151b565b5050565b6000604051905090565b600080fd5b600080fd5b60007fffffffff0000000000000000000000000000000000000000000000000000000082169050919050565b611aa781611a72565b8114611ab257600080fd5b50565b600081359050611ac481611a9e565b92915050565b600060208284031215611ae057611adf611a68565b5b6000611aee84828501611ab5565b91505092915050565b60008115159050919050565b611b0c81611af7565b82525050565b6000602082019050611b276000830184611b03565b92915050565b600081519050919050565b600082825260208201905092915050565b60005b83811015611b67578082015181840152602081019050611b4c565b60008484015250505050565b6000601f19601f8301169050919050565b6000611b8f82611b2d565b611b998185611b38565b9350611ba9818560208601611b49565b611bb281611b73565b840191505092915050565b60006020820190508181036000830152611bd78184611b84565b905092915050565b6000819050919050565b611bf281611bdf565b8114611bfd57600080fd5b50565b600081359050611c0f81611be9565b92915050565b600060208284031215611c2b57611c2a611a68565b5b6000611c3984828501611c00565b91505092915050565b600073ffffffffffffffffffffffffffffffffffffffff82169050919050565b6000611c6d82611c42565b9050919050565b611c7d81611c62565b82525050565b6000602082019050611c986000830184611c74565b92915050565b611ca781611c62565b8114611cb257600080fd5b50565b600081359050611cc481611c9e565b92915050565b60008060408385031215611ce157611ce0611a68565b5b6000611cef85828601611cb5565b9250506020611d0085828601611c00565b9150509250929050565b600080600060608486031215611d2357611d22611a68565b5b6000611d3186828701611cb5565b9350506020611d4286828701611cb5565b9250506040611d5386828701611c00565b9150509250925092565b611d6681611bdf565b82525050565b6000602082019050611d816000830184611d5d565b92915050565b600060208284031215611d9d57611d9c611a68565b5b6000611dab84828501611cb5565b91505092915050565b611dbd81611af7565b8114611dc857600080fd5b50565b600081359050611dda81611db4565b92915050565b60008060408385031215611df757611df6611a68565b5b6000611e0585828601611cb5565b9250506020611e1685828601611dcb565b9150509250929050565b600080fd5b600080fd5b7f4e487b7100000000000000000000000000000000000000000000000000000000600052604160045260246000fd5b611e6282611b73565b810181811067ffffffffffffffff82111715611e8157611e80611e2a565b5b80604052505050565b6000611e94611a5e565b9050611ea08282611e59565b919050565b600067ffffffffffffffff821115611ec057611ebf611e2a565b5b611ec982611b73565b9050602081019050919050565b82818337600083830152505050565b6000611ef8611ef384611ea5565b611e8a565b905082815260208101848484011115611f1457611f13611e25565b5b611f1f848285611ed6565b509392505050565b600082601f830112611f3c57611f3b611e20565b5b8135611f4c848260208601611ee5565b91505092915050565b60008060008060808587031215611f6f57611f6e611a68565b5b6000611f7d87828801611cb5565b9450506020611f8e87828801611cb5565b9350506040611f9f87828801611c00565b925050606085013567ffffffffffffffff811115611fc057611fbf611a6d565b5b611fcc87828801611f27565b91505092959194509250565b600067ffffffffffffffff821115611ff357611ff2611e2a565b5b611ffc82611b73565b9050602081019050919050565b600061201c61201784611fd8565b611e8a565b90508281526020810184848401111561203857612037611e25565b5b612043848285611ed6565b509392505050565b600082601f8301126120605761205f611e20565b5b8135612070848260208601612009565b91505092915050565b60006020828403121561208f5761208e611a68565b5b600082013567ffffffffffffffff8111156120ad576120ac611a6d565b5b6120b98482850161204b565b91505092915050565b600080604083850312156120d9576120d8611a68565b5b60006120e785828601611cb5565b92505060206120f885828601611cb5565b9150509250929050565b7f4e487b7100000000000000000000000000000000000000000000000000000000600052602260045260246000fd5b6000600282049050600182168061214957607f821691505b60208210810361215c5761215b612102565b5b50919050565b7f4552433732313a20617070726f76616c20746f2063757272656e74206f776e6560008201527f7200000000000000000000000000000000000000000000000000000000000000602082015250565b60006121be602183611b38565b91506121c982612162565b604082019050919050565b600060208201905081810360008301526121ed816121b1565b9050919050565b7f4552433732313a20617070726f76652063616c6c6572206973206e6f7420746f60008201527f6b656e206f776e6572206e6f7220617070726f76656420666f7220616c6c0000602082015250565b6000612250603e83611b38565b915061225b826121f4565b604082019050919050565b6000602082019050818103600083015261227f81612243565b9050919050565b7f4552433732313a2063616c6c6572206973206e6f7420746f6b656e206f776e6560008201527f72206e6f7220617070726f766564000000000000000000000000000000000000602082015250565b60006122e2602e83611b38565b91506122ed82612286565b604082019050919050565b60006020820190508181036000830152612311816122d5565b9050919050565b7f4552433732313a20696e76616c696420746f6b656e2049440000000000000000600082015250565b600061234e601883611b38565b915061235982612318565b602082019050919050565b6000602082019050818103600083015261237d81612341565b9050919050565b7f4552433732313a2061646472657373207a65726f206973206e6f74206120766160008201527f6c6964206f776e65720000000000000000000000000000000000000000000000602082015250565b60006123e0602983611b38565b91506123eb82612384565b604082019050919050565b6000602082019050818103600083015261240f816123d3565b9050919050565b7f4e487b7100000000000000000000000000000000000000000000000000000000600052601160045260246000fd5b600061245082611bdf565b91507fffffffffffffffffffffffffffffffffffffffffffffffffffffffffffffffff820361248257612481612416565b5b600182019050919050565b600081905092915050565b60006124a382611b2d565b6124ad818561248d565b93506124bd818560208601611b49565b80840191505092915050565b60006124d58285612498565b91506124e18284612498565b91508190509392505050565b60006124f98284612498565b915081905092915050565b7f4552433732313a207472616e736665722066726f6d20696e636f72726563742060008201527f6f776e6572000000000000000000000000000000000000000000000000000000602082015250565b6000612560602583611b38565b915061256b82612504565b604082019050919050565b6000602082019050818103600083015261258f81612553565b9050919050565b7f4552433732313a207472616e7366657220746f20746865207a65726f2061646460008201527f7265737300000000000000000000000000000000000000000000000000000000602082015250565b60006125f2602483611b38565b91506125fd82612596565b604082019050919050565b60006020820190508181036000830152612621816125e5565b9050919050565b600061263382611bdf565b915061263e83611bdf565b925082820390508181111561265657612655612416565b5b92915050565b600061266782611bdf565b915061267283611bdf565b925082820190508082111561268a57612689612416565b5b92915050565b7f4552433732313a20617070726f766520746f2063616c6c657200000000000000600082015250565b60006126c6601983611b38565b91506126d182612690565b602082019050919050565b600060208201905081810360008301526126f5816126b9565b9050919050565b7f4552433732313a207472616e7366657220746f206e6f6e20455243373231526560008201527f63656976657220696d706c656d656e7465720000000000000000000000000000602082015250565b6000612758603283611b38565b9150612763826126fc565b604082019050919050565b600060208201905081810360008301526127878161274b565b9050919050565b7f45524337323155524953746f726167653a2055524920736574206f66206e6f6e60008201527f6578697374656e7420746f6b656e000000000000000000000000000000000000602082015250565b60006127ea602e83611b38565b91506127f58261278e565b604082019050919050565b60006020820190508181036000830152612819816127dd565b9050919050565b60008190508160005260206000209050919050565b60006020601f8301049050919050565b600082821b905092915050565b6000600883026128827fffffffffffffffffffffffffffffffffffffffffffffffffffffffffffffffff82612845565b61288c8683612845565b95508019841693508086168417925050509392505050565b6000819050919050565b60006128c96128c46128bf84611bdf565b6128a4565b611bdf565b9050919050565b6000819050919050565b6128e3836128ae565b6128f76128ef826128d0565b848454612852565b825550505050565b600090565b61290c6128ff565b6129178184846128da565b505050565b5b8181101561293b57612930600082612904565b60018101905061291d565b5050565b601f8211156129805761295181612820565b61295a84612835565b81016020851015612969578190505b61297d61297585612835565b83018261291c565b50505b505050565b600082821c905092915050565b60006129a360001984600802612985565b1980831691505092915050565b60006129bc8383612992565b9150826002028217905092915050565b6129d582611b2d565b67ffffffffffffffff8111156129ee576129ed611e2a565b5b6129f88254612131565b612a0382828561293f565b600060209050601f831160018114612a365760008415612a24578287015190505b612a2e85826129b0565b865550612a96565b601f198416612a4486612820565b60005b82811015612a6c57848901518255600182019150602085019450602081019050612a47565b86831015612a895784890151612a85601f891682612992565b8355505b6001600288020188555050505b505050505050565b600081519050919050565b600082825260208201905092915050565b6000612ac582612a9e565b612acf8185612aa9565b9350612adf818560208601611b49565b612ae881611b73565b840191505092915050565b6000608082019050612b086000830187611c74565b612b156020830186611c74565b612b226040830185611d5d565b8181036060830152612b348184612aba565b905095945050505050565b600081519050612b4e81611a9e565b92915050565b600060208284031215612b6a57612b69611a68565b5b6000612b7884828501612b3f565b91505092915050565b7f4e487b7100000000000000000000000000000000000000000000000000000000600052601260045260246000fd5b6000612bbb82611bdf565b9150612bc683611bdf565b925082612bd657612bd5612b81565b5b828204905092915050565b6000612bec82611bdf565b9150612bf783611bdf565b925082612c0757612c06612b81565b5b828206905092915050565b7f4e487b7100000000000000000000000000000000000000000000000000000000600052603260045260246000fd5b7f4552433732313a206d696e7420746f20746865207a65726f2061646472657373600082015250565b6000612c77602083611b38565b9150612c8282612c41565b602082019050919050565b60006020820190508181036000830152612ca681612c6a565b9050919050565b7f4552433732313a20746f6b656e20616c7265616479206d696e74656400000000600082015250565b6000612ce3601c83611b38565b9150612cee82612cad565b602082019050919050565b60006020820190508181036000830152612d1281612cd6565b905091905056fea264697066735822122021477083daaae0fa062db945098c5d147f5b79b1de738596319e24687f3f291d64736f6c63430008110033",
  "linkReferences": {},
  "deployedLinkReferences": {}
}