{
  "_format": "hh-sol-artifact-1",
  "contractName": "SecondSkinNFT",
  "sourceName": "contracts/SecondSkinNFT.sol",
  "abi": [
    {
      "inputs": [
        {
          "internalType": "address",
          "name": "newOwner",
          "type": "address"
        }
      ],
      "stateMutability": "nonpayable",
      "type": "constructor"
    },
    {
      "inputs": [],
      "name": "SecondSkinNFT__InvalidOwner",
      "type": "error"
    },
    {
      "anonymous": false,
      "inputs": [
        {
          "indexed": true,
          "internalType": "address",
          "name": "owner",
          "type": "address"
        },
        {
          "indexed": true,
          "internalType": "address",
          "name": "approved",
          "type": "address"
        },
        {
          "indexed": true,
          "internalType": "uint256",
          "name": "tokenId",
          "type": "uint256"
        }
      ],
      "name": "Approval",
      "type": "event"
    },
    {
      "anonymous": false,
      "inputs": [
        {
          "indexed": true,
          "internalType": "address",
          "name": "owner",
          "type": "address"
        },
        {
          "indexed": true,
          "internalType": "address",
          "name": "operator",
          "type": "address"
        },
        {
          "indexed": false,
          "internalType": "bool",
          "name": "approved",
          "type": "bool"
        }
      ],
      "name": "ApprovalForAll",
      "type": "event"
    },
    {
      "anonymous": false,
      "inputs": [
        {
          "indexed": true,
          "internalType": "uint256",
          "name": "tokenId",
          "type": "uint256"
        },
        {
          "indexed": true,
          "internalType": "string",
          "name": "tokenUri",
          "type": "string"
        }
      ],
      "name": "Minted",
      "type": "event"
    },
    {
      "anonymous": false,
      "inputs": [
        {
          "indexed": true,
          "internalType": "address",
          "name": "from",
          "type": "address"
        },
        {
          "indexed": true,
          "internalType": "address",
          "name": "to",
          "type": "address"
        },
        {
          "indexed": true,
          "internalType": "uint256",
          "name": "tokenId",
          "type": "uint256"
        }
      ],
      "name": "Transfer",
      "type": "event"
    },
    {
      "inputs": [
        {
          "internalType": "address",
          "name": "to",
          "type": "address"
        },
        {
          "internalType": "uint256",
          "name": "tokenId",
          "type": "uint256"
        }
      ],
      "name": "approve",
      "outputs": [],
      "stateMutability": "nonpayable",
      "type": "function"
    },
    {
      "inputs": [
        {
          "internalType": "address",
          "name": "owner",
          "type": "address"
        }
      ],
      "name": "balanceOf",
      "outputs": [
        {
          "internalType": "uint256",
          "name": "",
          "type": "uint256"
        }
      ],
      "stateMutability": "view",
      "type": "function"
    },
    {
      "inputs": [
        {
          "internalType": "uint256",
          "name": "tokenId",
          "type": "uint256"
        }
      ],
      "name": "getApproved",
      "outputs": [
        {
          "internalType": "address",
          "name": "",
          "type": "address"
        }
      ],
      "stateMutability": "view",
      "type": "function"
    },
    {
      "inputs": [],
      "name": "getTotalSupply",
      "outputs": [
        {
          "internalType": "uint256",
          "name": "",
          "type": "uint256"
        }
      ],
      "stateMutability": "view",
      "type": "function"
    },
    {
      "inputs": [
        {
          "internalType": "address",
          "name": "owner",
          "type": "address"
        },
        {
          "internalType": "address",
          "name": "operator",
          "type": "address"
        }
      ],
      "name": "isApprovedForAll",
      "outputs": [
        {
          "internalType": "bool",
          "name": "",
          "type": "bool"
        }
      ],
      "stateMutability": "view",
      "type": "function"
    },
    {
      "inputs": [
        {
          "internalType": "string",
          "name": "_tokenUri",
          "type": "string"
        }
      ],
      "name": "mint",
      "outputs": [],
      "stateMutability": "nonpayable",
      "type": "function"
    },
    {
      "inputs": [],
      "name": "name",
      "outputs": [
        {
          "internalType": "string",
          "name": "",
          "type": "string"
        }
      ],
      "stateMutability": "view",
      "type": "function"
    },
    {
      "inputs": [],
      "name": "owner",
      "outputs": [
        {
          "internalType": "address",
          "name": "",
          "type": "address"
        }
      ],
      "stateMutability": "view",
      "type": "function"
    },
    {
      "inputs": [
        {
          "internalType": "uint256",
          "name": "tokenId",
          "type": "uint256"
        }
      ],
      "name": "ownerOf",
      "outputs": [
        {
          "internalType": "address",
          "name": "",
          "type": "address"
        }
      ],
      "stateMutability": "view",
      "type": "function"
    },
    {
      "inputs": [
        {
          "internalType": "address",
          "name": "from",
          "type": "address"
        },
        {
          "internalType": "address",
          "name": "to",
          "type": "address"
        },
        {
          "internalType": "uint256",
          "name": "tokenId",
          "type": "uint256"
        }
      ],
      "name": "safeTransferFrom",
      "outputs": [],
      "stateMutability": "nonpayable",
      "type": "function"
    },
    {
      "inputs": [
        {
          "internalType": "address",
          "name": "from",
          "type": "address"
        },
        {
          "internalType": "address",
          "name": "to",
          "type": "address"
        },
        {
          "internalType": "uint256",
          "name": "tokenId",
          "type": "uint256"
        },
        {
          "internalType": "bytes",
          "name": "data",
          "type": "bytes"
        }
      ],
      "name": "safeTransferFrom",
      "outputs": [],
      "stateMutability": "nonpayable",
      "type": "function"
    },
    {
      "inputs": [
        {
          "internalType": "address",
          "name": "operator",
          "type": "address"
        },
        {
          "internalType": "bool",
          "name": "approved",
          "type": "bool"
        }
      ],
      "name": "setApprovalForAll",
      "outputs": [],
      "stateMutability": "nonpayable",
      "type": "function"
    },
    {
      "inputs": [
        {
          "internalType": "bytes4",
          "name": "interfaceId",
          "type": "bytes4"
        }
      ],
      "name": "supportsInterface",
      "outputs": [
        {
          "internalType": "bool",
          "name": "",
          "type": "bool"
        }
      ],
      "stateMutability": "view",
      "type": "function"
    },
    {
      "inputs": [],
      "name": "symbol",
      "outputs": [
        {
          "internalType": "string",
          "name": "",
          "type": "string"
        }
      ],
      "stateMutability": "view",
      "type": "function"
    },
    {
      "inputs": [
        {
          "internalType": "uint256",
          "name": "tokenId",
          "type": "uint256"
        }
      ],
      "name": "tokenURI",
      "outputs": [
        {
          "internalType": "string",
          "name": "",
          "type": "string"
        }
      ],
      "stateMutability": "view",
      "type": "function"
    },
    {
      "inputs": [
        {
          "internalType": "address",
          "name": "from",
          "type": "address"
        },
        {
          "internalType": "address",
          "name": "to",
          "type": "address"
        },
        {
          "internalType": "uint256",
          "name": "tokenId",
          "type": "uint256"
        }
      ],
      "name": "transferFrom",
      "outputs": [],
      "stateMutability": "nonpayable",
      "type": "function"
    }
  ],
  "bytecode": "0x60806040523480156200001157600080fd5b50604051620030e9380380620030e983398181016040528101906200003791906200017b565b6040518060400160405280601481526020017f414c54415641205365636f6e64536b696e4e46540000000000000000000000008152506040518060400160405280600d81526020017f5365636f6e64536b696e4e4654000000000000000000000000000000000000008152508160009081620000b4919062000427565b508060019081620000c6919062000427565b50505080600760006101000a81548173ffffffffffffffffffffffffffffffffffffffff021916908373ffffffffffffffffffffffffffffffffffffffff160217905550506200050e565b600080fd5b600073ffffffffffffffffffffffffffffffffffffffff82169050919050565b6000620001438262000116565b9050919050565b620001558162000136565b81146200016157600080fd5b50565b60008151905062000175816200014a565b92915050565b60006020828403121562000194576200019362000111565b5b6000620001a48482850162000164565b91505092915050565b600081519050919050565b7f4e487b7100000000000000000000000000000000000000000000000000000000600052604160045260246000fd5b7f4e487b7100000000000000000000000000000000000000000000000000000000600052602260045260246000fd5b600060028204905060018216806200022f57607f821691505b602082108103620002455762000244620001e7565b5b50919050565b60008190508160005260206000209050919050565b60006020601f8301049050919050565b600082821b905092915050565b600060088302620002af7fffffffffffffffffffffffffffffffffffffffffffffffffffffffffffffffff8262000270565b620002bb868362000270565b95508019841693508086168417925050509392505050565b6000819050919050565b6000819050919050565b60006200030862000302620002fc84620002d3565b620002dd565b620002d3565b9050919050565b6000819050919050565b6200032483620002e7565b6200033c62000333826200030f565b8484546200027d565b825550505050565b600090565b6200035362000344565b6200036081848462000319565b505050565b5b8181101562000388576200037c60008262000349565b60018101905062000366565b5050565b601f821115620003d757620003a1816200024b565b620003ac8462000260565b81016020851015620003bc578190505b620003d4620003cb8562000260565b83018262000365565b50505b505050565b600082821c905092915050565b6000620003fc60001984600802620003dc565b1980831691505092915050565b6000620004178383620003e9565b9150826002028217905092915050565b6200043282620001ad565b67ffffffffffffffff8111156200044e576200044d620001b8565b5b6200045a825462000216565b620004678282856200038c565b600060209050601f8311600181146200049f57600084156200048a578287015190505b62000496858262000409565b86555062000506565b601f198416620004af866200024b565b60005b82811015620004d957848901518255600182019150602085019450602081019050620004b2565b86831015620004f95784890151620004f5601f891682620003e9565b8355505b6001600288020188555050505b505050505050565b612bcb806200051e6000396000f3fe608060405234801561001057600080fd5b50600436106101005760003560e01c80638da5cb5b11610097578063c4e41b2211610066578063c4e41b22146102ab578063c87b56dd146102c9578063d85d3d27146102f9578063e985e9c51461031557610100565b80638da5cb5b1461023757806395d89b4114610255578063a22cb46514610273578063b88d4fde1461028f57610100565b806323b872dd116100d357806323b872dd1461019f57806342842e0e146101bb5780636352211e146101d757806370a082311461020757610100565b806301ffc9a71461010557806306fdde0314610135578063081812fc14610153578063095ea7b314610183575b600080fd5b61011f600480360381019061011a9190611946565b610345565b60405161012c919061198e565b60405180910390f35b61013d610427565b60405161014a9190611a39565b60405180910390f35b61016d60048036038101906101689190611a91565b6104b9565b60405161017a9190611aff565b60405180910390f35b61019d60048036038101906101989190611b46565b6104ff565b005b6101b960048036038101906101b49190611b86565b610616565b005b6101d560048036038101906101d09190611b86565b610676565b005b6101f160048036038101906101ec9190611a91565b610696565b6040516101fe9190611aff565b60405180910390f35b610221600480360381019061021c9190611bd9565b610747565b60405161022e9190611c15565b60405180910390f35b61023f6107fe565b60405161024c9190611aff565b60405180910390f35b61025d610828565b60405161026a9190611a39565b60405180910390f35b61028d60048036038101906102889190611c5c565b6108ba565b005b6102a960048036038101906102a49190611dd1565b6108d0565b005b6102b3610932565b6040516102c09190611c15565b60405180910390f35b6102e360048036038101906102de9190611a91565b61093c565b6040516102f09190611a39565b60405180910390f35b610313600480360381019061030e9190611ef5565b610a4e565b005b61032f600480360381019061032a9190611f3e565b610b4f565b60405161033c919061198e565b60405180910390f35b60007f80ac58cd000000000000000000000000000000000000000000000000000000007bffffffffffffffffffffffffffffffffffffffffffffffffffffffff1916827bffffffffffffffffffffffffffffffffffffffffffffffffffffffff1916148061041057507f5b5e139f000000000000000000000000000000000000000000000000000000007bffffffffffffffffffffffffffffffffffffffffffffffffffffffff1916827bffffffffffffffffffffffffffffffffffffffffffffffffffffffff1916145b80610420575061041f82610be3565b5b9050919050565b60606000805461043690611fad565b80601f016020809104026020016040519081016040528092919081815260200182805461046290611fad565b80156104af5780601f10610484576101008083540402835291602001916104af565b820191906000526020600020905b81548152906001019060200180831161049257829003601f168201915b5050505050905090565b60006104c482610c4d565b6004600083815260200190815260200160002060009054906101000a900473ffffffffffffffffffffffffffffffffffffffff169050919050565b600061050a82610696565b90508073ffffffffffffffffffffffffffffffffffffffff168373ffffffffffffffffffffffffffffffffffffffff160361057a576040517f08c379a000000000000000000000000000000000000000000000000000000000815260040161057190612050565b60405180910390fd5b8073ffffffffffffffffffffffffffffffffffffffff16610599610c98565b73ffffffffffffffffffffffffffffffffffffffff1614806105c857506105c7816105c2610c98565b610b4f565b5b610607576040517f08c379a00000000000000000000000000000000000000000000000000000000081526004016105fe906120e2565b60405180910390fd5b6106118383610ca0565b505050565b610627610621610c98565b82610d59565b610666576040517f08c379a000000000000000000000000000000000000000000000000000000000815260040161065d90612174565b60405180910390fd5b610671838383610dee565b505050565b610691838383604051806020016040528060008152506108d0565b505050565b6000806002600084815260200190815260200160002060009054906101000a900473ffffffffffffffffffffffffffffffffffffffff169050600073ffffffffffffffffffffffffffffffffffffffff168173ffffffffffffffffffffffffffffffffffffffff160361073e576040517f08c379a0000000000000000000000000000000000000000000000000000000008152600401610735906121e0565b60405180910390fd5b80915050919050565b60008073ffffffffffffffffffffffffffffffffffffffff168273ffffffffffffffffffffffffffffffffffffffff16036107b7576040517f08c379a00000000000000000000000000000000000000000000000000000000081526004016107ae90612272565b60405180910390fd5b600360008373ffffffffffffffffffffffffffffffffffffffff1673ffffffffffffffffffffffffffffffffffffffff168152602001908152602001600020549050919050565b6000600760009054906101000a900473ffffffffffffffffffffffffffffffffffffffff16905090565b60606001805461083790611fad565b80601f016020809104026020016040519081016040528092919081815260200182805461086390611fad565b80156108b05780601f10610885576101008083540402835291602001916108b0565b820191906000526020600020905b81548152906001019060200180831161089357829003601f168201915b5050505050905090565b6108cc6108c5610c98565b8383611054565b5050565b6108e16108db610c98565b83610d59565b610920576040517f08c379a000000000000000000000000000000000000000000000000000000000815260040161091790612174565b60405180910390fd5b61092c848484846111c0565b50505050565b6000600854905090565b606061094782610c4d565b600060066000848152602001908152602001600020805461096790611fad565b80601f016020809104026020016040519081016040528092919081815260200182805461099390611fad565b80156109e05780601f106109b5576101008083540402835291602001916109e0565b820191906000526020600020905b8154815290600101906020018083116109c357829003601f168201915b5050505050905060006109f161121c565b90506000815103610a06578192505050610a49565b600082511115610a3b578082604051602001610a239291906122ce565b60405160208183030381529060405292505050610a49565b610a4484611233565b925050505b919050565b600760009054906101000a900473ffffffffffffffffffffffffffffffffffffffff1673ffffffffffffffffffffffffffffffffffffffff163373ffffffffffffffffffffffffffffffffffffffff1614610ad5576040517fe318c36000000000000000000000000000000000000000000000000000000000815260040160405180910390fd5b6000600854905060086000815480929190610aef90612321565b9190505550610afe338261129b565b610b0881836112b9565b81604051610b169190612369565b6040518091039020817fadef11a3979b8ceb0573eb6ef0678134a09c23a0d94e5ea47cd18ac3a9fc019460405160405180910390a35050565b6000600560008473ffffffffffffffffffffffffffffffffffffffff1673ffffffffffffffffffffffffffffffffffffffff16815260200190815260200160002060008373ffffffffffffffffffffffffffffffffffffffff1673ffffffffffffffffffffffffffffffffffffffff16815260200190815260200160002060009054906101000a900460ff16905092915050565b60007f01ffc9a7000000000000000000000000000000000000000000000000000000007bffffffffffffffffffffffffffffffffffffffffffffffffffffffff1916827bffffffffffffffffffffffffffffffffffffffffffffffffffffffff1916149050919050565b610c5681611326565b610c95576040517f08c379a0000000000000000000000000000000000000000000000000000000008152600401610c8c906121e0565b60405180910390fd5b50565b600033905090565b816004600083815260200190815260200160002060006101000a81548173ffffffffffffffffffffffffffffffffffffffff021916908373ffffffffffffffffffffffffffffffffffffffff160217905550808273ffffffffffffffffffffffffffffffffffffffff16610d1383610696565b73ffffffffffffffffffffffffffffffffffffffff167f8c5be1e5ebec7d5bd14f71427d1e84f3dd0314c0f7b2291e5b200ac8c7c3b92560405160405180910390a45050565b600080610d6583610696565b90508073ffffffffffffffffffffffffffffffffffffffff168473ffffffffffffffffffffffffffffffffffffffff161480610da75750610da68185610b4f565b5b80610de557508373ffffffffffffffffffffffffffffffffffffffff16610dcd846104b9565b73ffffffffffffffffffffffffffffffffffffffff16145b91505092915050565b8273ffffffffffffffffffffffffffffffffffffffff16610e0e82610696565b73ffffffffffffffffffffffffffffffffffffffff1614610e64576040517f08c379a0000000000000000000000000000000000000000000000000000000008152600401610e5b906123f2565b60405180910390fd5b600073ffffffffffffffffffffffffffffffffffffffff168273ffffffffffffffffffffffffffffffffffffffff1603610ed3576040517f08c379a0000000000000000000000000000000000000000000000000000000008152600401610eca90612484565b60405180910390fd5b610ede838383611392565b610ee9600082610ca0565b6001600360008573ffffffffffffffffffffffffffffffffffffffff1673ffffffffffffffffffffffffffffffffffffffff1681526020019081526020016000206000828254610f3991906124a4565b925050819055506001600360008473ffffffffffffffffffffffffffffffffffffffff1673ffffffffffffffffffffffffffffffffffffffff1681526020019081526020016000206000828254610f9091906124d8565b92505081905550816002600083815260200190815260200160002060006101000a81548173ffffffffffffffffffffffffffffffffffffffff021916908373ffffffffffffffffffffffffffffffffffffffff160217905550808273ffffffffffffffffffffffffffffffffffffffff168473ffffffffffffffffffffffffffffffffffffffff167fddf252ad1be2c89b69c2b068fc378daa952ba7f163c4a11628f55a4df523b3ef60405160405180910390a461104f838383611397565b505050565b8173ffffffffffffffffffffffffffffffffffffffff168373ffffffffffffffffffffffffffffffffffffffff16036110c2576040517f08c379a00000000000000000000000000000000000000000000000000000000081526004016110b990612558565b60405180910390fd5b80600560008573ffffffffffffffffffffffffffffffffffffffff1673ffffffffffffffffffffffffffffffffffffffff16815260200190815260200160002060008473ffffffffffffffffffffffffffffffffffffffff1673ffffffffffffffffffffffffffffffffffffffff16815260200190815260200160002060006101000a81548160ff0219169083151502179055508173ffffffffffffffffffffffffffffffffffffffff168373ffffffffffffffffffffffffffffffffffffffff167f17307eab39ab6107e8899845ad3d59bd9653f200f220920489ca2b5937696c31836040516111b3919061198e565b60405180910390a3505050565b6111cb848484610dee565b6111d78484848461139c565b611216576040517f08c379a000000000000000000000000000000000000000000000000000000000815260040161120d906125ea565b60405180910390fd5b50505050565b606060405180602001604052806000815250905090565b606061123e82610c4d565b600061124861121c565b905060008151116112685760405180602001604052806000815250611293565b8061127284611523565b6040516020016112839291906122ce565b6040516020818303038152906040525b915050919050565b6112b5828260405180602001604052806000815250611683565b5050565b6112c282611326565b611301576040517f08c379a00000000000000000000000000000000000000000000000000000000081526004016112f89061267c565b60405180910390fd5b806006600084815260200190815260200160002090816113219190612848565b505050565b60008073ffffffffffffffffffffffffffffffffffffffff166002600084815260200190815260200160002060009054906101000a900473ffffffffffffffffffffffffffffffffffffffff1673ffffffffffffffffffffffffffffffffffffffff1614159050919050565b505050565b505050565b60006113bd8473ffffffffffffffffffffffffffffffffffffffff166116de565b15611516578373ffffffffffffffffffffffffffffffffffffffff1663150b7a026113e6610c98565b8786866040518563ffffffff1660e01b8152600401611408949392919061296f565b6020604051808303816000875af192505050801561144457506040513d601f19601f8201168201806040525081019061144191906129d0565b60015b6114c6573d8060008114611474576040519150601f19603f3d011682016040523d82523d6000602084013e611479565b606091505b5060008151036114be576040517f08c379a00000000000000000000000000000000000000000000000000000000081526004016114b5906125ea565b60405180910390fd5b805181602001fd5b63150b7a0260e01b7bffffffffffffffffffffffffffffffffffffffffffffffffffffffff1916817bffffffffffffffffffffffffffffffffffffffffffffffffffffffff19161491505061151b565b600190505b949350505050565b60606000820361156a576040518060400160405280600181526020017f3000000000000000000000000000000000000000000000000000000000000000815250905061167e565b600082905060005b6000821461159c57808061158590612321565b915050600a826115959190612a2c565b9150611572565b60008167ffffffffffffffff8111156115b8576115b7611ca6565b5b6040519080825280601f01601f1916602001820160405280156115ea5781602001600182028036833780820191505090505b5090505b600085146116775760018261160391906124a4565b9150600a856116129190612a5d565b603061161e91906124d8565b60f81b81838151811061163457611633612a8e565b5b60200101907effffffffffffffffffffffffffffffffffffffffffffffffffffffffffffff1916908160001a905350600a856116709190612a2c565b94506115ee565b8093505050505b919050565b61168d8383611701565b61169a600084848461139c565b6116d9576040517f08c379a00000000000000000000000000000000000000000000000000000000081526004016116d0906125ea565b60405180910390fd5b505050565b6000808273ffffffffffffffffffffffffffffffffffffffff163b119050919050565b600073ffffffffffffffffffffffffffffffffffffffff168273ffffffffffffffffffffffffffffffffffffffff1603611770576040517f08c379a000000000000000000000000000000000000000000000000000000000815260040161176790612b09565b60405180910390fd5b61177981611326565b156117b9576040517f08c379a00000000000000000000000000000000000000000000000000000000081526004016117b090612b75565b60405180910390fd5b6117c560008383611392565b6001600360008473ffffffffffffffffffffffffffffffffffffffff1673ffffffffffffffffffffffffffffffffffffffff168152602001908152602001600020600082825461181591906124d8565b92505081905550816002600083815260200190815260200160002060006101000a81548173ffffffffffffffffffffffffffffffffffffffff021916908373ffffffffffffffffffffffffffffffffffffffff160217905550808273ffffffffffffffffffffffffffffffffffffffff16600073ffffffffffffffffffffffffffffffffffffffff167fddf252ad1be2c89b69c2b068fc378daa952ba7f163c4a11628f55a4df523b3ef60405160405180910390a46118d660008383611397565b5050565b6000604051905090565b600080fd5b600080fd5b60007fffffffff0000000000000000000000000000000000000000000000000000000082169050919050565b611923816118ee565b811461192e57600080fd5b50565b6000813590506119408161191a565b92915050565b60006020828403121561195c5761195b6118e4565b5b600061196a84828501611931565b91505092915050565b60008115159050919050565b61198881611973565b82525050565b60006020820190506119a3600083018461197f565b92915050565b600081519050919050565b600082825260208201905092915050565b60005b838110156119e35780820151818401526020810190506119c8565b60008484015250505050565b6000601f19601f8301169050919050565b6000611a0b826119a9565b611a1581856119b4565b9350611a258185602086016119c5565b611a2e816119ef565b840191505092915050565b60006020820190508181036000830152611a538184611a00565b905092915050565b6000819050919050565b611a6e81611a5b565b8114611a7957600080fd5b50565b600081359050611a8b81611a65565b92915050565b600060208284031215611aa757611aa66118e4565b5b6000611ab584828501611a7c565b91505092915050565b600073ffffffffffffffffffffffffffffffffffffffff82169050919050565b6000611ae982611abe565b9050919050565b611af981611ade565b82525050565b6000602082019050611b146000830184611af0565b92915050565b611b2381611ade565b8114611b2e57600080fd5b50565b600081359050611b4081611b1a565b92915050565b60008060408385031215611b5d57611b5c6118e4565b5b6000611b6b85828601611b31565b9250506020611b7c85828601611a7c565b9150509250929050565b600080600060608486031215611b9f57611b9e6118e4565b5b6000611bad86828701611b31565b9350506020611bbe86828701611b31565b9250506040611bcf86828701611a7c565b9150509250925092565b600060208284031215611bef57611bee6118e4565b5b6000611bfd84828501611b31565b91505092915050565b611c0f81611a5b565b82525050565b6000602082019050611c2a6000830184611c06565b92915050565b611c3981611973565b8114611c4457600080fd5b50565b600081359050611c5681611c30565b92915050565b60008060408385031215611c7357611c726118e4565b5b6000611c8185828601611b31565b9250506020611c9285828601611c47565b9150509250929050565b600080fd5b600080fd5b7f4e487b7100000000000000000000000000000000000000000000000000000000600052604160045260246000fd5b611cde826119ef565b810181811067ffffffffffffffff82111715611cfd57611cfc611ca6565b5b80604052505050565b6000611d106118da565b9050611d1c8282611cd5565b919050565b600067ffffffffffffffff821115611d3c57611d3b611ca6565b5b611d45826119ef565b9050602081019050919050565b82818337600083830152505050565b6000611d74611d6f84611d21565b611d06565b905082815260208101848484011115611d9057611d8f611ca1565b5b611d9b848285611d52565b509392505050565b600082601f830112611db857611db7611c9c565b5b8135611dc8848260208601611d61565b91505092915050565b60008060008060808587031215611deb57611dea6118e4565b5b6000611df987828801611b31565b9450506020611e0a87828801611b31565b9350506040611e1b87828801611a7c565b925050606085013567ffffffffffffffff811115611e3c57611e3b6118e9565b5b611e4887828801611da3565b91505092959194509250565b600067ffffffffffffffff821115611e6f57611e6e611ca6565b5b611e78826119ef565b9050602081019050919050565b6000611e98611e9384611e54565b611d06565b905082815260208101848484011115611eb457611eb3611ca1565b5b611ebf848285611d52565b509392505050565b600082601f830112611edc57611edb611c9c565b5b8135611eec848260208601611e85565b91505092915050565b600060208284031215611f0b57611f0a6118e4565b5b600082013567ffffffffffffffff811115611f2957611f286118e9565b5b611f3584828501611ec7565b91505092915050565b60008060408385031215611f5557611f546118e4565b5b6000611f6385828601611b31565b9250506020611f7485828601611b31565b9150509250929050565b7f4e487b7100000000000000000000000000000000000000000000000000000000600052602260045260246000fd5b60006002820490506001821680611fc557607f821691505b602082108103611fd857611fd7611f7e565b5b50919050565b7f4552433732313a20617070726f76616c20746f2063757272656e74206f776e6560008201527f7200000000000000000000000000000000000000000000000000000000000000602082015250565b600061203a6021836119b4565b915061204582611fde565b604082019050919050565b600060208201905081810360008301526120698161202d565b9050919050565b7f4552433732313a20617070726f76652063616c6c6572206973206e6f7420746f60008201527f6b656e206f776e6572206e6f7220617070726f76656420666f7220616c6c0000602082015250565b60006120cc603e836119b4565b91506120d782612070565b604082019050919050565b600060208201905081810360008301526120fb816120bf565b9050919050565b7f4552433732313a2063616c6c6572206973206e6f7420746f6b656e206f776e6560008201527f72206e6f7220617070726f766564000000000000000000000000000000000000602082015250565b600061215e602e836119b4565b915061216982612102565b604082019050919050565b6000602082019050818103600083015261218d81612151565b9050919050565b7f4552433732313a20696e76616c696420746f6b656e2049440000000000000000600082015250565b60006121ca6018836119b4565b91506121d582612194565b602082019050919050565b600060208201905081810360008301526121f9816121bd565b9050919050565b7f4552433732313a2061646472657373207a65726f206973206e6f74206120766160008201527f6c6964206f776e65720000000000000000000000000000000000000000000000602082015250565b600061225c6029836119b4565b915061226782612200565b604082019050919050565b6000602082019050818103600083015261228b8161224f565b9050919050565b600081905092915050565b60006122a8826119a9565b6122b28185612292565b93506122c28185602086016119c5565b80840191505092915050565b60006122da828561229d565b91506122e6828461229d565b91508190509392505050565b7f4e487b7100000000000000000000000000000000000000000000000000000000600052601160045260246000fd5b600061232c82611a5b565b91507fffffffffffffffffffffffffffffffffffffffffffffffffffffffffffffffff820361235e5761235d6122f2565b5b600182019050919050565b6000612375828461229d565b915081905092915050565b7f4552433732313a207472616e736665722066726f6d20696e636f72726563742060008201527f6f776e6572000000000000000000000000000000000000000000000000000000602082015250565b60006123dc6025836119b4565b91506123e782612380565b604082019050919050565b6000602082019050818103600083015261240b816123cf565b9050919050565b7f4552433732313a207472616e7366657220746f20746865207a65726f2061646460008201527f7265737300000000000000000000000000000000000000000000000000000000602082015250565b600061246e6024836119b4565b915061247982612412565b604082019050919050565b6000602082019050818103600083015261249d81612461565b9050919050565b60006124af82611a5b565b91506124ba83611a5b565b92508282039050818111156124d2576124d16122f2565b5b92915050565b60006124e382611a5b565b91506124ee83611a5b565b9250828201905080821115612506576125056122f2565b5b92915050565b7f4552433732313a20617070726f766520746f2063616c6c657200000000000000600082015250565b60006125426019836119b4565b915061254d8261250c565b602082019050919050565b6000602082019050818103600083015261257181612535565b9050919050565b7f4552433732313a207472616e7366657220746f206e6f6e20455243373231526560008201527f63656976657220696d706c656d656e7465720000000000000000000000000000602082015250565b60006125d46032836119b4565b91506125df82612578565b604082019050919050565b60006020820190508181036000830152612603816125c7565b9050919050565b7f45524337323155524953746f726167653a2055524920736574206f66206e6f6e60008201527f6578697374656e7420746f6b656e000000000000000000000000000000000000602082015250565b6000612666602e836119b4565b91506126718261260a565b604082019050919050565b6000602082019050818103600083015261269581612659565b9050919050565b60008190508160005260206000209050919050565b60006020601f8301049050919050565b600082821b905092915050565b6000600883026126fe7fffffffffffffffffffffffffffffffffffffffffffffffffffffffffffffffff826126c1565b61270886836126c1565b95508019841693508086168417925050509392505050565b6000819050919050565b600061274561274061273b84611a5b565b612720565b611a5b565b9050919050565b6000819050919050565b61275f8361272a565b61277361276b8261274c565b8484546126ce565b825550505050565b600090565b61278861277b565b612793818484612756565b505050565b5b818110156127b7576127ac600082612780565b600181019050612799565b5050565b601f8211156127fc576127cd8161269c565b6127d6846126b1565b810160208510156127e5578190505b6127f96127f1856126b1565b830182612798565b50505b505050565b600082821c905092915050565b600061281f60001984600802612801565b1980831691505092915050565b6000612838838361280e565b9150826002028217905092915050565b612851826119a9565b67ffffffffffffffff81111561286a57612869611ca6565b5b6128748254611fad565b61287f8282856127bb565b600060209050601f8311600181146128b257600084156128a0578287015190505b6128aa858261282c565b865550612912565b601f1984166128c08661269c565b60005b828110156128e8578489015182556001820191506020850194506020810190506128c3565b868310156129055784890151612901601f89168261280e565b8355505b6001600288020188555050505b505050505050565b600081519050919050565b600082825260208201905092915050565b60006129418261291a565b61294b8185612925565b935061295b8185602086016119c5565b612964816119ef565b840191505092915050565b60006080820190506129846000830187611af0565b6129916020830186611af0565b61299e6040830185611c06565b81810360608301526129b08184612936565b905095945050505050565b6000815190506129ca8161191a565b92915050565b6000602082840312156129e6576129e56118e4565b5b60006129f4848285016129bb565b91505092915050565b7f4e487b7100000000000000000000000000000000000000000000000000000000600052601260045260246000fd5b6000612a3782611a5b565b9150612a4283611a5b565b925082612a5257612a516129fd565b5b828204905092915050565b6000612a6882611a5b565b9150612a7383611a5b565b925082612a8357612a826129fd565b5b828206905092915050565b7f4e487b7100000000000000000000000000000000000000000000000000000000600052603260045260246000fd5b7f4552433732313a206d696e7420746f20746865207a65726f2061646472657373600082015250565b6000612af36020836119b4565b9150612afe82612abd565b602082019050919050565b60006020820190508181036000830152612b2281612ae6565b9050919050565b7f4552433732313a20746f6b656e20616c7265616479206d696e74656400000000600082015250565b6000612b5f601c836119b4565b9150612b6a82612b29565b602082019050919050565b60006020820190508181036000830152612b8e81612b52565b905091905056fea2646970667358221220463dbd30e9b507de11f1b16abaec4f7f7c50cb9c42cbfe20e43e35a329338e6464736f6c63430008110033",
  "linkReferences": {},
  "deployedLinkReferences": {}
}