{
  "_format": "hh-sol-artifact-1",
  "contractName": "SmartChef",
  "sourceName": "contracts/SmartChef.sol",
  "abi": [
    {
      "inputs": [],
      "stateMutability": "nonpayable",
      "type": "constructor"
    },
    {
      "anonymous": false,
      "inputs": [
        {
          "indexed": true,
          "internalType": "address",
          "name": "user",
          "type": "address"
        },
        {
          "indexed": false,
          "internalType": "uint256",
          "name": "amount",
          "type": "uint256"
        }
      ],
      "name": "EmergencyWithdraw",
      "type": "event"
    },
    {
      "anonymous": false,
      "inputs": [
        {
          "indexed": false,
          "internalType": "uint256",
          "name": "poolLimitPerUser",
          "type": "uint256"
        }
      ],
      "name": "NewPoolLimit",
      "type": "event"
    },
    {
      "anonymous": false,
      "inputs": [
        {
          "indexed": true,
          "internalType": "address",
          "name": "previousOwner",
          "type": "address"
        },
        {
          "indexed": true,
          "internalType": "address",
          "name": "newOwner",
          "type": "address"
        }
      ],
      "name": "OwnershipTransferred",
      "type": "event"
    },
    {
      "anonymous": false,
      "inputs": [
        {
          "indexed": false,
          "internalType": "address",
          "name": "account",
          "type": "address"
        }
      ],
      "name": "Paused",
      "type": "event"
    },
    {
      "anonymous": false,
      "inputs": [
        {
          "indexed": true,
          "internalType": "address",
          "name": "user",
          "type": "address"
        },
        {
          "indexed": false,
          "internalType": "uint256",
          "name": "amount",
          "type": "uint256"
        }
      ],
      "name": "Stake",
      "type": "event"
    },
    {
      "anonymous": false,
      "inputs": [
        {
          "indexed": false,
          "internalType": "address",
          "name": "account",
          "type": "address"
        }
      ],
      "name": "Unpaused",
      "type": "event"
    },
    {
      "anonymous": false,
      "inputs": [
        {
          "indexed": true,
          "internalType": "address",
          "name": "user",
          "type": "address"
        },
        {
          "indexed": false,
          "internalType": "uint256",
          "name": "stakedAmount",
          "type": "uint256"
        },
        {
          "indexed": false,
          "internalType": "uint256",
          "name": "totalReward",
          "type": "uint256"
        }
      ],
      "name": "Withdraw",
      "type": "event"
    },
    {
      "inputs": [],
      "name": "MASTER_SMART_CHEF_FACTORY",
      "outputs": [
        {
          "internalType": "address",
          "name": "",
          "type": "address"
        }
      ],
      "stateMutability": "view",
      "type": "function"
    },
    {
      "inputs": [],
      "name": "PRECISION_FACTOR",
      "outputs": [
        {
          "internalType": "uint256",
          "name": "",
          "type": "uint256"
        }
      ],
      "stateMutability": "view",
      "type": "function"
    },
    {
      "inputs": [],
      "name": "accTokenPerShare",
      "outputs": [
        {
          "internalType": "uint256",
          "name": "",
          "type": "uint256"
        }
      ],
      "stateMutability": "view",
      "type": "function"
    },
    {
      "inputs": [],
      "name": "admin",
      "outputs": [
        {
          "internalType": "address",
          "name": "",
          "type": "address"
        }
      ],
      "stateMutability": "view",
      "type": "function"
    },
    {
      "inputs": [
        {
          "internalType": "address",
          "name": "sender",
          "type": "address"
        }
      ],
      "name": "adminWithdraw",
      "outputs": [],
      "stateMutability": "nonpayable",
      "type": "function"
    },
    {
      "inputs": [],
      "name": "bonusEndBlock",
      "outputs": [
        {
          "internalType": "uint256",
          "name": "",
          "type": "uint256"
        }
      ],
      "stateMutability": "view",
      "type": "function"
    },
    {
      "inputs": [
        {
          "internalType": "address",
          "name": "from",
          "type": "address"
        }
      ],
      "name": "calculate",
      "outputs": [
        {
          "internalType": "uint256",
          "name": "",
          "type": "uint256"
        }
      ],
      "stateMutability": "view",
      "type": "function"
    },
    {
      "inputs": [
        {
          "internalType": "uint256",
          "name": "_amount",
          "type": "uint256"
        }
      ],
      "name": "emergencyRewardWithdraw",
      "outputs": [],
      "stateMutability": "nonpayable",
      "type": "function"
    },
    {
      "inputs": [],
      "name": "emergencyWithdraw",
      "outputs": [],
      "stateMutability": "nonpayable",
      "type": "function"
    },
    {
      "inputs": [],
      "name": "hasUserLimit",
      "outputs": [
        {
          "internalType": "bool",
          "name": "",
          "type": "bool"
        }
      ],
      "stateMutability": "view",
      "type": "function"
    },
    {
      "inputs": [
        {
          "internalType": "contract IERC20Metadata",
          "name": "_stakedToken",
          "type": "address"
        },
        {
          "internalType": "contract IERC20Metadata",
          "name": "_rewardToken",
          "type": "address"
        },
        {
          "internalType": "uint256",
          "name": "_rewardPerBlock",
          "type": "uint256"
        },
        {
          "internalType": "uint256",
          "name": "_startBlock",
          "type": "uint256"
        },
        {
          "internalType": "uint256",
          "name": "_bonusEndBlock",
          "type": "uint256"
        },
        {
          "internalType": "uint256",
          "name": "_poolLimitPerUser",
          "type": "uint256"
        },
        {
          "internalType": "uint256",
          "name": "_numberBlocksForUserLimit",
          "type": "uint256"
        },
        {
          "internalType": "address",
          "name": "_admin",
          "type": "address"
        },
        {
          "internalType": "address",
          "name": "_newOwner",
          "type": "address"
        }
      ],
      "name": "initialize",
      "outputs": [],
      "stateMutability": "nonpayable",
      "type": "function"
    },
    {
      "inputs": [],
      "name": "isInitialized",
      "outputs": [
        {
          "internalType": "bool",
          "name": "",
          "type": "bool"
        }
      ],
      "stateMutability": "view",
      "type": "function"
    },
    {
      "inputs": [],
      "name": "lastRewardBlock",
      "outputs": [
        {
          "internalType": "uint256",
          "name": "",
          "type": "uint256"
        }
      ],
      "stateMutability": "view",
      "type": "function"
    },
    {
      "inputs": [],
      "name": "numberBlocksForUserLimit",
      "outputs": [
        {
          "internalType": "uint256",
          "name": "",
          "type": "uint256"
        }
      ],
      "stateMutability": "view",
      "type": "function"
    },
    {
      "inputs": [],
      "name": "owner",
      "outputs": [
        {
          "internalType": "address",
          "name": "",
          "type": "address"
        }
      ],
      "stateMutability": "view",
      "type": "function"
    },
    {
      "inputs": [],
      "name": "paused",
      "outputs": [
        {
          "internalType": "bool",
          "name": "",
          "type": "bool"
        }
      ],
      "stateMutability": "view",
      "type": "function"
    },
    {
      "inputs": [],
      "name": "poolLimitPerUser",
      "outputs": [
        {
          "internalType": "uint256",
          "name": "",
          "type": "uint256"
        }
      ],
      "stateMutability": "view",
      "type": "function"
    },
    {
      "inputs": [],
      "name": "renounceOwnership",
      "outputs": [],
      "stateMutability": "nonpayable",
      "type": "function"
    },
    {
      "inputs": [],
      "name": "rewardPerBlock",
      "outputs": [
        {
          "internalType": "uint256",
          "name": "",
          "type": "uint256"
        }
      ],
      "stateMutability": "view",
      "type": "function"
    },
    {
      "inputs": [],
      "name": "rewardToken",
      "outputs": [
        {
          "internalType": "contract IERC20Metadata",
          "name": "",
          "type": "address"
        }
      ],
      "stateMutability": "view",
      "type": "function"
    },
    {
      "inputs": [
        {
          "internalType": "bool",
          "name": "flag",
          "type": "bool"
        }
      ],
      "name": "setAdminWithdrawable",
      "outputs": [],
      "stateMutability": "nonpayable",
      "type": "function"
    },
    {
      "inputs": [
        {
          "internalType": "uint256",
          "name": "_amount",
          "type": "uint256"
        }
      ],
      "name": "stake",
      "outputs": [
        {
          "internalType": "bool",
          "name": "",
          "type": "bool"
        }
      ],
      "stateMutability": "nonpayable",
      "type": "function"
    },
    {
      "inputs": [],
      "name": "stakedToken",
      "outputs": [
        {
          "internalType": "contract IERC20Metadata",
          "name": "",
          "type": "address"
        }
      ],
      "stateMutability": "view",
      "type": "function"
    },
    {
      "inputs": [],
      "name": "startBlock",
      "outputs": [
        {
          "internalType": "uint256",
          "name": "",
          "type": "uint256"
        }
      ],
      "stateMutability": "view",
      "type": "function"
    },
    {
      "inputs": [
        {
          "internalType": "address",
          "name": "newOwner",
          "type": "address"
        }
      ],
      "name": "transferOwnership",
      "outputs": [],
      "stateMutability": "nonpayable",
      "type": "function"
    },
    {
      "inputs": [
        {
          "internalType": "bool",
          "name": "_userLimit",
          "type": "bool"
        },
        {
          "internalType": "uint256",
          "name": "_poolLimitPerUser",
          "type": "uint256"
        }
      ],
      "name": "updatePoolLimitPerUser",
      "outputs": [],
      "stateMutability": "nonpayable",
      "type": "function"
    },
    {
      "inputs": [
        {
          "internalType": "address",
          "name": "",
          "type": "address"
        }
      ],
      "name": "userInfo",
      "outputs": [
        {
          "internalType": "uint256",
          "name": "depositAmount",
          "type": "uint256"
        },
        {
          "internalType": "uint256",
          "name": "depositTime",
          "type": "uint256"
        },
        {
          "internalType": "uint256",
          "name": "endTime",
          "type": "uint256"
        },
        {
          "internalType": "uint256",
          "name": "rewards",
          "type": "uint256"
        },
        {
          "internalType": "uint256",
          "name": "rewardDebt",
          "type": "uint256"
        },
        {
          "internalType": "bool",
          "name": "paid",
          "type": "bool"
        }
      ],
      "stateMutability": "view",
      "type": "function"
    },
    {
      "inputs": [],
      "name": "userLimit",
      "outputs": [
        {
          "internalType": "bool",
          "name": "",
          "type": "bool"
        }
      ],
      "stateMutability": "view",
      "type": "function"
    },
    {
      "inputs": [],
      "name": "withdraw",
      "outputs": [],
      "stateMutability": "nonpayable",
      "type": "function"
    }
  ],
  "bytecode": "0x60a06040526001600360146101000a81548160ff0219169083151502179055503480156200002c57600080fd5b506200004d62000041620000a960201b60201c565b620000b160201b60201c565b600180819055506000600260006101000a81548160ff0219169083151502179055503373ffffffffffffffffffffffffffffffffffffffff1660808173ffffffffffffffffffffffffffffffffffffffff168152505062000175565b600033905090565b60008060009054906101000a900473ffffffffffffffffffffffffffffffffffffffff169050816000806101000a81548173ffffffffffffffffffffffffffffffffffffffff021916908373ffffffffffffffffffffffffffffffffffffffff1602179055508173ffffffffffffffffffffffffffffffffffffffff168173ffffffffffffffffffffffffffffffffffffffff167f8be0079c531659141344cd1fd0a4f28419497f9722a3daafe3b4186f6b6457e060405160405180910390a35050565b6080516133e1620001986000396000818161052f01526107c601526133e16000f3fe608060405234801561001057600080fd5b50600436106101cf5760003560e01c80638ae39cac11610104578063a9f8d181116100a2578063db2e21bc11610071578063db2e21bc146104cb578063f2fde38b146104d5578063f7c618c1146104f1578063f851a4401461050f576101cf565b8063a9f8d18114610455578063b13c17e814610473578063cc7a262e1461048f578063ccd34cd5146104ad576101cf565b806392e8990e116100de57806392e8990e146103cf578063a0b40905146103ed578063a28835b614610409578063a694fc3a14610425576101cf565b80638ae39cac146103755780638da5cb5b146103935780638f662915146103b1576101cf565b80634a7c01ec116101715780635f34992a1161014b5780635f34992a1461031357806366fe9f8a1461032f578063715018a61461034d5780638ad1071b14610357576101cf565b80634a7c01ec146102a757806350003ca6146102c55780635c975abb146102f5576101cf565b80633279beab116101ad5780633279beab14610245578063392e53cd146102615780633ccfd60b1461027f57806348cd4cb114610289576101cf565b806311ddb8dd146101d45780631959a002146101f25780631aed655314610227575b600080fd5b6101dc61052d565b6040516101e99190612064565b60405180910390f35b61020c600480360381019061020791906120b0565b610551565b60405161021e96959493929190612111565b60405180910390f35b61022f61059a565b60405161023c9190612172565b60405180910390f35b61025f600480360381019061025a91906121b9565b6105a0565b005b6102696105f8565b60405161027691906121e6565b60405180910390f35b61028761060b565b005b610291610732565b60405161029e9190612172565b60405180910390f35b6102af610738565b6040516102bc91906121e6565b60405180910390f35b6102df60048036038101906102da91906120b0565b61074b565b6040516102ec9190612172565b60405180910390f35b6102fd61075d565b60405161030a91906121e6565b60405180910390f35b61032d6004803603810190610328919061223f565b610774565b005b610337610a90565b6040516103449190612172565b60405180910390f35b610355610a96565b005b61035f610aaa565b60405161036c9190612172565b60405180910390f35b61037d610ab0565b60405161038a9190612172565b60405180910390f35b61039b610ab6565b6040516103a89190612064565b60405180910390f35b6103b9610adf565b6040516103c69190612172565b60405180910390f35b6103d7610ae5565b6040516103e491906121e6565b60405180910390f35b61040760048036038101906104029190612335565b610b28565b005b610423600480360381019061041e91906120b0565b610c35565b005b61043f600480360381019061043a91906121b9565b610de6565b60405161044c91906121e6565b60405180910390f35b61045d610ff8565b60405161046a9190612172565b60405180910390f35b61048d60048036038101906104889190612375565b610ffe565b005b610497611078565b6040516104a49190612401565b60405180910390f35b6104b561109e565b6040516104c29190612172565b60405180910390f35b6104d36110a4565b005b6104ef60048036038101906104ea91906120b0565b611276565b005b6104f96112f9565b6040516105069190612401565b60405180910390f35b61051761131f565b6040516105249190612064565b60405180910390f35b7f000000000000000000000000000000000000000000000000000000000000000081565b60046020528060005260406000206000915090508060000154908060010154908060020154908060030154908060040154908060050160009054906101000a900460ff16905086565b60095481565b6105a8611345565b6105f53382600360009054906101000a900473ffffffffffffffffffffffffffffffffffffffff1673ffffffffffffffffffffffffffffffffffffffff166113c39092919063ffffffff16565b50565b600760009054906101000a900460ff1681565b33600073ffffffffffffffffffffffffffffffffffffffff168173ffffffffffffffffffffffffffffffffffffffff160361067b576040517f08c379a000000000000000000000000000000000000000000000000000000000815260040161067290612479565b60405180910390fd5b6002600154036106c0576040517f08c379a00000000000000000000000000000000000000000000000000000000081526004016106b7906124e5565b60405180910390fd5b600260018190555060001515600360149054906101000a900460ff1615151461071e576040517f08c379a000000000000000000000000000000000000000000000000000000000815260040161071590612577565b60405180910390fd5b61072733611449565b506001808190555050565b600a5481565b600d60009054906101000a900460ff1681565b600061075682611752565b9050919050565b6000600260009054906101000a900460ff16905090565b600760009054906101000a900460ff16156107c4576040517f08c379a00000000000000000000000000000000000000000000000000000000081526004016107bb906125e3565b60405180910390fd5b7f000000000000000000000000000000000000000000000000000000000000000073ffffffffffffffffffffffffffffffffffffffff163373ffffffffffffffffffffffffffffffffffffffff1614610852576040517f08c379a00000000000000000000000000000000000000000000000000000000081526004016108499061264f565b60405180910390fd5b6001600760006101000a81548160ff02191690831515021790555088600260016101000a81548173ffffffffffffffffffffffffffffffffffffffff021916908373ffffffffffffffffffffffffffffffffffffffff16021790555087600360006101000a81548173ffffffffffffffffffffffffffffffffffffffff021916908373ffffffffffffffffffffffffffffffffffffffff16021790555086600f8190555085600a81905550846009819055506000841115610937576001600d60006101000a81548160ff02191690831515021790555083600c8190555082600e819055505b6000600360009054906101000a900473ffffffffffffffffffffffffffffffffffffffff1673ffffffffffffffffffffffffffffffffffffffff1663313ce5676040518163ffffffff1660e01b8152600401602060405180830381865afa1580156109a6573d6000803e3d6000fd5b505050506040513d601f19601f820116820180604052508101906109ca91906126a8565b60ff169050601e8110610a12576040517f08c379a0000000000000000000000000000000000000000000000000000000008152600401610a0990612721565b60405180910390fd5b80601e610a1f9190612770565b600a610a2b91906128d7565b600681905550600a54600b8190555082600560006101000a81548173ffffffffffffffffffffffffffffffffffffffff021916908373ffffffffffffffffffffffffffffffffffffffff160217905550610a8482611276565b50505050505050505050565b600c5481565b610a9e611345565b610aa86000611840565b565b600e5481565b600f5481565b60008060009054906101000a900473ffffffffffffffffffffffffffffffffffffffff16905090565b60085481565b6000600d60009054906101000a900460ff161580610b125750600e54600a54610b0e9190612922565b4310155b15610b205760009050610b25565b600190505b90565b610b30611345565b600d60009054906101000a900460ff16610b7f576040517f08c379a0000000000000000000000000000000000000000000000000000000008152600401610b76906129a2565b60405180910390fd5b8115610bd557600c548111610bc9576040517f08c379a0000000000000000000000000000000000000000000000000000000008152600401610bc090612a0e565b60405180910390fd5b80600c81905550610bf8565b81600d60006101000a81548160ff0219169083151502179055506000600c819055505b7f241f67ee5f41b7a5cabf911367329be7215900f602ebfc47f89dce2a6bcd847c600c54604051610c299190612172565b60405180910390a15050565b33600073ffffffffffffffffffffffffffffffffffffffff168173ffffffffffffffffffffffffffffffffffffffff1603610ca5576040517f08c379a0000000000000000000000000000000000000000000000000000000008152600401610c9c90612479565b60405180910390fd5b600260015403610cea576040517f08c379a0000000000000000000000000000000000000000000000000000000008152600401610ce1906124e5565b60405180910390fd5b60026001819055503373ffffffffffffffffffffffffffffffffffffffff16600560009054906101000a900473ffffffffffffffffffffffffffffffffffffffff1673ffffffffffffffffffffffffffffffffffffffff1614610d82576040517f08c379a0000000000000000000000000000000000000000000000000000000008152600401610d7990612a7a565b60405180910390fd5b600360149054906101000a900460ff16610dd1576040517f08c379a0000000000000000000000000000000000000000000000000000000008152600401610dc890612b0c565b60405180910390fd5b610dda82611449565b50600180819055505050565b600033600073ffffffffffffffffffffffffffffffffffffffff168173ffffffffffffffffffffffffffffffffffffffff1603610e58576040517f08c379a0000000000000000000000000000000000000000000000000000000008152600401610e4f90612479565b60405180910390fd5b33836000600260019054906101000a900473ffffffffffffffffffffffffffffffffffffffff16905060008173ffffffffffffffffffffffffffffffffffffffff1663dd62ed3e85306040518363ffffffff1660e01b8152600401610ebe929190612b2c565b602060405180830381865afa158015610edb573d6000803e3d6000fd5b505050506040513d601f19601f82011682018060405250810190610eff9190612b6a565b905080831115610f44576040517f08c379a0000000000000000000000000000000000000000000000000000000008152600401610f3b90612c09565b60405180910390fd5b600260015403610f89576040517f08c379a0000000000000000000000000000000000000000000000000000000008152600401610f80906124e5565b60405180910390fd5b6002600181905550610f99611904565b60008711610fdc576040517f08c379a0000000000000000000000000000000000000000000000000000000008152600401610fd390612c75565b60405180910390fd5b610fe58761194e565b9550600180819055505050505050919050565b600b5481565b611006611345565b801515600360149054906101000a900460ff1615150361105b576040517f08c379a000000000000000000000000000000000000000000000000000000000815260040161105290612ce1565b60405180910390fd5b80600360146101000a81548160ff02191690831515021790555050565b600260019054906101000a900473ffffffffffffffffffffffffffffffffffffffff1681565b60065481565b33600073ffffffffffffffffffffffffffffffffffffffff168173ffffffffffffffffffffffffffffffffffffffff1603611114576040517f08c379a000000000000000000000000000000000000000000000000000000000815260040161110b90612479565b60405180910390fd5b600260015403611159576040517f08c379a0000000000000000000000000000000000000000000000000000000008152600401611150906124e5565b60405180910390fd5b60026001819055506000600460003373ffffffffffffffffffffffffffffffffffffffff1673ffffffffffffffffffffffffffffffffffffffff168152602001908152602001600020905060008160000154905060008260000181905550600082600401819055506000811115611218576112173382600260019054906101000a900473ffffffffffffffffffffffffffffffffffffffff1673ffffffffffffffffffffffffffffffffffffffff166113c39092919063ffffffff16565b5b3373ffffffffffffffffffffffffffffffffffffffff167f5fafa99d0643513820be26656b45130b01e1c03062e1266bf36f88cbd3bd969583600001546040516112629190612172565b60405180910390a250506001808190555050565b61127e611345565b600073ffffffffffffffffffffffffffffffffffffffff168173ffffffffffffffffffffffffffffffffffffffff16036112ed576040517f08c379a00000000000000000000000000000000000000000000000000000000081526004016112e490612d73565b60405180910390fd5b6112f681611840565b50565b600360009054906101000a900473ffffffffffffffffffffffffffffffffffffffff1681565b600560009054906101000a900473ffffffffffffffffffffffffffffffffffffffff1681565b61134d611b88565b73ffffffffffffffffffffffffffffffffffffffff1661136b610ab6565b73ffffffffffffffffffffffffffffffffffffffff16146113c1576040517f08c379a00000000000000000000000000000000000000000000000000000000081526004016113b890612ddf565b60405180910390fd5b565b6114448363a9059cbb60e01b84846040516024016113e2929190612dff565b604051602081830303815290604052907bffffffffffffffffffffffffffffffffffffffffffffffffffffffff19166020820180517bffffffffffffffffffffffffffffffffffffffffffffffffffffffff8381831617835250505050611b90565b505050565b600080600460008473ffffffffffffffffffffffffffffffffffffffff1673ffffffffffffffffffffffffffffffffffffffff168152602001908152602001600020600001549050600081116114d4576040517f08c379a00000000000000000000000000000000000000000000000000000000081526004016114cb90612e74565b60405180910390fd5b6114dc611c57565b6000600460008573ffffffffffffffffffffffffffffffffffffffff1673ffffffffffffffffffffffffffffffffffffffff1681526020019081526020016000209050600061152a85611752565b905082826000015461153c9190612770565b826000018190555060008260030181905550600082600401819055506115a58584600260019054906101000a900473ffffffffffffffffffffffffffffffffffffffff1673ffffffffffffffffffffffffffffffffffffffff166113c39092919063ffffffff16565b60001515600360149054906101000a900460ff161515036116f65760008111156116f55780600360009054906101000a900473ffffffffffffffffffffffffffffffffffffffff1673ffffffffffffffffffffffffffffffffffffffff166370a08231306040518263ffffffff1660e01b81526004016116259190612064565b602060405180830381865afa158015611642573d6000803e3d6000fd5b505050506040513d601f19601f820116820180604052508101906116669190612b6a565b10156116a7576040517f08c379a000000000000000000000000000000000000000000000000000000000815260040161169e90612ee0565b60405180910390fd5b6116f48582600360009054906101000a900473ffffffffffffffffffffffffffffffffffffffff1673ffffffffffffffffffffffffffffffffffffffff166113c39092919063ffffffff16565b5b5b8473ffffffffffffffffffffffffffffffffffffffff167ff279e6a1f5e320cca91135676d9cb6e44ca8a08c0b88342bcdb1144f6511b568848360405161173e929190612f00565b60405180910390a260019350505050919050565b600080600460008473ffffffffffffffffffffffffffffffffffffffff1673ffffffffffffffffffffffffffffffffffffffff1681526020019081526020016000206040518060c001604052908160008201548152602001600182015481526020016002820154815260200160038201548152602001600482015481526020016005820160009054906101000a900460ff161515151581525050905060008160800151600654600854846000015161180a9190612f29565b6118149190612f9a565b61181e9190612770565b9050611837818360600151611d7190919063ffffffff16565b92505050919050565b60008060009054906101000a900473ffffffffffffffffffffffffffffffffffffffff169050816000806101000a81548173ffffffffffffffffffffffffffffffffffffffff021916908373ffffffffffffffffffffffffffffffffffffffff1602179055508173ffffffffffffffffffffffffffffffffffffffff168173ffffffffffffffffffffffffffffffffffffffff167f8be0079c531659141344cd1fd0a4f28419497f9722a3daafe3b4186f6b6457e060405160405180910390a35050565b61190c61075d565b1561194c576040517f08c379a000000000000000000000000000000000000000000000000000000000815260040161194390613017565b60405180910390fd5b565b600080600460003373ffffffffffffffffffffffffffffffffffffffff1673ffffffffffffffffffffffffffffffffffffffff168152602001908152602001600020905061199a610ae5565b600d60006101000a81548160ff021916908315150217905550600d60009054906101000a900460ff1615806119e05750600c548160000154846119dd9190612922565b11155b611a1f576040517f08c379a0000000000000000000000000000000000000000000000000000000008152600401611a1690613083565b60405180910390fd5b611a27611c57565b600081600001541115611a98576000611a6b82600401546006546008548560000154611a539190612f29565b611a5d9190612f9a565b611d8790919063ffffffff16565b90506000811115611a9657611a8d818360030154611d7190919063ffffffff16565b82600301819055505b505b6000831115611b0957828160000154611ab19190612922565b8160000181905550611b08333085600260019054906101000a900473ffffffffffffffffffffffffffffffffffffffff1673ffffffffffffffffffffffffffffffffffffffff16611d9d909392919063ffffffff16565b5b6006546008548260000154611b1e9190612f29565b611b289190612f9a565b81600401819055503373ffffffffffffffffffffffffffffffffffffffff167febedb8b3c678666e7f36970bc8f57abf6d8fa2e828c0da91ea5b75bf68ed101a84604051611b769190612172565b60405180910390a26001915050919050565b600033905090565b6000611bf2826040518060400160405280602081526020017f5361666545524332303a206c6f772d6c6576656c2063616c6c206661696c65648152508573ffffffffffffffffffffffffffffffffffffffff16611e269092919063ffffffff16565b9050600081511115611c525780806020019051810190611c1291906130b8565b611c51576040517f08c379a0000000000000000000000000000000000000000000000000000000008152600401611c4890613157565b60405180910390fd5b5b505050565b600b54431115611d6f576000600260019054906101000a900473ffffffffffffffffffffffffffffffffffffffff1673ffffffffffffffffffffffffffffffffffffffff166370a08231306040518263ffffffff1660e01b8152600401611cbe9190612064565b602060405180830381865afa158015611cdb573d6000803e3d6000fd5b505050506040513d601f19601f82011682018060405250810190611cff9190612b6a565b905060008103611d165743600b8190555050611d6f565b6000611d24600b5443611e3e565b90506000600f5482611d369190612f29565b90508260065482611d479190612f29565b611d519190612f9a565b600854611d5e9190612922565b60088190555043600b819055505050505b565b60008183611d7f9190612922565b905092915050565b60008183611d959190612770565b905092915050565b611e20846323b872dd60e01b858585604051602401611dbe93929190613177565b604051602081830303815290604052907bffffffffffffffffffffffffffffffffffffffffffffffffffffffff19166020820180517bffffffffffffffffffffffffffffffffffffffffffffffffffffffff8381831617835250505050611b90565b50505050565b6060611e358484600085611e85565b90509392505050565b60006009548211611e5c578282611e559190612770565b9050611e7f565b6009548310611e6e5760009050611e7f565b82600954611e7c9190612770565b90505b92915050565b606082471015611eca576040517f08c379a0000000000000000000000000000000000000000000000000000000008152600401611ec190613220565b60405180910390fd5b611ed385611f99565b611f12576040517f08c379a0000000000000000000000000000000000000000000000000000000008152600401611f099061328c565b60405180910390fd5b6000808673ffffffffffffffffffffffffffffffffffffffff168587604051611f3b919061331d565b60006040518083038185875af1925050503d8060008114611f78576040519150601f19603f3d011682016040523d82523d6000602084013e611f7d565b606091505b5091509150611f8d828286611fbc565b92505050949350505050565b6000808273ffffffffffffffffffffffffffffffffffffffff163b119050919050565b60608315611fcc5782905061201c565b600083511115611fdf5782518084602001fd5b816040517f08c379a00000000000000000000000000000000000000000000000000000000081526004016120139190613389565b60405180910390fd5b9392505050565b600073ffffffffffffffffffffffffffffffffffffffff82169050919050565b600061204e82612023565b9050919050565b61205e81612043565b82525050565b60006020820190506120796000830184612055565b92915050565b600080fd5b61208d81612043565b811461209857600080fd5b50565b6000813590506120aa81612084565b92915050565b6000602082840312156120c6576120c561207f565b5b60006120d48482850161209b565b91505092915050565b6000819050919050565b6120f0816120dd565b82525050565b60008115159050919050565b61210b816120f6565b82525050565b600060c08201905061212660008301896120e7565b61213360208301886120e7565b61214060408301876120e7565b61214d60608301866120e7565b61215a60808301856120e7565b61216760a0830184612102565b979650505050505050565b600060208201905061218760008301846120e7565b92915050565b612196816120dd565b81146121a157600080fd5b50565b6000813590506121b38161218d565b92915050565b6000602082840312156121cf576121ce61207f565b5b60006121dd848285016121a4565b91505092915050565b60006020820190506121fb6000830184612102565b92915050565b600061220c82612043565b9050919050565b61221c81612201565b811461222757600080fd5b50565b60008135905061223981612213565b92915050565b60008060008060008060008060006101208a8c0312156122625761226161207f565b5b60006122708c828d0161222a565b99505060206122818c828d0161222a565b98505060406122928c828d016121a4565b97505060606122a38c828d016121a4565b96505060806122b48c828d016121a4565b95505060a06122c58c828d016121a4565b94505060c06122d68c828d016121a4565b93505060e06122e78c828d0161209b565b9250506101006122f98c828d0161209b565b9150509295985092959850929598565b612312816120f6565b811461231d57600080fd5b50565b60008135905061232f81612309565b92915050565b6000806040838503121561234c5761234b61207f565b5b600061235a85828601612320565b925050602061236b858286016121a4565b9150509250929050565b60006020828403121561238b5761238a61207f565b5b600061239984828501612320565b91505092915050565b6000819050919050565b60006123c76123c26123bd84612023565b6123a2565b612023565b9050919050565b60006123d9826123ac565b9050919050565b60006123eb826123ce565b9050919050565b6123fb816123e0565b82525050565b600060208201905061241660008301846123f2565b92915050565b600082825260208201905092915050565b7f5a65726f20616464726573730000000000000000000000000000000000000000600082015250565b6000612463600c8361241c565b915061246e8261242d565b602082019050919050565b6000602082019050818103600083015261249281612456565b9050919050565b7f5265656e7472616e637947756172643a207265656e7472616e742063616c6c00600082015250565b60006124cf601f8361241c565b91506124da82612499565b602082019050919050565b600060208201905081810360008301526124fe816124c2565b9050919050565b7f776974686472617720776f756c6420626520646f6e65206175746f6d6174696360008201527f616c6c7900000000000000000000000000000000000000000000000000000000602082015250565b600061256160248361241c565b915061256c82612505565b604082019050919050565b6000602082019050818103600083015261259081612554565b9050919050565b7f416c726561647920696e697469616c697a656400000000000000000000000000600082015250565b60006125cd60138361241c565b91506125d882612597565b602082019050919050565b600060208201905081810360008301526125fc816125c0565b9050919050565b7f4e6f7420666163746f7279000000000000000000000000000000000000000000600082015250565b6000612639600b8361241c565b915061264482612603565b602082019050919050565b600060208201905081810360008301526126688161262c565b9050919050565b600060ff82169050919050565b6126858161266f565b811461269057600080fd5b50565b6000815190506126a28161267c565b92915050565b6000602082840312156126be576126bd61207f565b5b60006126cc84828501612693565b91505092915050565b7f4d757374206265206c657373207468616e203330000000000000000000000000600082015250565b600061270b60148361241c565b9150612716826126d5565b602082019050919050565b6000602082019050818103600083015261273a816126fe565b9050919050565b7f4e487b7100000000000000000000000000000000000000000000000000000000600052601160045260246000fd5b600061277b826120dd565b9150612786836120dd565b925082820390508181111561279e5761279d612741565b5b92915050565b60008160011c9050919050565b6000808291508390505b60018511156127fb578086048111156127d7576127d6612741565b5b60018516156127e65780820291505b80810290506127f4856127a4565b94506127bb565b94509492505050565b60008261281457600190506128d0565b8161282257600090506128d0565b8160018114612838576002811461284257612871565b60019150506128d0565b60ff84111561285457612853612741565b5b8360020a91508482111561286b5761286a612741565b5b506128d0565b5060208310610133831016604e8410600b84101617156128a65782820a9050838111156128a1576128a0612741565b5b6128d0565b6128b384848460016127b1565b925090508184048111156128ca576128c9612741565b5b81810290505b9392505050565b60006128e2826120dd565b91506128ed836120dd565b925061291a7fffffffffffffffffffffffffffffffffffffffffffffffffffffffffffffffff8484612804565b905092915050565b600061292d826120dd565b9150612938836120dd565b92508282019050808211156129505761294f612741565b5b92915050565b7f4d75737420626520736574000000000000000000000000000000000000000000600082015250565b600061298c600b8361241c565b915061299782612956565b602082019050919050565b600060208201905081810360008301526129bb8161297f565b9050919050565b7f4e6577206c696d6974206d757374206265206869676865720000000000000000600082015250565b60006129f860188361241c565b9150612a03826129c2565b602082019050919050565b60006020820190508181036000830152612a27816129eb565b9050919050565b7f496e76616c69642061646d696e00000000000000000000000000000000000000600082015250565b6000612a64600d8361241c565b9150612a6f82612a2e565b602082019050919050565b60006020820190508181036000830152612a9381612a57565b9050919050565b7f77697468647261772063616e6e6f7420626520646f6e65206175746f6d61746960008201527f63616c6c79000000000000000000000000000000000000000000000000000000602082015250565b6000612af660258361241c565b9150612b0182612a9a565b604082019050919050565b60006020820190508181036000830152612b2581612ae9565b9050919050565b6000604082019050612b416000830185612055565b612b4e6020830184612055565b9392505050565b600081519050612b648161218d565b92915050565b600060208284031215612b8057612b7f61207f565b5b6000612b8e84828501612b55565b91505092915050565b7f4d616b65207375726520746f2061646420656e6f75676820616c6c6f77616e6360008201527f6500000000000000000000000000000000000000000000000000000000000000602082015250565b6000612bf360218361241c565b9150612bfe82612b97565b604082019050919050565b60006020820190508181036000830152612c2281612be6565b9050919050565b7f43616e2774207374616b65203020616d6f756e74000000000000000000000000600082015250565b6000612c5f60148361241c565b9150612c6a82612c29565b602082019050919050565b60006020820190508181036000830152612c8e81612c52565b9050919050565b7f53616d652073657474696e670000000000000000000000000000000000000000600082015250565b6000612ccb600c8361241c565b9150612cd682612c95565b602082019050919050565b60006020820190508181036000830152612cfa81612cbe565b9050919050565b7f4f776e61626c653a206e6577206f776e657220697320746865207a65726f206160008201527f6464726573730000000000000000000000000000000000000000000000000000602082015250565b6000612d5d60268361241c565b9150612d6882612d01565b604082019050919050565b60006020820190508181036000830152612d8c81612d50565b9050919050565b7f4f776e61626c653a2063616c6c6572206973206e6f7420746865206f776e6572600082015250565b6000612dc960208361241c565b9150612dd482612d93565b602082019050919050565b60006020820190508181036000830152612df881612dbc565b9050919050565b6000604082019050612e146000830185612055565b612e2160208301846120e7565b9392505050565b7f456d70747920746f207769746864726177000000000000000000000000000000600082015250565b6000612e5e60118361241c565b9150612e6982612e28565b602082019050919050565b60006020820190508181036000830152612e8d81612e51565b9050919050565b7f496e73756666696369656e7420706f6f6c000000000000000000000000000000600082015250565b6000612eca60118361241c565b9150612ed582612e94565b602082019050919050565b60006020820190508181036000830152612ef981612ebd565b9050919050565b6000604082019050612f1560008301856120e7565b612f2260208301846120e7565b9392505050565b6000612f34826120dd565b9150612f3f836120dd565b9250828202612f4d816120dd565b91508282048414831517612f6457612f63612741565b5b5092915050565b7f4e487b7100000000000000000000000000000000000000000000000000000000600052601260045260246000fd5b6000612fa5826120dd565b9150612fb0836120dd565b925082612fc057612fbf612f6b565b5b828204905092915050565b7f5061757361626c653a2070617573656400000000000000000000000000000000600082015250565b600061300160108361241c565b915061300c82612fcb565b602082019050919050565b6000602082019050818103600083015261303081612ff4565b9050919050565b7f5374616b653a20416d6f756e742061626f7665206c696d697400000000000000600082015250565b600061306d60198361241c565b915061307882613037565b602082019050919050565b6000602082019050818103600083015261309c81613060565b9050919050565b6000815190506130b281612309565b92915050565b6000602082840312156130ce576130cd61207f565b5b60006130dc848285016130a3565b91505092915050565b7f5361666545524332303a204552433230206f7065726174696f6e20646964206e60008201527f6f74207375636365656400000000000000000000000000000000000000000000602082015250565b6000613141602a8361241c565b915061314c826130e5565b604082019050919050565b6000602082019050818103600083015261317081613134565b9050919050565b600060608201905061318c6000830186612055565b6131996020830185612055565b6131a660408301846120e7565b949350505050565b7f416464726573733a20696e73756666696369656e742062616c616e636520666f60008201527f722063616c6c0000000000000000000000000000000000000000000000000000602082015250565b600061320a60268361241c565b9150613215826131ae565b604082019050919050565b60006020820190508181036000830152613239816131fd565b9050919050565b7f416464726573733a2063616c6c20746f206e6f6e2d636f6e7472616374000000600082015250565b6000613276601d8361241c565b915061328182613240565b602082019050919050565b600060208201905081810360008301526132a581613269565b9050919050565b600081519050919050565b600081905092915050565b60005b838110156132e05780820151818401526020810190506132c5565b60008484015250505050565b60006132f7826132ac565b61330181856132b7565b93506133118185602086016132c2565b80840191505092915050565b600061332982846132ec565b915081905092915050565b600081519050919050565b6000601f19601f8301169050919050565b600061335b82613334565b613365818561241c565b93506133758185602086016132c2565b61337e8161333f565b840191505092915050565b600060208201905081810360008301526133a38184613350565b90509291505056fea2646970667358221220a212c941d4eb5c32b4ea580c00b94dd569dad67257ede385ad8362ea3b3fec9b64736f6c63430008110033",
  "linkReferences": {},
  "deployedLinkReferences": {}
}