{
  "_format": "hh-sol-artifact-1",
  "contractName": "SecondSkinNFTStaking",
  "sourceName": "contracts/SecondSkinNFTStaking.sol",
  "abi": [
    {
      "inputs": [
        {
          "internalType": "contract IERC721",
          "name": "_secondskinnft",
          "type": "address"
        }
      ],
      "stateMutability": "nonpayable",
      "type": "constructor"
    },
    {
      "anonymous": false,
      "inputs": [
        {
          "indexed": true,
          "internalType": "address",
          "name": "previousOwner",
          "type": "address"
        },
        {
          "indexed": true,
          "internalType": "address",
          "name": "newOwner",
          "type": "address"
        }
      ],
      "name": "OwnershipTransferred",
      "type": "event"
    },
    {
      "anonymous": false,
      "inputs": [
        {
          "indexed": true,
          "internalType": "address",
          "name": "sender",
          "type": "address"
        },
        {
          "indexed": true,
          "internalType": "address",
          "name": "nftAddress",
          "type": "address"
        },
        {
          "indexed": false,
          "internalType": "uint256",
          "name": "tokenId",
          "type": "uint256"
        },
        {
          "indexed": false,
          "internalType": "uint256",
          "name": "timeOfLastUpdate",
          "type": "uint256"
        }
      ],
      "name": "SecondSkinNFTLocked",
      "type": "event"
    },
    {
      "anonymous": false,
      "inputs": [
        {
          "indexed": true,
          "internalType": "address",
          "name": "sender",
          "type": "address"
        },
        {
          "indexed": true,
          "internalType": "address",
          "name": "nftAddress",
          "type": "address"
        },
        {
          "indexed": false,
          "internalType": "uint256",
          "name": "tokenId",
          "type": "uint256"
        },
        {
          "indexed": false,
          "internalType": "uint256",
          "name": "timeOfLastUpdate",
          "type": "uint256"
        }
      ],
      "name": "SecondSkinNFTUnlocked",
      "type": "event"
    },
    {
      "inputs": [],
      "name": "getUserLockedNFTCounter",
      "outputs": [
        {
          "internalType": "uint256",
          "name": "",
          "type": "uint256"
        }
      ],
      "stateMutability": "view",
      "type": "function"
    },
    {
      "inputs": [
        {
          "internalType": "address",
          "name": "",
          "type": "address"
        },
        {
          "internalType": "uint256",
          "name": "",
          "type": "uint256"
        }
      ],
      "name": "isNFTLocked",
      "outputs": [
        {
          "internalType": "bool",
          "name": "isLocked",
          "type": "bool"
        },
        {
          "internalType": "uint256",
          "name": "timeOfLastUpdate",
          "type": "uint256"
        }
      ],
      "stateMutability": "view",
      "type": "function"
    },
    {
      "inputs": [
        {
          "internalType": "address",
          "name": "",
          "type": "address"
        }
      ],
      "name": "lockCount",
      "outputs": [
        {
          "internalType": "uint256",
          "name": "",
          "type": "uint256"
        }
      ],
      "stateMutability": "view",
      "type": "function"
    },
    {
      "inputs": [
        {
          "internalType": "address",
          "name": "",
          "type": "address"
        },
        {
          "internalType": "address",
          "name": "",
          "type": "address"
        },
        {
          "internalType": "uint256",
          "name": "",
          "type": "uint256"
        },
        {
          "internalType": "bytes",
          "name": "",
          "type": "bytes"
        }
      ],
      "name": "onERC721Received",
      "outputs": [
        {
          "internalType": "bytes4",
          "name": "",
          "type": "bytes4"
        }
      ],
      "stateMutability": "nonpayable",
      "type": "function"
    },
    {
      "inputs": [],
      "name": "owner",
      "outputs": [
        {
          "internalType": "address",
          "name": "",
          "type": "address"
        }
      ],
      "stateMutability": "view",
      "type": "function"
    },
    {
      "inputs": [],
      "name": "renounceOwnership",
      "outputs": [],
      "stateMutability": "nonpayable",
      "type": "function"
    },
    {
      "inputs": [],
      "name": "secondskinnft",
      "outputs": [
        {
          "internalType": "contract IERC721",
          "name": "",
          "type": "address"
        }
      ],
      "stateMutability": "view",
      "type": "function"
    },
    {
      "inputs": [
        {
          "internalType": "uint256",
          "name": "_tokenId",
          "type": "uint256"
        }
      ],
      "name": "stake",
      "outputs": [],
      "stateMutability": "nonpayable",
      "type": "function"
    },
    {
      "inputs": [
        {
          "internalType": "address",
          "name": "newOwner",
          "type": "address"
        }
      ],
      "name": "transferOwnership",
      "outputs": [],
      "stateMutability": "nonpayable",
      "type": "function"
    },
    {
      "inputs": [
        {
          "internalType": "uint256",
          "name": "_tokenId",
          "type": "uint256"
        }
      ],
      "name": "unstake",
      "outputs": [],
      "stateMutability": "nonpayable",
      "type": "function"
    }
  ],
  "bytecode": "0x60806040523480156200001157600080fd5b5060405162001840380380620018408339818101604052810190620000379190620001f0565b620000576200004b620000a660201b60201c565b620000ae60201b60201c565b6001808190555080600260006101000a81548173ffffffffffffffffffffffffffffffffffffffff021916908373ffffffffffffffffffffffffffffffffffffffff1602179055505062000222565b600033905090565b60008060009054906101000a900473ffffffffffffffffffffffffffffffffffffffff169050816000806101000a81548173ffffffffffffffffffffffffffffffffffffffff021916908373ffffffffffffffffffffffffffffffffffffffff1602179055508173ffffffffffffffffffffffffffffffffffffffff168173ffffffffffffffffffffffffffffffffffffffff167f8be0079c531659141344cd1fd0a4f28419497f9722a3daafe3b4186f6b6457e060405160405180910390a35050565b600080fd5b600073ffffffffffffffffffffffffffffffffffffffff82169050919050565b6000620001a48262000177565b9050919050565b6000620001b88262000197565b9050919050565b620001ca81620001ab565b8114620001d657600080fd5b50565b600081519050620001ea81620001bf565b92915050565b60006020828403121562000209576200020862000172565b5b60006200021984828501620001d9565b91505092915050565b61160e80620002326000396000f3fe608060405234801561001057600080fd5b506004361061009e5760003560e01c8063a3c0a3cb11610066578063a3c0a3cb14610135578063a694fc3a14610166578063d675120814610182578063df034586146101a0578063f2fde38b146101d05761009e565b8063150b7a02146100a35780632e17de78146100d35780633614f1d7146100ef578063715018a61461010d5780638da5cb5b14610117575b600080fd5b6100bd60048036038101906100b89190610ea3565b6101ec565b6040516100ca9190610f61565b60405180910390f35b6100ed60048036038101906100e89190610f7c565b610200565b005b6100f76105b4565b6040516101049190611008565b60405180910390f35b6101156105da565b005b61011f6105ee565b60405161012c9190611032565b60405180910390f35b61014f600480360381019061014a919061104d565b610617565b60405161015d9291906110b7565b60405180910390f35b610180600480360381019061017b9190610f7c565b610655565b005b61018a610a89565b60405161019791906110e0565b60405180910390f35b6101ba60048036038101906101b591906110fb565b610ad0565b6040516101c791906110e0565b60405180910390f35b6101ea60048036038101906101e591906110fb565b610ae8565b005b600063150b7a0260e01b9050949350505050565b600260015403610245576040517f08c379a000000000000000000000000000000000000000000000000000000000815260040161023c90611185565b60405180910390fd5b6002600181905550600360003373ffffffffffffffffffffffffffffffffffffffff1673ffffffffffffffffffffffffffffffffffffffff168152602001908152602001600020600082815260200190815260200160002060000160009054906101000a900460ff166102ed576040517f08c379a00000000000000000000000000000000000000000000000000000000081526004016102e490611217565b60405180910390fd5b6000600460003373ffffffffffffffffffffffffffffffffffffffff1673ffffffffffffffffffffffffffffffffffffffff1681526020019081526020016000205490506001811015610375576040517f08c379a000000000000000000000000000000000000000000000000000000000815260040161036c90611283565b60405180910390fd5b600042905060018261038791906112d2565b600460003373ffffffffffffffffffffffffffffffffffffffff1673ffffffffffffffffffffffffffffffffffffffff168152602001908152602001600020819055506000600360003373ffffffffffffffffffffffffffffffffffffffff1673ffffffffffffffffffffffffffffffffffffffff168152602001908152602001600020600085815260200190815260200160002060000160006101000a81548160ff02191690831515021790555080600360003373ffffffffffffffffffffffffffffffffffffffff1673ffffffffffffffffffffffffffffffffffffffff168152602001908152602001600020600085815260200190815260200160002060010181905550600260009054906101000a900473ffffffffffffffffffffffffffffffffffffffff1673ffffffffffffffffffffffffffffffffffffffff166323b872dd3033866040518463ffffffff1660e01b81526004016104ed93929190611306565b600060405180830381600087803b15801561050757600080fd5b505af115801561051b573d6000803e3d6000fd5b50505050600260009054906101000a900473ffffffffffffffffffffffffffffffffffffffff1673ffffffffffffffffffffffffffffffffffffffff163373ffffffffffffffffffffffffffffffffffffffff167f0d8e87a6db9a4ffe05a852206d2d04d81c23b000c806cef4bb48ef851418af0f85846040516105a092919061133d565b60405180910390a350506001808190555050565b600260009054906101000a900473ffffffffffffffffffffffffffffffffffffffff1681565b6105e2610b6b565b6105ec6000610be9565b565b60008060009054906101000a900473ffffffffffffffffffffffffffffffffffffffff16905090565b6003602052816000526040600020602052806000526040600020600091509150508060000160009054906101000a900460ff16908060010154905082565b806000600260009054906101000a900473ffffffffffffffffffffffffffffffffffffffff1673ffffffffffffffffffffffffffffffffffffffff16636352211e836040518263ffffffff1660e01b81526004016106b391906110e0565b602060405180830381865afa1580156106d0573d6000803e3d6000fd5b505050506040513d601f19601f820116820180604052508101906106f4919061137b565b90503373ffffffffffffffffffffffffffffffffffffffff168173ffffffffffffffffffffffffffffffffffffffff1614610764576040517f08c379a000000000000000000000000000000000000000000000000000000000815260040161075b9061141a565b60405180910390fd5b60001515600360003373ffffffffffffffffffffffffffffffffffffffff1673ffffffffffffffffffffffffffffffffffffffff168152602001908152602001600020600085815260200190815260200160002060000160009054906101000a900460ff1615151461080b576040517f08c379a000000000000000000000000000000000000000000000000000000000815260040161080290611486565b60405180910390fd5b600260009054906101000a900473ffffffffffffffffffffffffffffffffffffffff1673ffffffffffffffffffffffffffffffffffffffff166323b872dd3330866040518463ffffffff1660e01b815260040161086a93929190611306565b600060405180830381600087803b15801561088457600080fd5b505af1158015610898573d6000803e3d6000fd5b5050505060004290506001600360003373ffffffffffffffffffffffffffffffffffffffff1673ffffffffffffffffffffffffffffffffffffffff168152602001908152602001600020600086815260200190815260200160002060000160006101000a81548160ff02191690831515021790555080600360003373ffffffffffffffffffffffffffffffffffffffff1673ffffffffffffffffffffffffffffffffffffffff1681526020019081526020016000206000868152602001908152602001600020600101819055506000600460003373ffffffffffffffffffffffffffffffffffffffff1673ffffffffffffffffffffffffffffffffffffffff1681526020019081526020016000205490506001816109b691906114a6565b600460003373ffffffffffffffffffffffffffffffffffffffff1673ffffffffffffffffffffffffffffffffffffffff16815260200190815260200160002081905550600260009054906101000a900473ffffffffffffffffffffffffffffffffffffffff1673ffffffffffffffffffffffffffffffffffffffff163373ffffffffffffffffffffffffffffffffffffffff167f8b709a5e9a5f1bac2783e38618d443ff9c5eefd34ca7fd47f0e534cf6aab340b8785604051610a7a92919061133d565b60405180910390a35050505050565b6000600460003373ffffffffffffffffffffffffffffffffffffffff1673ffffffffffffffffffffffffffffffffffffffff16815260200190815260200160002054905090565b60046020528060005260406000206000915090505481565b610af0610b6b565b600073ffffffffffffffffffffffffffffffffffffffff168173ffffffffffffffffffffffffffffffffffffffff1603610b5f576040517f08c379a0000000000000000000000000000000000000000000000000000000008152600401610b569061154c565b60405180910390fd5b610b6881610be9565b50565b610b73610cad565b73ffffffffffffffffffffffffffffffffffffffff16610b916105ee565b73ffffffffffffffffffffffffffffffffffffffff1614610be7576040517f08c379a0000000000000000000000000000000000000000000000000000000008152600401610bde906115b8565b60405180910390fd5b565b60008060009054906101000a900473ffffffffffffffffffffffffffffffffffffffff169050816000806101000a81548173ffffffffffffffffffffffffffffffffffffffff021916908373ffffffffffffffffffffffffffffffffffffffff1602179055508173ffffffffffffffffffffffffffffffffffffffff168173ffffffffffffffffffffffffffffffffffffffff167f8be0079c531659141344cd1fd0a4f28419497f9722a3daafe3b4186f6b6457e060405160405180910390a35050565b600033905090565b6000604051905090565b600080fd5b600080fd5b600073ffffffffffffffffffffffffffffffffffffffff82169050919050565b6000610cf482610cc9565b9050919050565b610d0481610ce9565b8114610d0f57600080fd5b50565b600081359050610d2181610cfb565b92915050565b6000819050919050565b610d3a81610d27565b8114610d4557600080fd5b50565b600081359050610d5781610d31565b92915050565b600080fd5b600080fd5b6000601f19601f8301169050919050565b7f4e487b7100000000000000000000000000000000000000000000000000000000600052604160045260246000fd5b610db082610d67565b810181811067ffffffffffffffff82111715610dcf57610dce610d78565b5b80604052505050565b6000610de2610cb5565b9050610dee8282610da7565b919050565b600067ffffffffffffffff821115610e0e57610e0d610d78565b5b610e1782610d67565b9050602081019050919050565b82818337600083830152505050565b6000610e46610e4184610df3565b610dd8565b905082815260208101848484011115610e6257610e61610d62565b5b610e6d848285610e24565b509392505050565b600082601f830112610e8a57610e89610d5d565b5b8135610e9a848260208601610e33565b91505092915050565b60008060008060808587031215610ebd57610ebc610cbf565b5b6000610ecb87828801610d12565b9450506020610edc87828801610d12565b9350506040610eed87828801610d48565b925050606085013567ffffffffffffffff811115610f0e57610f0d610cc4565b5b610f1a87828801610e75565b91505092959194509250565b60007fffffffff0000000000000000000000000000000000000000000000000000000082169050919050565b610f5b81610f26565b82525050565b6000602082019050610f766000830184610f52565b92915050565b600060208284031215610f9257610f91610cbf565b5b6000610fa084828501610d48565b91505092915050565b6000819050919050565b6000610fce610fc9610fc484610cc9565b610fa9565b610cc9565b9050919050565b6000610fe082610fb3565b9050919050565b6000610ff282610fd5565b9050919050565b61100281610fe7565b82525050565b600060208201905061101d6000830184610ff9565b92915050565b61102c81610ce9565b82525050565b60006020820190506110476000830184611023565b92915050565b6000806040838503121561106457611063610cbf565b5b600061107285828601610d12565b925050602061108385828601610d48565b9150509250929050565b60008115159050919050565b6110a28161108d565b82525050565b6110b181610d27565b82525050565b60006040820190506110cc6000830185611099565b6110d960208301846110a8565b9392505050565b60006020820190506110f560008301846110a8565b92915050565b60006020828403121561111157611110610cbf565b5b600061111f84828501610d12565b91505092915050565b600082825260208201905092915050565b7f5265656e7472616e637947756172643a207265656e7472616e742063616c6c00600082015250565b600061116f601f83611128565b915061117a82611139565b602082019050919050565b6000602082019050818103600083015261119e81611162565b9050919050565b7f556e5374616b653a20796f752068617665206e6f74207374616b65642074686960008201527f73204e4654000000000000000000000000000000000000000000000000000000602082015250565b6000611201602583611128565b915061120c826111a5565b604082019050919050565b60006020820190508181036000830152611230816111f4565b9050919050565b7f556e5374616b653a20696e73756666696369656e742062616c616e6365000000600082015250565b600061126d601d83611128565b915061127882611237565b602082019050919050565b6000602082019050818103600083015261129c81611260565b9050919050565b7f4e487b7100000000000000000000000000000000000000000000000000000000600052601160045260246000fd5b60006112dd82610d27565b91506112e883610d27565b9250828203905081811115611300576112ff6112a3565b5b92915050565b600060608201905061131b6000830186611023565b6113286020830185611023565b61133560408301846110a8565b949350505050565b600060408201905061135260008301856110a8565b61135f60208301846110a8565b9392505050565b60008151905061137581610cfb565b92915050565b60006020828403121561139157611390610cbf565b5b600061139f84828501611366565b91505092915050565b7f546f6b656e204f776e65723a20796f7520617265206e6f74206120746f6b656e60008201527f206f776e65720000000000000000000000000000000000000000000000000000602082015250565b6000611404602683611128565b915061140f826113a8565b604082019050919050565b60006020820190508181036000830152611433816113f7565b9050919050565b7f5374616b653a20796f7520616c7265616479207374616b656400000000000000600082015250565b6000611470601983611128565b915061147b8261143a565b602082019050919050565b6000602082019050818103600083015261149f81611463565b9050919050565b60006114b182610d27565b91506114bc83610d27565b92508282019050808211156114d4576114d36112a3565b5b92915050565b7f4f776e61626c653a206e6577206f776e657220697320746865207a65726f206160008201527f6464726573730000000000000000000000000000000000000000000000000000602082015250565b6000611536602683611128565b9150611541826114da565b604082019050919050565b6000602082019050818103600083015261156581611529565b9050919050565b7f4f776e61626c653a2063616c6c6572206973206e6f7420746865206f776e6572600082015250565b60006115a2602083611128565b91506115ad8261156c565b602082019050919050565b600060208201905081810360008301526115d181611595565b905091905056fea2646970667358221220874ac8dd930e38761d1adaf2557a553a3f514fcd806fbe006bd788d8720b616564736f6c63430008110033",
  "linkReferences": {},
  "deployedLinkReferences": {}
}